:1000000009C021C06BC01FC01EC01DC01CC01BC0CA
:100010001BC019C011241FBECFE9CDBF10E0A0E660
:10002000B0E0EEE6FDE102C005900D92A038B10708
:10003000D9F710E0A0E8B0E001C01D92A438B107E4
:10004000E1F775D092CEDCCF1F920F920FB60F92D0
:1000500011242F933F934F935F936F937F938F93CD
:100060009F93AF93BF93EF93FF93DF93CF93CDB75E
:10007000DEB780918100843639F41092810080913E
:1000800083008F5F8093830080918300843071F4BC
:1000900080918100823351F41092830080E061E00E
:1000A00080D0809182008F5F809382008091810058
:1000B0008F5F80938100CF91DF91FF91EF91BF918E
:1000C000AF919F918F917F916F915F914F913F91F0
:1000D0002F910F900FBE0F901F9018951F920F92A7
:1000E0000FB60F9211242F933F934F935F936F930B
:1000F0007F938F939F93AF93BF93EF93FF93DF9380
:10010000CF93CDB7DEB7C3D0CF91DF91FF91EF9101
:10011000BF91AF919F918F917F916F915F914F911F
:100120003F912F910F900FBE0F901F901895DF9366
:10013000CF93CDB7DEB77BD0ABE5B0E0EBE5F0E039
:10014000808180628C93A5E3B0E0E5E3F0E08081FC
:1001500080618C93A1E4B0E0E1E4F0E08081806212
:100160008C93A1E4B0E0E1E4F0E0808180648C93C2
:100170007894A5E5B0E0E5E5F0E08081877E8061D8
:100180008C93A5E5B0E0E5E5F0E0808180628C939A
:100190008895A5E5B0E0E5E5F0E080818F7D8C9362
:1001A000F0CFDF93CF9300D000D0CDB7DEB78B83F5
:1001B0006C8319821A829E012E5F3F4FCE010196F9
:1001C000B9018BD78F3FC1F08B81882339F08981AA
:1001D00061E07DD08A8160E07AD024D18C8188234F
:1001E000F9F080918200882F90E09C018981482F4E
:1001F000C901642FACDD14C08B81882321F0898173
:1002000061E065D00FD18C81882351F0809182000C
:10021000882F90E09C018981482FC901642F97DDC8
:100220000F900F900F900F90CF91DF910895DF9373
:10023000CF93CDB7DEB7E7E3F0E01082A7E3B0E0FD
:10024000E7E3F0E0808184608C93A7E3B0E0E7E32C
:10025000F0E0808182608C93A7E3B0E0E7E3F0E018
:10026000808181608C93A7E3B0E0E7E3F0E08081D8
:100270008F7E8C93A7E3B0E0E7E3F0E08081877F97
:100280008C93E8E3F0E01082CF91DF910895DF9343
:10029000CF9300D0CDB7DEB719820FC0898161E05E
:1002A00016D08981882F90E04ADD8A838A8160E0B8
:1002B0000ED0B8D089818F5F898390918100898128
:1002C000891760F30F900F90CF91DF910895DF931E
:1002D000CF93CDB7DEB760970FB6F894DEBF0FBEF1
:1002E000CDBF8F87688B8889882381F08F859AE0BE
:1002F000692FE2DC892F882F90E0FC01E05AFF4F44
:10030000908180916A00892B98D10CC08F859AE0EA
:10031000692FD2DC892F882F90E0FC01E05AFF4F33
:1003200080818BD18F859AE0692FC6DC882F90E081
:10033000FC01E459FF4F808180D180E090E0ACE87F
:10034000B2E48B879C87AD87BE876B857C858D8566
:100350009E8520E030E04AE755E49AD8DC01CB01E5
:100360008F839887A987BA876F81788589859A85D1
:1003700020E030E040E85FE37DDA88232CF481E080
:1003800090E09E838D833BC06F81788589859A85B7
:1003900020E03FEF4FE757E417DA18163CF56B857E
:1003A0007C858D859E8520E030E040E251E470D868
:1003B000DC01CB01BC01CD01A7D6DC01CB019E83C2
:1003C0008D830FC080E991E09C838B838B819C811E
:1003D0000197F1F79C838B838D819E8101979E838A
:1003E0008D838D819E81009769F713C06F81788519
:1003F00089859A8589D6DC01CB019E838D838D8189
:100400009E819A83898389819A810197F1F79A83E2
:10041000898360960FB6F894DEBF0FBECDBFCF9133
:10042000DF910895DF93CF93CDB7DEB72E970FB648
:10043000F894DEBF0FBECDBF80916B00FED08091DF
:100440007700FBD080E090E0ACE8B2E48B879C873B
:10045000AD87BE876B857C858D859E8520E030E0ED
:100460004AE755E415D8DC01CB018F839887A9872B
:10047000BA876F81788589859A8520E030E040E8E9
:100480005FE3F8D988232CF481E090E09E838D838C
:100490003BC06F81788589859A8520E03FEF4FE7E3
:1004A00057E492D918163CF56B857C858D859E8521
:1004B00020E030E040E251E4EBD7DC01CB01BC01AD
:1004C000CD0122D6DC01CB019E838D830FC080E954
:1004D00091E09C838B838B819C810197F1F79C83B6
:1004E0008B838D819E8101979E838D838D819E81DB
:1004F000009769F713C06F81788589859A8504D63E
:10050000DC01CB019E838D838D819E819A838983BB
:1005100089819A810197F1F79A8389832E960FB684
:10052000F894DEBF0FBECDBFCF91DF910895DF936A
:10053000CF93CDB7DEB72E970FB6F894DEBF0FBEC0
:10054000CDBF80916B0079D08091770076D080E02C
:1005500090E0ACE8B2E48B879C87AD87BE876B8563
:100560007C858D859E8520E030E04AE755E490D774
:10057000DC01CB018F839887A987BA876F81788543
:1005800089859A8520E030E040E85FE373D98823CD
:100590002CF481E090E09E838D833BC06F81788551
:1005A00089859A8520E03FEF4FE757E40DD918166B
:1005B0003CF56B857C858D859E8520E030E040E2B2
:1005C00051E466D7DC01CB01BC01CD019DD5DC0136
:1005D000CB019E838D830FC080E991E09C838B8348
:1005E0008B819C810197F1F79C838B838D819E8108
:1005F00001979E838D838D819E81009769F713C03B
:100600006F81788589859A857FD5DC01CB019E83B2
:100610008D838D819E819A83898389819A810197B7
:10062000F1F79A838983FEDE2E960FB6F894DEBF2B
:100630000FBECDBFCF91DF910895DF93CF9300D050
:100640000F92CDB7DEB78B83A8E3B0E0E8E3F0E02C
:1006500080818D7F8C93A8E3B0E0E8E3F0E08081B7
:100660008B7F8C9387E090E09A83898331C0FE0171
:1006700033968081882F90E0098002C095958795F8
:100680000A94E2F781709070882341F0A8E3B0E00B
:10069000E8E3F0E0808181608C9307C0A8E3B0E0DC
:1006A000E8E3F0E080818E7F8C93A8E3B0E0E8E39C
:1006B000F0E0808182608C93A8E3B0E0E8E3F0E0B2
:1006C00080818D7F8C9389819A8101979A83898318
:1006D00089819A8199235CF6A8E3B0E0E8E3F0E031
:1006E000808184608C930F900F900F90CF91DF9159
:1006F00008950F931F93DF93CF93CDB7DEB7C956FD
:10070000D0400FB6F894DEBF0FBECDBFFE01EB594F
:10071000FF4F91838083FE01E959FF4F718360830E
:10072000FE01E25AFF4F1082A7E3B0E0E7E3F0E0FA
:10073000808188608C93A8E3B0E0E8E3F0E08081FA
:1007400088608C93FE01E95AFF4F80E090E0A0E7BB
:10075000B1E480839183A283B3838E010D5A1F4F2E
:10076000FE01E95AFF4F608171818281938120E00F
:1007700030E04AE755E48CD6DC01CB01F8018083F8
:100780009183A283B383FE01ED5AFF4F6081718193
:100790008281938120E030E040E85FE36BD88823DA
:1007A00044F4FE01EF5AFF4F81E090E09183808393
:1007B00060C0FE01ED5AFF4F60817181828193819B
:1007C00020E03FEF4FE757E4FFD718160CF041C089
:1007D000FE01E95AFF4F608171818281938120E09F
:1007E00030E040E251E454D6DC01CB018E010F5AD7
:1007F0001F4FBC01CD0188D4DC01CB01F8019183EE
:1008000080831FC0FE01E15BFF4F80E991E091838F
:100810008083FE01E15BFF4F808191810197F1F7B9
:10082000FE01E15BFF4F91838083DE01AF5ABF4F32
:10083000FE01EF5AFF4F80819181019711969C93A1
:100840008E93FE01EF5AFF4F808191810097D1F680
:1008500026C08E010F5A1F4FFE01ED5AFF4F6081D7
:1008600071818281938150D4DC01CB01F8019183A5
:100870008083DE01A35BBF4FFE01EF5AFF4F8081F3
:1008800091818D939C93FE01E35BFF4F8081918169
:100890000197F1F7FE01E35BFF4F91838083A8E3AB
:1008A000B0E0E8E3F0E08081877F8C93FE01E75BB6
:1008B000FF4F80E090E0A0E4B0E480839183A283C6
:1008C000B3838E010B5B1F4FFE01E75BFF4F60811F
:1008D00071818281938120E030E04AE755E4D8D5E8
:1008E000DC01CB01F80180839183A283B383FE01F5
:1008F000EB5BFF4F608171818281938120E030E06A
:1009000040E85FE3B7D7882344F4FE01ED5BFF4F77
:1009100081E090E09183808360C0FE01EB5BFF4F3C
:10092000608171818281938120E03FEF4FE757E43E
:100930004BD718160CF041C0FE01E75BFF4F6081FA
:1009400071818281938120E030E040E251E4A0D5C2
:10095000DC01CB018E010D5B1F4FBC01CD01D4D357
:10096000DC01CB01F801918380831FC0FE01EF5BA6
:10097000FF4F80E991E091838083FE01EF5BFF4FA1
:10098000808191810197F1F7FE01EF5BFF4F918329
:100990008083DE01AD5BBF4FFE01ED5BFF4F8081C9
:1009A0009181019711969C938E93FE01ED5BFF4F11
:1009B000808191810097D1F623C08E010D5B1F4F7E
:1009C000FE01EB5BFF4F60817181828193819CD33B
:1009D000DC01CB01F80191838083FE01ED5BFF4FC9
:1009E00080819181FE01FF9691838083FE01FF96B5
:1009F000808191810197F1F7FE01FF9691838083B9
:100A0000E6E3F0E08081882F90E088709070009796
:100A100069F0FE01EB59FF4F0190F081E02D8BE56D
:100A20008083FFEFAA96FFAFAA971DC3A8E3B0E0AB
:100A3000E8E3F0E0808188608C9380E090E0A0EAB9
:100A4000B1E48BAF9CAFADAFBEAF6BAD7CAD8DAD48
:100A50009EAD2BEA3AEA4AEA50E41AD5DC01CB0112
:100A60008FAB98AFA9AFBAAF6FA978AD89AD9AAD8A
:100A700020E030E040E85FE3FDD688231CF481E00D
:100A80008EAB88C06FA978AD89AD9AAD20E030E01B
:100A90004FE753E499D618160CF074C06BAD7CADDB
:100AA0008DAD9EAD20E030E04AE754E4E6D5DC01B0
:100AB000CB018AAB9BABACABBDAB6AA97BA98CA9C4
:100AC0009DA920E030E04AE755E4E2D4DC01CB0107
:100AD0008EA79FA7A8ABB9AB6EA57FA588A999A93A
:100AE00020E030E040E85FE3C5D688232CF481E0C5
:100AF00090E09DA78CA73BC06EA57FA588A999A96A
:100B000020E03FEF4FE757E45FD618163CF56AA99F
:100B10007BA98CA99DA920E030E040E251E4B8D443
:100B2000DC01CB01BC01CD01EFD2DC01CB019DA7E3
:100B30008CA70FC080E991E09BA78AA78AA59BA5F7
:100B40000197F1F79BA78AA78CA59DA501979DA763
:100B50008CA78CA59DA5009769F722C06EA57FA5DF
:100B600088A999A9D1D2DC01CB019DA78CA78CA51E
:100B70009DA599A788A788A599A50197F1F799A799
:100B800088A70EC06FA978AD89AD9AADBDD2DC0142
:100B9000CB018EAB8EA98FA38FA18A95F1F78FA37E
:100BA000E6E3F0E08081882F90E0887090700097F5
:100BB00069F4FE01EB59FF4F0190F081E02D8CE5C7
:100BC00080834FEFAA964FAFAA974DC2A7E3B0E03C
:100BD000E7E3F0E08081877F8C93FE01E45AFF4FCA
:100BE00011821082FE01E25AFF4F10826DC1FE0198
:100BF000E55AFF4F1082FE01E15AFF4F108243C1B8
:100C0000FE01E45AFF4F1182108221C0DE01A45A76
:100C1000BF4FFE01E45AFF4F8081918101961196EA
:100C20009C938E93FE01E45AFF4F80819181893C11
:100C3000910568F0FE01EB59FF4F0190F081E02D26
:100C40008DE580835FEFAA965FAFAA970CC2E6E3BB
:100C5000F0E08081882F90E0887090700097B1F26A
:100C600080E090E0A0ECB0E48BA39CA3ADA3BEA376
:100C70006BA17CA18DA19EA12BEA3AEA4AEA50E43D
:100C800007D4DC01CB018F8F98A3A9A3BAA36F8DE2
:100C900078A189A19AA120E030E040E85FE3EAD59D
:100CA00088231CF481E08E8F88C06F8D78A189A184
:100CB0009AA120E030E04FE753E486D518160CF0F7
:100CC00074C06BA17CA18DA19EA120E030E04AE719
:100CD00054E4D3D4DC01CB018A8F9B8FAC8FBD8FC2
:100CE0006A8D7B8D8C8D9D8D20E030E04AE755E448
:100CF000CFD3DC01CB018E8B9F8BA88FB98F6E89F0
:100D00007F89888D998D20E030E040E85FE3B2D59F
:100D100088232CF481E090E09D8B8C8B3BC06E8906
:100D20007F89888D998D20E03FEF4FE757E44CD5C0
:100D300018163CF56A8D7B8D8C8D9D8D20E030E002
:100D400040E251E4A5D3DC01CB01BC01CD01DCD1F3
:100D5000DC01CB019D8B8C8B0FC080E991E09B8BDC
:100D60008A8B8A899B890197F1F79B8B8A8B8C8967
:100D70009D8901979D8B8C8B8C899D89009769F744
:100D800022C06E897F89888D998DBED1DC01CB010F
:100D90009D8B8C8B8C899D89998B888B888999896F
:100DA0000197F1F7998B888B0EC06F8D78A189A17F
:100DB0009AA1AAD1DC01CB018E8F8E8D8F878F8572
:100DC0008A95F1F78F87E6E3F0E08081882F90E045
:100DD000887090700097F1F0FE01E15AFF4F80811A
:100DE000282F30E087E090E0FC01E21BF30B9F012D
:100DF00081E090E0022E02C0880F991F0A94E2F76A
:100E0000982FFE01E55AFF4F8081892BFE01E55A9C
:100E1000FF4F8083FE01E45AFF4F1182108221C0F0
:100E2000DE01A45ABF4FFE01E45AFF4F8081918139
:100E3000019611969C938E93FE01E45AFF4F808198
:100E40009181893C910568F0FE01EB59FF4F0190BB
:100E5000F081E02D8EE58083FFEFAA96FFAFAA9781
:100E600002C1E6E3F0E08081882F90E08870907006
:100E70000097B1F6DE01A15ABF4FFE01E15AFF4FC4
:100E800080818F5F8C93FE01E15AFF4F8081883013
:100E900008F4B6CEFE01E25AFF4F8081282F30E0E1
:100EA000CE01805A9F4FDC01A20FB31FFE01E55A0D
:100EB000FF4F80818C93DE01A25ABF4FFE01E25AA0
:100EC000FF4F80818F5F8C93FE01E25AFF4F80813C
:100ED000853008F48CCEA7E3B0E0E7E3F0E0808152
:100EE00088608C93A8E3B0E0E8E3F0E0808188605C
:100EF0008C9380E090E0A0E7B1E48B879C87AD877E
:100F0000BE876B857C858D859E8520E030E04AE735
:100F100055E4BED2DC01CB018F839887A987BA87BD
:100F20006F81788589859A8520E030E040E85FE32D
:100F3000A1D488232CF481E090E09E838D833BC074
:100F40006F81788589859A8520E03FEF4FE757E4E8
:100F50003BD418163CF56B857C858D859E8520E0FD
:100F600030E040E251E494D2DC01CB01BC01CD0180
:100F7000CBD0DC01CB019E838D830FC080E991E053
:100F80009C838B838B819C810197F1F79C838B835E
:100F90008D819E8101979E838D838D819E81009797
:100FA00069F713C06F81788589859A85ADD0DC019A
:100FB000CB019E838D838D819E819A8389838981D4
:100FC0009A810197F1F79A838983FE01E05AFF4FD6
:100FD0009081FE01E05AFF4F8181980FFE01E05A97
:100FE000FF4F8281980FFE01E05AFF4F8381980FD7
:100FF000FE01E05AFF4F8481981789F5FE01E05AFF
:10100000FF4F82818823B9F0FE01E05AFF4F8281B1
:10101000FE01EB59FF4F0190F081E02D8083FE012E
:10102000E05AFF4F8081FE01E959FF4F0190F081A6
:10103000E02D808310C0FE01EB59FF4F0190F0813D
:10104000E02D81E68083FE01E959FF4F0190F08198
:10105000E02D82E68083AA961FAEAA9704C04FEFC8
:10106000AA964FAFAA97AA968FADAA97C759DF4FF6
:101070000FB6F894DEBF0FBECDBFCF91DF911F91A9
:101080000F910895DF93CF9300D00F92CDB7DEB7C5
:101090009B838A8319828A819B819E012F5F3F4FA8
:1010A000B90127DB0F900F900F90CF91DF9108953A
:1010B000DF93CF9300D00F92CDB7DEB79B838A83A7
:1010C00019822A813B81CE010196B90112DB0F9072
:1010D0000F900F90CF91DF910895DF93CF9300D0C1
:1010E00000D0CDB7DEB79A8389837C836B838981F7
:1010F0009A812B813C81B901FCDA0F900F900F90FF
:101100000F90CF91DF910895EF92FF920F931F936D
:101110007B018C0120E030E040E05FE480D3882355
:101120007CF0C801B70120E030E040E05FE45ED130
:10113000CCD39B01AC01205030404040504805C00A
:10114000C801B701C2D39B01AC01B901CA011F910B
:101150000F91FF90EF900895A0E0B0E0E1EBF8E090
:10116000B7C5DC012B01FA019C91923008F439C11A
:10117000EB018881823008F433C1943069F4843003
:1011800009F02FC111969C9111978981981709F444
:1011900028C1A8E7B0E025C1843009F421C182301C
:1011A000A9F4923009F01DC19A01AD0188E0EA016D
:1011B0000990AE01E90109929E018150C1F7E20157
:1011C000898111969C918923818308C1923009F409
:1011D00007C112962D903C901397EB018A819B8159
:1011E0001496AD90BD90CD90DC901797EC80FD806B
:1011F0000E811F819101281B390BB90137FF04C0F3
:1012000066277727621B730B603271050CF061C093
:10121000121613066CF537014801062E04C0969489
:101220008794779467940A94D2F721E030E040E005
:1012300050E004C0220F331F441F551F6A95D2F798
:1012400021503040404050402E213F214023512327
:10125000211531054105510521F021E030E040E044
:1012600050E079018A01E628F728082919293CC0AD
:10127000232BD1F1260E371E35014601062E04C060
:1012800096948794779467940A94D2F721E030E09B
:1012900040E050E004C0220F331F441F551F6A95E1
:1012A000D2F721503040404050402A213B214C2170
:1012B0005D21211531054105510521F021E030E086
:1012C00040E050E059016A01A628B728C828D9286B
:1012D0000BC0821593052CF01C01AA24BB246501C8
:1012E00003C0EE24FF24870111969C91D201119630
:1012F0008C91981709F445C0992339F0A8019701FA
:101300002A193B094C095D0906C0A60195012E1951
:101310003F09400B510B57FD08C0118233822282D6
:1013200024833583468357831DC081E081833382C4
:10133000228288279927DC01821B930BA40BB50B13
:1013400084839583A683B7830DC0220F331F441F68
:10135000551F248335834683578382819381019768
:10136000938382832481358146815781DA01C901C3
:101370000197A109B1098F5F9F4FAF4FBF4328F37A
:101380000BC0918333822282EA0CFB1C0C1D1D1DB5
:10139000E482F5820683178383E08083248135818C
:1013A0004681578157FF1AC0C901AA2797FDA0950A
:1013B000BA2F81709070A070B07056954795379590
:1013C0002795822B932BA42BB52B84839583A683FF
:1013D000B78382819381019693838283DF0101C069
:1013E000D201CD01CDB7DEB7E2E18EC4A0E2B0E01C
:1013F000EBEFF9E079C469837A838B839C832D8337
:101400003E834F835887E9E0EE2EF12CEC0EFD1E53
:10141000CE010196B7017FD38E010F5E1F4FCE0123
:101420000596B80178D38A8991E089278A8BC7010C
:10143000B801AE01475E5F4F8FDE98D2A096E6E01E
:101440006FC4A0E2B0E0E6E2FAE04EC469837A83BA
:101450008B839C832D833E834F835887F9E0EF2E47
:10146000F12CEC0EFD1ECE010196B70154D38E0176
:101470000F5E1F4FCE010596B8014DD3C701B801CD
:10148000AE01475E5F4F68DE71D2A096E6E048C4C9
:10149000A0E2B0E0EDE4FAE01BC469837A838B83B9
:1014A0009C832D833E834F835887CE010196BE01D6
:1014B000675F7F4F30D3CE010596BE016F5E7F4FD1
:1014C0002AD39985923088F089898230C8F0943087
:1014D00019F4823051F404C0843029F4923081F43C
:1014E00088E790E0C6C0923049F420E09A858A8966
:1014F000981321E02A87CE010996BBC0823049F4B7
:1015000020E09A858A89981321E02A8BCE014196A2
:10151000B0C02D843E844F8458886D887E888F8823
:10152000988CEE24FF248701AA24BB24650140E0A7
:1015300050E060E070E0E0E0F0E0C10181709070A8
:10154000892BE9F0E60CF71C081D191D9A01AB0167
:101550002A0D3B1D4C1D5D1D80E090E0A0E0B0E039
:10156000E614F7040805190520F481E090E0A0E0F6
:10157000B0E0BA01A901480F591F6A1F7B1FAA0CCE
:10158000BB1CCC1CDD1C97FE08C081E090E0A0E0F5
:10159000B0E0A82AB92ACA2ADB2A3196E032F1053E
:1015A00049F0660C771C881C991C56944794379414
:1015B0002794C3CFFA85EA892B893C898B859C8542
:1015C000280F391F2E5F3F4F17C0CA0181709070DE
:1015D000892B61F016950795F794E79480E090E0E9
:1015E000A0E0B0E8E82AF92A0A2B1B2B769567952C
:1015F000579547952F5F3F4F77FDE7CF0CC0440FBE
:10160000551F661F771F17FD4160EE0CFF1C001F62
:10161000111F21503040403090E0590790E0690799
:1016200090E4790760F32B8F3C8FDB01CA018F7741
:101630009070A070B07080349105A105B10561F47F
:1016400047FD0AC0E114F1040105110529F0405CD1
:101650005F4F6F4F7F4F40781A8EFE1711F081E079
:101660008A8F4D8F5E8F6F8F78A383E0898FCE0135
:1016700049967CD1A096E2E147C3A8E1B0E0E2E45C
:10168000FBE02EC369837A838B839C832D833E8307
:101690004F835887B9E0EB2EF12CEC0EFD1ECE01E6
:1016A0000196B70138D28E010F5E1F4FCE0105960D
:1016B000B80131D22985223008F47EC03989323010
:1016C00010F4B8017CC08A859A8989278A872430DA
:1016D00011F0223031F4231709F06EC068E770E092
:1016E0006EC0343039F41D861E861F86188A1C860B
:1016F0001B8604C0323021F484E08987B7015FC0C3
:101700002B853C858B899C89281B390B3C872B8733
:10171000ED84FE840F851889AD88BE88CF88D88C6B
:10172000EA14FB040C051D0540F4EE0CFF1C001F21
:10173000111F215030403C872B8720E030E040E0F3
:1017400050E080E090E0A0E0B0E460E070E0EA14F7
:10175000FB040C051D0540F0282B392B4A2B5B2B75
:10176000EA18FB080C091D09B695A795979587956A
:10177000EE0CFF1C001F111F6F5F7F4F6F31710553
:1017800031F7DA01C9018F779070A070B0708034A2
:101790009105A105B10561F427FD0AC0E114F1042A
:1017A0000105110529F0205C3F4F4F4F5F4F207816
:1017B0002D873E874F87588BBE01675F7F4FCB01D8
:1017C000D5D06896EAE0A8C2A8E1B0E0E9EEFBE077
:1017D0008BC269837A838B839C832D833E834F8363
:1017E000588789E0E82EF12CEC0EFD1ECE01019603
:1017F000B70191D18E010F5E1F4FCE010596B80142
:101800008AD18985823038F08989823020F0C701F9
:10181000B801F9D101C08FEF6896E6E081C2A8E176
:10182000B0E0E4E1FCE060C269837A838B839C834F
:101830002D833E834F83588789E0E82EF12CEC0EF0
:10184000FD1ECE010196B70166D18E010F5E1F4FBE
:10185000CE010596B8015FD18985823038F089893B
:10186000823020F0C701B801CED101C08FEF689659
:10187000E6E056C2A8E1B0E0EFE3FCE035C26983E0
:101880007A838B839C832D833E834F83588789E0A3
:10189000E82EF12CEC0EFD1ECE010196B7013BD1D6
:1018A0008E010F5E1F4FCE010596B80134D1898598
:1018B000823038F08989823020F0C701B801A3D185
:1018C00001C081E06896E6E02BC2ACE0B0E0EAE659
:1018D000FCE00EC269837A838B839C83CE010196E0
:1018E000BE016B5F7F4F17D18D81823061F18230F5
:1018F00050F1843021F48E81882351F12EC02F8144
:10190000388537FD20C06E812F3131051CF06623EC
:10191000F9F023C08EE190E0821B930B29853A8574
:101920004B855C8504C056954795379527958A95D4
:10193000D2F76623B1F050954095309521953F4FF1
:101940004F4F5F4F0EC020E030E040E050E009C054
:101950002FEF3FEF4FEF5FE704C020E030E040E0C3
:1019600050E8B901CA012C96E2E0DEC1DF92EF92A5
:10197000FF920F931F93FC01E480F580068117818D
:10198000D1808081823048F480E090E0A0E1B0E036
:10199000E82AF92A0A2B1B2BA5C0843009F49FC022
:1019A000823021F4EE24FF24870105C0E114F10404
:1019B0000105110519F4E0E0F0E096C06281738141
:1019C0009FEF623879070CF05BC022E83FEF261BDF
:1019D000370B2A3131052CF020E030E040E050E0B8
:1019E0002AC0B801A701022E04C0769567955795C5
:1019F00047950A94D2F781E090E0A0E0B0E004C0FF
:101A0000880F991FAA1FBB1F2A95D2F70197A1091A
:101A1000B1098E219F21A023B1230097A105B10513
:101A200021F081E090E0A0E0B0E09A01AB01282B2A
:101A3000392B4A2B5B2BDA01C9018F779070A0708C
:101A4000B07080349105A105B10539F427FF09C0B4
:101A5000205C3F4F4F4F5F4F04C0215C3F4F4F4FC3
:101A60005F4FE0E0F0E02030A0E03A07A0E04A0756
:101A7000A0E45A0710F0E1E0F0E079018A0127C004
:101A80006038710564F5FB01E158FF4FD801C701CB
:101A90008F779070A070B07080349105A105B1056A
:101AA00039F4E7FE0DC080E490E0A0E0B0E004C0AF
:101AB0008FE390E0A0E0B0E0E80EF91E0A1F1B1FC4
:101AC00017FF05C016950795F794E794319687E0C0
:101AD00016950795F794E7948A95D1F705C0EE24FB
:101AE000FF248701EFEFF0E06E2F6795662767957B
:101AF000902F9F77D794DD24D7948E2F8695492FEA
:101B0000462B582F5D29B701CA011F910F91FF90F5
:101B1000EF90DF900895FC01DB014081518122812B
:101B2000622F6F7770E0221F2227221F9381892F57
:101B3000880F822B282F30E0991F9927991F119623
:101B40009C93119721153105A9F5411551056105A2
:101B5000710511F482E037C082E89FEF13969C93E1
:101B60008E9312979A01AB0167E0220F331F441F37
:101B7000551F6A95D1F783E08C930DC0220F331F58
:101B8000441F551F12968D919C91139701971396A0
:101B90009C938E931297203080E0380780E04807AE
:101BA00080E4580758F314962D933D934D935C931E
:101BB000179708952F3F310579F4411551056105B7
:101BC000710519F484E08C93089564FF03C081E0EB
:101BD0008C9312C01C9210C02F57304013963C9328
:101BE0002E93129783E08C9387E0440F551F661F56
:101BF000771F8A95D1F7706414964D935D936D931A
:101C00007C93179708951F93DC01FB019C91923000
:101C100008F447C08081823008F443C0943051F406
:101C200011961C91843099F58181682F70E0611BB9
:101C300071093FC0843021F0923031F48230B9F123
:101C40008181882389F12DC011961C9111978230D2
:101C5000F1F081811817D9F412962D913C911397C8
:101C6000828193818217930794F028173907BCF07B
:101C700014968D919D910D90BC91A02D248135815C
:101C800046815781281739074A075B0718F4112343
:101C900041F00AC082179307A407B50740F4112347
:101CA00019F061E070E005C06FEF7FEF02C060E007
:101CB00070E0CB011F910895991B79E004C0991F32
:101CC000961708F0961B881F7A95C9F78095089596
:101CD0002F923F924F925F926F927F928F929F923C
:101CE000AF92BF92CF92DF92EF92FF920F931F932A
:101CF000CF93DF93CDB7DEB7CA1BDB0B0FB6F894DB
:101D0000DEBF0FBECDBF09942A88398848885F841A
:101D10006E847D848C849B84AA84B984C884DF808B
:101D2000EE80FD800C811B81AA81B981CE0FD11D6F
:101D30000FB6F894DEBF0FBECDBFED010895E19957
:101D4000FECF1FBA8EBBE09A99278DB30895262F38
:101D5000E199FECF1CBA1FBA8EBB2DBB0FB6F8940B
:0E1D6000E29AE19A0FBE01960895F894FFCF23
:101D6E007E06BCAEC6EADA26FEE60100FA907CDC00
:101D7E0096CEE698FE9E01000000000000000000D6
:00000001FF
