:1000000009C021C08FC11FC01EC01DC01CC01BC0A5
:100010001AC019C011241FBECFE9CDBF10E0A0E661
:10002000B0E0ECEDF3E002C005900D92A837B10707
:10003000D9F710E0A8E7B0E001C01D92AD37B107D5
:10004000E1F70AD0C9C1DCCF17BABA9AB99AB89AFF
:10005000BC98BB9818BA0895F7DF8BB780628BBF46
:10006000AC9A789485B7877E806185BF85B78062BA
:1000700085BF889585B78F7DF8CFDF93CF930F929B
:10008000CDB7DEB78983C198C29827E030E0FE0182
:100090003196808190E0022E02C0959587950A9452
:1000A000E2F780FF02C0C09A01C0C098C19AC1980F
:1000B000215030408FEF2F3F380759F7C29A0F90E9
:1000C000CF91DF9108951F93CF93DF9310E0C0EF9E
:1000D000D0E0812F6AE067D1E92FF0E0E05AFF4FCE
:1000E0008081CBDF812F6AE05ED1E82FF0E0E45918
:1000F000FF4F8081C2DF8EEE92E0FE013197F1F773
:100100000197D9F71F5F143621F7DF91CF911F9127
:100110000895EF92FF920F931F93DF93CF9300D038
:1001200000D00F92CDB7DEB7DC01BB9AC39A80EA4C
:100130009CE80197F1F7C39880E29CE10197F1F701
:10014000B39B02C08BE532C0C39A80E48A95F1F775
:10015000B39902C08CE52AC0BB98FE01319653E1E9
:1001600081E0E82EF12C8E010A5F1F4F2DC0019611
:10017000893C910521F48DE519C080E090E0B39BA6
:10018000F6CF852F8A95F1F7B39B08C0C701022EE1
:1001900002C0880F991F0A94E2F7482B80E090E094
:1001A00007C00196893C910519F48EE58C9320C017
:1001B000B399F7CF215030408FEF2F3F3807E9F642
:1001C0004193E017F10721F040E027E030E0D5CF80
:1001D000BB9AC39A80EA9CE80197F1F739812B8199
:1001E0008A81830F820F9C81890F9D81891711F06D
:1001F0008FEF0CC0222321F02C93FB01308305C02C
:1002000081E68C9382E6FB01808380E00F900F9063
:100210000F900F900F90CF91DF911F910F91FF9052
:10022000EF900895DF93CF9300D0CDB7DEB719825A
:100230001A82CE010196BE016E5F7F4F6ADF9981FF
:100240008F3F09F442C0892F6AE0B9D0E92FFF2718
:10025000E7FDF095E05AFF4F808190916A00892B6D
:100260000CDF89816AE0ABD0E82FFF27E7FDF0952E
:10027000E459FF4F808101DF84EA96E020EF30E00F
:10028000F9013197F1F70197D9F78A816AE097D0A0
:10029000E92FFF27E7FDF095E05AFF4F8081EDDE63
:1002A0008A816AE08CD0E82FFF27E7FDF095E459BA
:1002B000FF4F8081E2DE84EA96E020EF30E0F90132
:1002C0003197F1F70197D9F719C0892F6AE077D0F4
:1002D000E92FFF27E7FDF095E05AFF4F80819091CD
:1002E0006A00892BCADE89816AE069D0E82FFF277E
:1002F000E7FDF095E459FF4F8081BFDE80916B00F0
:10030000BCDE80917700B9DE84EA96E020EF30E031
:10031000F9013197F1F70197D9F70F900F90CF912D
:10032000DF9108951F920F920FB60F9211242F9311
:100330003F934F935F936F937F938F939F93AF936D
:10034000BF93EF93FF936EDFFF91EF91BF91AF915A
:100350009F918F917F916F915F914F913F912F91DD
:100360000F900FBE0F901F901895DF93CF930F92B1
:10037000CDB7DEB71982BE016F5F7F4FCADE0F9027
:10038000CF91DF910895DF93CF930F92CDB7DEB772
:10039000BC011982CE010196BCDE0F90CF91DF9196
:1003A0000895B7DE0895991B79E004C0991F961748
:1003B00008F0961B881F7A95C9F78095089587FBEA
:1003C000082E062687FD819567FD6195ECDF0EF40A
:0C03D000919507FC81950895F894FFCFEB
:1003DC007E06BCAEC6EADA26FEE60100FA907CDCAC
:0803EC0096CEE698FE9E01008A
:00000001FF
