:1000000009C00EC042C00CC00BC00AC009C008C065
:1000100007C006C011241FBECFE9CDBF09D06AC0FA
:10002000EFCF17BAB89AB99ABA98BB9A18BA089586
:10003000F8DF8BB780628BBFAC9A789485B7877EE8
:10004000806185BF85B7806285BF889585B78F7DC4
:10005000F8CFFC01C198C09827E030E040E086B3BB
:1000600090E084709070022E02C0880F991F0A944D
:10007000E2F7482BC19AC198215030408FEF2F3FB3
:10008000380769F7C09A408308951F920F920FB600
:100090000F9211242F933F934F935F936F937F930E
:1000A0008F939F93AF93BF93EF93FF93DF93CF9380
:1000B0000F92CDB7DEB7CE010196CBDF89819927AC
:1000C00087FD909585FDC39A84FDC3980F90CF91CD
:1000D000DF91FF91EF91BF91AF919F918F917F91B0
:1000E0006F915F914F913F912F910F900FBE0F90A5
:0800F0001F901895F894FFCF52
:00000001FF
