:1000000009C021C020C01FC01EC01DC01CC01BC015
:100010001AC019C011241FBECFE9CDBF11E0A0E660
:10002000B0E0E6E2F4E102C005900D92AC36B10713
:10003000D9F711E0ACE6B1E001C01D92A837B107D5
:10004000E1F71ED0EEC9DCCFDF93CF93CDB7DEB79B
:10005000A7E3B0E0E7E3F0E080818F7E8C93A7E335
:10006000B0E0E7E3F0E0808188608C93A7E3B0E044
:10007000E7E3F0E0808181608C93CF91DF91089578
:10008000DF93CF93CDB7DEB760970FB6F894DEBF9E
:100090000FBECDBFD9DF809174018F5F8093740153
:1000A00080916F01843018F480E095D106C0809172
:1000B0006F01843011F481E08ED1809174018093BE
:1000C00072019091720180917101292F281B822F5A
:1000D0008093730180917301893008F44FC080913F
:1000E0006F01882391F11092740180916E01882331
:1000F00019F480916F0116D280916F01282F30E0A2
:10010000388B2F878F8598898230910589F02F85CC
:1001100038892330310599F08F8598898130910590
:10012000A1F481E080936C018091600099D00DC0B2
:1001300081E080936C018091610092D006C081E0E3
:1001400080936C01809162008BD080917001882334
:10015000A9F01092740180916E01882319F48091A6
:100160006F01E0D180917001DDD1809170018093A9
:1001700060001092700181E080936F0180916D01A9
:10018000882309F088CF80E090E0A8EBB2E48B8769
:100190009C87AD87BE876B857C858D859E8520E09D
:1001A00030E046E155E4D5D4DC01CB018F8398875C
:1001B000A987BA876F81788589859A8520E030E0A4
:1001C00040E85FE311D688232CF481E090E09E8321
:1001D0008D833BC06F81788589859A8520E03FEFCC
:1001E0004FE757E4ABD518163CF56B857C858D85BC
:1001F0009E8520E030E040E251E4ABD4DC01CB014D
:10020000BC01CD01E2D2DC01CB019E838D830FC006
:1002100080EF90E09C838B838B819C810197F1F729
:100220009C838B838D819E8101979E838D838D819D
:100230009E81009769F72FCF6F81788589859A8590
:10024000C4D2DC01CB019E838D838D819E819A83F4
:10025000898389819A810197F1F79A8389831BCFDA
:10026000DF93CF93CDB7DEB72F970FB6F894DEBFED
:100270000FBECDBF8F8781E080936D011092770113
:10028000109276011092750198C0809177018F5F6E
:100290008093770180917701882F90E08170907032
:1002A000009729F4809176018F5F80937601809189
:1002B00076018C3369F4809175018F5F80937501AD
:1002C0001092770180916F012DD181E080937601AA
:1002D00080916C01813019F48F8553D202C0109245
:1002E0006D0180E090E0A9EBB3E48B879C87AD873C
:1002F000BE876B857C858D859E8520E030E046E15C
:1003000055E427D4DC01CB018F839887A987BA876E
:100310006F81788589859A8520E030E040E85FE349
:1003200063D588232CF481E090E09E838D833BC0CD
:100330006F81788589859A8520E03FEF4FE757E404
:10034000FDD418163CF56B857C858D859E8520E057
:1003500030E040E251E4FDD3DC01CB01BC01CD0132
:1003600034D2DC01CB019E838D830FC080EF90E0FF
:100370009C838B838B819C810197F1F79C838B837A
:100380008D819E8101979E838D838D819E810097B3
:1003900069F713C06F81788589859A8516D2DC014B
:1003A000CB019E838D838D819E819A8389838981F0
:1003B0009A810197F1F79A83898380916D0188234F
:1003C00009F063CF2F960FB6F894DEBF0FBECDBFF6
:1003D000CF91DF910895DF93CF93CDB7DEB76297CA
:1003E0000FB6F894DEBF0FBECDBF888BE6E3F0E01A
:1003F000808180718F878F85882309F08AC080E093
:1004000090E0A9EBB3E48B879C87AD87BE876B85B3
:100410007C858D859E8520E030E046E155E499D3CA
:10042000DC01CB018F839887A987BA876F81788594
:1004300089859A8520E030E040E85FE3D5D48823C1
:100440002CF481E090E09E838D833BC06F817885A2
:1004500089859A8520E03FEF4FE757E46FD418165F
:100460003CF56B857C858D859E8520E030E040E203
:1004700051E46FD3DC01CB01BC01CD01A6D1DC017D
:10048000CB019E838D830FC080EF90E09C838B8394
:100490008B819C810197F1F79C838B838D819E8159
:1004A00001979E838D838D819E81009769F713C08C
:1004B0006F81788589859A8588D1DC01CB019E83FF
:1004C0008D838D819E819A83898389819A81019709
:1004D000F1F79A8389838889282F30E03A8B298B1A
:1004E00089899A89009731F029893A892130310523
:1004F00039F00BC080916F018F5F80936F0105C051
:10050000809170018F5F809370018091740180935E
:10051000710162960FB6F894DEBF0FBECDBFCF91CA
:10052000DF910895DF93CF93CDB7DEB760970FB615
:10053000F894DEBF0FBECDBF888B1F8677C0A8E3BF
:10054000B0E0E8E3F0E0908181E089278C9380E0DF
:1005500090E0A6EFB2E48B879C87AD87BE876B8562
:100560007C858D859E8520E030E046E155E4F1D222
:10057000DC01CB018F839887A987BA876F81788543
:1005800089859A8520E030E040E85FE32DD4882318
:100590002CF481E090E09E838D833BC06F81788551
:1005A00089859A8520E03FEF4FE757E4C7D31816B7
:1005B0003CF56B857C858D859E8520E030E040E2B2
:1005C00051E4C7D2DC01CB01BC01CD01FED0DC017E
:1005D000CB019E838D830FC080EF90E09C838B8343
:1005E0008B819C810197F1F79C838B838D819E8108
:1005F00001979E838D838D819E81009769F713C03B
:100600006F81788589859A85E0D0DC01CB019E8356
:100610008D838D819E819A83898389819A810197B7
:10062000F1F79A8389838F858F5F8F879F8588896C
:10063000981708F484CF81E080936E0160960FB61E
:10064000F894DEBF0FBECDBFCF91DF910895DF9349
:10065000CF93CDB7DEB761970FB6F894DEBF0FBE6C
:10066000CDBF898B88EC888B1F867DC0A8E3B0E066
:10067000E8E3F0E0908188E089278C938889882FCF
:1006800090E0A0E0B0E0BC01CD012AD4DC01CB01B8
:100690008B879C87AD87BE876B857C858D859E8586
:1006A00020E030E046E155E454D2DC01CB018F83F9
:1006B0009887A987BA876F81788589859A8520E090
:1006C00030E040E85FE390D388232CF481E090E0B1
:1006D0009E838D833BC06F81788589859A8520E0D4
:1006E0003FEF4FE757E42AD318163CF56B857C851E
:1006F0008D859E8520E030E040E251E42AD2DC0185
:10070000CB01BC01CD0161D0DC01CB019E838D8387
:100710000FC080EF90E09C838B838B819C8101973D
:10072000F1F79C838B838D819E8101979E838D83BE
:100730008D819E81009769F713C06F8178858985C7
:100740009A8543D0DC01CB019E838D838D819E8170
:100750009A83898389819A810197F1F79A838983A2
:100760008F858F5F8F879F858989981708F47ECF43
:1007700061960FB6F894DEBF0FBECDBFCF91DF916B
:100780000895DF93CF930F92CDB7DEB78983909111
:10079000750189818917A9F483E059DF10926C01F2
:1007A000A8E3B0E0E8E3F0E080818E7F8C931092C4
:1007B0006F01809174018093710110926D0110920C
:1007C0006E010F90CF91DF910895EF92FF920F93FA
:1007D0001F937B018C0120E030E040E05FE4D9D240
:1007E00088237CF0C801B70120E030E040E05FE4FE
:1007F0005ED125D39B01AC01205030404040504891
:1008000005C0C801B7011BD39B01AC01B901CA01E6
:100810001F910F91FF90EF900895A0E0B0E0E2E10A
:10082000F4E0C8C5DC012B01FA019C91923008F478
:1008300039C1EB018881823008F433C1943069F406
:10084000843009F02FC111969C91119789819817D6
:1008500009F428C1A3E6B0E025C1843009F421C120
:100860008230A9F4923009F01DC19A01AD0188E0EF
:10087000EA010990AE01E90109929E018150C1F798
:10088000E201898111969C918923818308C192306C
:1008900009F407C112962D903C901397EB018A81C1
:1008A0009B811496AD90BD90CD90DC901797EC8015
:1008B000FD800E811F819101281B390BB90137FF83
:1008C00004C066277727621B730B603271050CF03A
:1008D00061C0121613066CF537014801062E04C0DC
:1008E00096948794779467940A94D2F721E030E045
:1008F00040E050E004C0220F331F441F551F6A958B
:10090000D2F721503040404050402E213F2140231B
:100910005123211531054105510521F021E030E039
:1009200040E050E079018A01E628F72808291929D2
:100930003CC0232BD1F1260E371E35014601062E71
:1009400004C096948794779467940A94D2F721E030
:1009500030E040E050E004C0220F331F441F551F19
:100960006A95D2F721503040404050402A213B2127
:100970004C215D21211531054105510521F021E072
:1009800030E040E050E059016A01A628B728C828A5
:10099000D9280BC0821593052CF01C01AA24BB2476
:1009A000650103C0EE24FF24870111969C91D201BA
:1009B00011968C91981709F445C0992339F0A80134
:1009C00097012A193B094C095D0906C0A60195014A
:1009D0002E193F09400B510B57FD08C0118233827D
:1009E000228224833583468357831DC081E081831F
:1009F0003382228288279927DC01821B930BA40B68
:100A0000B50B84839583A683B7830DC0220F331F54
:100A1000441F551F248335834683578382819381E6
:100A20000197938382832481358146815781DA013E
:100A3000C9010197A109B1098F5F9F4FAF4FBF4314
:100A400028F30BC0918333822282EA0CFB1C0C1D1D
:100A50001D1DE482F5820683178383E08083248151
:100A600035814681578157FF1AC0C901AA2797FDD2
:100A7000A095BA2F81709070A070B0705695479570
:100A800037952795822B932BA42BB52B84839583A5
:100A9000A683B78382819381019693838283DF014A
:100AA00001C0D201CD01CDB7DEB7E2E19FC4A0E223
:100AB000B0E0ECE5F5E08AC469837A838B839C839C
:100AC0002D833E834F835887E9E0EE2EF12CEC0E08
:100AD000FD1ECE010196B7019CD38E010F5E1F4F04
:100AE000CE010596B80195D38A8991E089278A8B32
:100AF000C701B801AE01475E5F4F8FDEB5D2A09649
:100B0000E6E080C4A0E2B0E0E7E8F5E05FC4698316
:100B10007A838B839C832D833E834F835887F9E0B0
:100B2000EF2EF12CEC0EFD1ECE010196B70171D314
:100B30008E010F5E1F4FCE010596B8016AD3C70123
:100B4000B801AE01475E5F4F68DE8ED2A096E6E048
:100B500059C4A0E2B0E0EEEAF5E02CC469837A83E0
:100B60008B839C832D833E834F835887CE010196D0
:100B7000BE01675F7F4F4DD3CE010596BE016F5E0C
:100B80007F4F47D39985923088F089898230C8F0A9
:100B9000943019F4823051F404C0843029F4923036
:100BA00081F483E690E0C6C0923049F420E09A8553
:100BB0008A89981321E02A87CE010996BBC082302A
:100BC00049F420E09A858A89981321E02A8BCE0186
:100BD0004196B0C02D843E844F8458886D887E88AD
:100BE0008F88988CEE24FF248701AA24BB246501FA
:100BF00040E050E060E070E0E0E0F0E0C1018170D2
:100C00009070892BE9F0E60CF71C081D191D9A015C
:100C1000AB012A0D3B1D4C1D5D1D80E090E0A0E066
:100C2000B0E0E614F7040805190520F481E090E02F
:100C3000A0E0B0E0BA01A901480F591F6A1F7B1F4D
:100C4000AA0CBB1CCC1CDD1C97FE08C081E090E008
:100C5000A0E0B0E0A82AB92ACA2ADB2A3196E032FD
:100C6000F10549F0660C771C881C991C5694479432
:100C700037942794C3CFFA85EA892B893C898B85E1
:100C80009C85280F391F2E5F3F4F17C0CA01817006
:100C90009070892B61F016950795F794E79480E0A2
:100CA00090E0A0E0B0E8E82AF92A0A2B1B2B769501
:100CB0006795579547952F5F3F4F77FDE7CF0CC05E
:100CC000440F551F661F771F17FD4160EE0CFF1C78
:100CD000001F111F21503040403090E0590790E034
:100CE000690790E4790760F32B8F3C8FDB01CA0121
:100CF0008F779070A070B07080349105A105B10518
:100D000061F447FD0AC0E114F1040105110529F061
:100D1000405C5F4F6F4F7F4F40781A8EFE1711F087
:100D200081E08A8F4D8F5E8F6F8F78A383E0898FEC
:100D3000CE01499699D1A096E2E158C3A8E1B0E06E
:100D4000E3EAF6E043C369837A838B839C832D8334
:100D50003E834F83588789E0E82EF12CEC0EFD1E70
:100D6000CE010196B70155D28E010F5E1F4FCE0105
:100D70000596B8014ED28985823038F08989823053
:100D800020F0C701B801BDD201C08FEF6896E6E040
:100D900039C3A8E1B0E0EEECF6E018C369837A83CA
:100DA0008B839C832D833E834F83588789E0E82E75
:100DB000F12CEC0EFD1ECE010196B7012AD28E0158
:100DC0000F5E1F4FCE010596B80123D28985823070
:100DD00038F08989823020F0C701B80192D201C071
:100DE0008FEF6896E6E00EC3A8E1B0E0E9EFF6E029
:100DF000EDC269837A838B839C832D833E834F83EB
:100E0000588789E0E82EF12CEC0EFD1ECE010196EC
:100E1000B701FFD18E010F5E1F4FCE010596B801BD
:100E2000F8D18985823038F08989823020F0C70175
:100E3000B80167D201C081E06896E6E0E3C2ACE0A9
:100E4000B0E0E4E2F7E0C6C269837A838B839C83D7
:100E5000CE010196BE016B5F7F4FDBD18D81823069
:100E600061F1823050F1843021F48E81882351F178
:100E70002EC02F81388537FD20C06E812F3131057E
:100E80001CF06623F9F023C08EE190E0821B930BE7
:100E900029853A854B855C8504C0569547953795DD
:100EA00027958A95D2F76623B1F0509540953095F5
:100EB00021953F4F4F4F5F4F0EC020E030E040E0A4
:100EC00050E009C02FEF3FEF4FEF5FE704C020E095
:100ED00030E040E050E8B901CA012C96E2E096C249
:100EE000A8E0B0E0E5E7F7E06DC27B018C01611599
:100EF00071058105910519F482E089835FC083E063
:100F000089838EE1C82ED12CDC82CB82ED82FE82D9
:100F10000F831887C801B70158D0FC013197F7FF3C
:100F20003BC0222733272E1B3F0B57016801022E9F
:100F300004C0D694C794B794A7940A94D2F740E01B
:100F400050E060E070E081E090E0A0E0B0E004C03C
:100F5000880F991FAA1FBB1F2A95D2F70197A109D5
:100F6000B1098E219F21A023B1230097A105B105CE
:100F700021F041E050E060E070E04A295B296C29F3
:100F80007D294D835E836F8378878EE190E08E1B91
:100F90009F0B9C838B8312C0309781F00E2E04C070
:100FA000EE0CFF1C001F111F0A94D2F7ED82FE8287
:100FB0000F831887CE1ADF0ADC82CB821A82CE0119
:100FC000019652D02896EAE019C2EF92FF920F9351
:100FD0001F937B018C0180E0E81680E0F80681E039
:100FE000080780E0180788F48FEFE816F104010580
:100FF000110531F028F088E090E0A0E0B0E017C0E3
:1010000080E090E0A0E0B0E012C080E0E81680E070
:10101000F80680E0080781E0180728F088E190E0F2
:10102000A0E0B0E004C080E190E0A0E0B0E020E209
:1010300030E040E050E0281B390B4A0B5B0B04C04A
:1010400016950795F794E7948A95D2F7F701E55935
:10105000FF4F8081281B310941095109C9011F91A6
:101060000F91FF90EF900895DF92EF92FF920F9310
:101070001F93FC01E480F58006811781D180808177
:10108000823048F480E090E0A0E1B0E0E82AF92A5C
:101090000A2B1B2BA5C0843009F49FC0823021F499
:1010A000EE24FF24870105C0E114F10401051105B8
:1010B00019F4E0E0F0E096C0628173819FEF62383E
:1010C00079070CF05BC022E83FEF261B370B2A3173
:1010D00031052CF020E030E040E050E02AC0B801BB
:1010E000A701022E04C076956795579547950A94F7
:1010F000D2F781E090E0A0E0B0E004C0880F991F33
:10110000AA1FBB1F2A95D2F70197A109B1098E2109
:101110009F21A023B1230097A105B10521F081E013
:1011200090E0A0E0B0E09A01AB01282B392B4A2BCC
:101130005B2BDA01C9018F779070A070B07080349A
:101140009105A105B10539F427FF09C0205C3F4F87
:101150004F4F5F4F04C0215C3F4F4F4F5F4FE0E068
:10116000F0E02030A0E03A07A0E04A07A0E45A07E8
:1011700010F0E1E0F0E079018A0127C060387105E4
:1011800064F5FB01E158FF4FD801C7018F779070DC
:10119000A070B07080349105A105B10539F4E7FE67
:1011A0000DC080E490E0A0E0B0E004C08FE390E0E8
:1011B000A0E0B0E0E80EF91E0A1F1B1F17FF05C0D4
:1011C00016950795F794E794319687E0169507955D
:1011D000F794E7948A95D1F705C0EE24FF248701A0
:1011E000EFEFF0E06E2F679566276795902F9F775A
:1011F000D794DD24D7948E2F8695492F462B582FD0
:101200005D29B701CA011F910F91FF90EF90DF9008
:101210000895FC01DB01408151812281622F6F77AB
:1012200070E0221F2227221F9381892F880F822B93
:10123000282F30E0991F9927991F11969C93119799
:1012400021153105A9F5411551056105710511F407
:1012500082E037C082E89FEF13969C938E9312979B
:101260009A01AB0167E0220F331F441F551F6A9597
:10127000D1F783E08C930DC0220F331F441F551FFD
:1012800012968D919C911397019713969C938E9330
:101290001297203080E0380780E0480780E4580744
:1012A00058F314962D933D934D935C93179708959F
:1012B0002F3F310579F4411551056105710519F488
:1012C00084E08C93089564FF03C081E08C9312C086
:1012D0001C9210C02F57304013963C932E931297B8
:1012E00083E08C9387E0440F551F661F771F8A9514
:1012F000D1F7706414964D935D936D937C9317971B
:1013000008951F93DC01FB019C91923008F447C0C3
:101310008081823008F443C0943051F411961C91BE
:10132000843099F58181682F70E0611B71093FC09D
:10133000843021F0923031F48230B9F181818823F8
:1013400089F12DC011961C9111978230F1F08181A5
:101350001817D9F412962D913C911397828193819D
:101360008217930794F028173907BCF014968D91D3
:101370009D910D90BC91A02D24813581468157818E
:10138000281739074A075B0718F4112341F00AC0F0
:1013900082179307A407B50740F4112319F061E001
:1013A00070E005C06FEF7FEF02C060E070E0CB013E
:1013B0001F9108952F923F924F925F926F927F926A
:1013C0008F929F92AF92BF92CF92DF92EF92FF9255
:1013D0000F931F93CF93DF93CDB7DEB7CA1BDB0B01
:1013E0000FB6F894DEBF0FBECDBF09942A883988A6
:1013F00048885F846E847D848C849B84AA84B984AD
:10140000C884DF80EE80FD800C811B81AA81B981B8
:10141000CE0FD11D0FB6F894DEBF0FBECDBFED01CC
:061420000895F894FFCFCF
:1014260003050F0000000000000000000102020397
:101436000303030404040404040404050505050564
:101446000505050505050505050505060606060641
:101456000606060606060606060606060606060626
:101466000606060606060606060606070707070711
:1014760007070707070707070707070707070707F6
:1014860007070707070707070707070707070707E6
:1014960007070707070707070707070707070707D6
:1014A60007070707070707070707070808080808C1
:1014B60008080808080808080808080808080808A6
:1014C6000808080808080808080808080808080896
:1014D6000808080808080808080808080808080886
:1014E6000808080808080808080808080808080876
:1014F6000808080808080808080808080808080866
:101506000808080808080808080808080808080855
:101516000808080808080808080808080808080845
:0C15260008080808080808080808080061
:040000050080016D09
:00000001FF
