:1000000009C00EC00DC00CC00BC00AC009C008C09A
:1000100008C006C011241FBECFE9CDBF26D054C0F2
:10002000EFCF1F920F920FB60F9211248F939F93D1
:10003000AF93BF93EF93FF93DF93CF93CDB7DEB72B
:10004000A8E3B0E0E8E3F0E0908181E089278C93B9
:10005000CF91DF91FF91EF91BF91AF919F918F91E0
:100060000F900FBE0F901F901895DF93CF93CDB7D1
:10007000DEB7E7E3F0E081E08083A1E4B0E0E1E413
:10008000F0E0808180628C93A1E4B0E0E1E4F0E0F4
:10009000808180648C937894A5E5B0E0E5E5F0E09C
:1000A0008081877E80618C93A5E5B0E0E5E5F0E096
:1000B000808180628C938895A5E5B0E0E5E5F0E06D
:0C00C00080818F7D8C93F0CFF894FFCFEF
:00000001FF
