:1000000009C021C0AAC11FC01EC01DC01CC01BC08A
:10001000A4C019C011241FBECFE9CDBF10E0A0E6D7
:10002000B0E0E2EDF3E002C005900D92A836B10712
:10003000D9F710E0A8E6B0E001C01D92A437B107DF
:10004000E1F712D0C4C1DCCFBC98BB9AB89A08952E
:100050008BB780628BBFAC9A81B5816281BD81B55F
:10006000806481BD78940895EFDFF2DF85B7877EE5
:10007000806185BF85B7806285BF889585B78F7D94
:10008000F8CF282F30E0220F331F40E051E060EF1F
:1000900070E00BC088B3852788BB8CE291E0FB0140
:1000A0003197F1F70197D9F74F5F842F90E08217CE
:1000B000930784F3C0980895282F30E0220F331F50
:1000C00040E051E060EF70E00BC088B3852788BB4B
:1000D00088E592E0FB013197F1F70197D9F74F5F7F
:1000E000842F90E08217930784F3C0980895282FF7
:1000F00030E0220F331F40E051E060EF70E00BC0B2
:1001000088B3852788BB80EB94E0FB013197F1F73A
:100110000197D9F74F5F842F90E08217930784F3FC
:10012000C0980895282F30E0220F331F40E058E098
:1001300060EF70E00BC088B3852788BB8CE291E04C
:10014000FB013197F1F70197D9F74F5F842F90E0CA
:100150008217930784F3C39808951F920F920FB6E6
:100160000F9211242F933F934F935F936F937F933D
:100170008F939F93AF93BF93EF93FF9380916D0005
:100180008F5F80936D00883038F0809166008F5FBC
:100190008093660010926D00309166003C3300F150
:1001A000809165008F5F80936500209172002F5FC2
:1001B0002093720063E0FFD0992319F43E5F3093DF
:1001C0006600273039F4809166008B5F809366006B
:1001D00010927200809166006CE3EDD090936600FF
:1001E00080916500883111F4109265008091700053
:1001F0008130F1F480916E008F5F80936E008830C3
:1002000038F010926E0080916F008F5F80936F00C6
:1002100090916F0080917100981751F4F89483E0E9
:1002200081DF83E02EDF78941092700010926F00CF
:10023000FF91EF91BF91AF919F918F917F916F91BE
:100240005F914F913F912F910F900FBE0F901F9094
:1002500018950F931F931091650000916600812FF0
:1002600065E0A9D029DF812F65E0A5D0892F09DFBE
:1002700088E592E020EF30E0F9013197F1F701973E
:10028000D9F7802F6AE097D08F5FFBDE1F910F9127
:10029000089510926C001092690081E0F2DE809166
:1002A00068003091690090916C009F5FA0EFB0E012
:1002B00060EA7CE8592F531B593010F440E009C024
:1002C000282F811121E0422F593118F0882309F499
:1002D00042E0B4990AC02CE231E0FD013197F1F718
:1002E00021503040D1F78F5F392FFB013197F1F763
:1002F000292F2F5F442311F4922FDCCF80936800C5
:1003000050936B003093690090936A0090936C0057
:10031000413011F5B6DE88E592E020EF30E0F901DA
:100320003197F1F70197D9F7E0916800E13011F4C6
:1003300090DF10C081E080937000E73028F4F0E097
:10034000E25AFF4F808102C080916000809371006B
:1003500010926F001092680008951F920F920FB6CE
:100360000F9211242F933F934F935F936F937F933B
:100370008F939F93AF93BF93EF93FF9380917300FD
:100380008F5F8093730080FD05C010927300F89416
:1003900080DF7894FF91EF91BF91AF919F918F9102
:1003A0007F916F915F914F913F912F910F900FBE71
:1003B0000F901F901895991B79E004C0991F96170C
:1003C00008F0961B881F7A95C9F780950895F894D0
:0203D000FFCF5D
:0803D20003080F1E3C12090094
:00000001FF
