:1000000009C00EC00EC00CC00BC00AC009C008C099
:1000100007C006C011241FBECFE9CDBF4DD0F9C027
:10002000EFCF1F920F920FB60F9211242F933F9391
:100030004F935F936F937F938F939F93AF93BF93F0
:10004000EF93FF93DF93CF930F92CDB7DEB7CE013F
:10005000019687D08981992787FD9095807290704D
:10006000009739F0A8E3B0E0E8E3F0E08081886031
:100070008C938981992787FD909580719070009766
:1000800039F0A8E3B0E0E8E3F0E08081877F8C936B
:100090000F90CF91DF91FF91EF91BF91AF919F9121
:1000A0008F917F916F915F914F913F912F910F9021
:1000B0000FBE0F901F901895DF93CF93CDB7DEB78B
:1000C00027D0ABE5B0E0EBE5F0E0808180628C9377
:1000D000A5E3B0E0E5E3F0E0808180618C93789463
:1000E000A5E5B0E0E5E5F0E08081877E80618C9356
:1000F000A5E5B0E0E5E5F0E0808180628C9388952D
:10010000A5E5B0E0E5E5F0E080818F7D8C93F0CF50
:10011000DF93CF93CDB7DEB7E7E3F0E01082A7E33C
:10012000B0E0E7E3F0E0808181608C93A7E3B0E08A
:10013000E7E3F0E0808182608C93A7E3B0E0E7E33F
:10014000F0E080818B7F8C93A7E3B0E0E7E3F0E001
:10015000808188608C93E8E3F0E01082CF91DF919A
:100160000895DF93CF9300D000D00F92CDB7DEB7C4
:100170009D838C831982A8E3B0E0E8E3F0E08081FE
:100180008D7F8C93A8E3B0E0E8E3F0E080818E7F80
:100190008C9387E090E09B838A8324C0E6E3F0E0C1
:1001A0008081882F90E0847090700A8002C0880F50
:1001B000991F0A94E2F7982F8981892B8983A8E3F4
:1001C000B0E0E8E3F0E0808182608C93A8E3B0E0E7
:1001D000E8E3F0E080818D7F8C938A819B81019799
:1001E0009B838A838A819B819923C4F6A8E3B0E02C
:1001F000E8E3F0E0808181608C93EC81FD8189816E
:1002000080830F900F900F900F900F90CF91DF9100
:060210000895F894FFCFF1
:00000001FF
