:100000000C9434000C943E000C943E000C943E0082
:100010000C943E000C943E000C943E000C943E0068
:100020000C943E000C943E000C943E000C943E0058
:100030000C943E000C943E000C943E000C943E0048
:100040000C943E000C943E000C943E000C943E0038
:100050000C943E000C943E000C943E000C943E0028
:100060000C943E000C943E0011241FBECFEFD8E04C
:10007000DEBFCDBF0E9440000C9451000C940000E4
:10008000509A41E020E931E08BB184278BB986E7B3
:1000900092E0F9013197F1F70197D9F7F5CF509A2E
:0600A0000895F894FFCF63
:00000001FF
