:1000000009C021C069C11FC01EC01DC01CC01BC0CB
:10001000A1C019C011241FBECFE9CDBF10E0A0E6DA
:10002000B0E0E6E5F3E002C005900D92A636B10718
:10003000D9F710E0A6E6B0E001C01D92A037B107E5
:10004000E1F70FD086C1DCCFBC98BB9AB89A08956F
:100050008BB780628BBFAC9A81B5816281BD789489
:100060000895F2DFF5DF85B7877E806185BF85B7AC
:10007000806285BF889585B78F7DF8CF282F30E0C7
:10008000220F331F40E051E060EF70E00BC088B3F7
:10009000852788BB8CE291E0FB013197F1F701974E
:1000A000D9F74F5F842F90E08217930784F3C098AD
:1000B0000895282F30E0220F331F40E051E060EF19
:1000C00070E00BC088B3852788BB88E592E0FB0110
:1000D0003197F1F70197D9F74F5F842F90E082179E
:1000E000930784F3C0980895282F30E0220F331F20
:1000F00040E051E060EF70E00BC088B3852788BB1B
:1001000080EB94E0FB013197F1F70197D9F74F5F4E
:10011000842F90E08217930784F3C0980895282FC6
:1001200030E0220F331F40E058E060EF70E00BC07A
:1001300088B3852788BB8CE291E0FB013197F1F70A
:100140000197D9F74F5F842F90E08217930784F3CC
:10015000C39808951F920F920FB60F9211242F93F8
:100160003F934F935F936F937F938F939F93AF933F
:10017000BF93EF93FF9380916B008F5F80936B0031
:10018000883040F120916C002F5F20936C0010921A
:100190006B0080916D008130E9F4253010F4822FDE
:1001A0000FC0243178F4822F65E0C7D0992391F4F1
:1001B000822FC3D07EDF80916C0065E0BED0892F96
:1001C0005DDF08C0822F6AE0B8D0992319F4822F2E
:1001D000B4D08ADF80916D00813069F490916C0019
:1001E00080916E00981739F483E099DF10926D00CA
:1001F00081B58F7B81BDFF91EF91BF91AF919F91B1
:100200008F917F916F915F914F913F912F910F90BF
:100210000FBE0F901F9018951F93CF93DF93182F49
:100220008BB78F7D8BBF10926A001092670081E0C0
:1002300025DF309166005091670020916A002F5FA2
:10024000C0EFD0E0A0EABCE8622F651B693010F473
:1002500040E009C0832F311181E0482F693118F047
:10026000332309F442E0B4990BC08CE291E0FE0123
:100270003197F1F70197D9F7112309F43F5F522F16
:10028000CD010197F1F7822F8F5F442311F4282FBE
:10029000DBCF309366006093690050936700209332
:1002A000680020936A008BB780628BBF413081F475
:1002B00040936D00E32FF0E0E15AFF4F808180937F
:1002C0006E00832FDBDE1092660081B5806481BDF5
:1002D000DF91CF911F9108951F920F920FB60F9249
:1002E00011242F933F934F935F936F937F938F933B
:1002F0009F93AF93BF93EF93FF9380916F008F5FB6
:1003000080936F0010926B0010926C0080FD04C00F
:1003100010926F0080E080DFFF91EF91BF91AF916D
:100320009F918F917F916F915F914F913F912F910D
:100330000F900FBE0F901F901895991B79E004C085
:10034000991F961708F0961B881F7A95C9F7809514
:060350000895F894FFCFB0
:0603560003050F1E3C0030
:00000001FF
