:100000000C9434000C94CA130C9451000C945100BD
:100010000C9451000C9451000C9451000C9451001C
:100020000C9451000C9451000C9451000C9451000C
:100030000C9451000C9451000C9451000C945100FC
:100040000C9451000C9451000C9481140C945100A8
:100050000C9451000C9451000C9451000C945100DC
:100060000C9451000C94510011241FBECFEFD8E026
:10007000DEBFCDBF11E0A8E0B1E001C01D92AF30FE
:10008000B107E1F711E0A0E0B1E0EEE9F6E302C06C
:1000900005900D92A830B107D9F70E9431130C9446
:1000A0004D1B0C940000DF93CF93CDB7DEB7E1E694
:1000B000F0E080E88083E1E6F0E01082CF91DF910C
:1000C0000895DF93CF9300D000D0CDB7DEB7AAE27A
:1000D000B0E0EAE2F0E0808182608C9380E895E213
:1000E0009C838B838B819C81CC01A0E0B0E0880F46
:1000F000991FAA1FBB1F880F991FAA1FBB1F880F1C
:10010000991FAA1FBB1F880F991FAA1FBB1F9C0105
:10011000AD0180E092E1AAE7B0E0BC01CD010E9410
:10012000F41ADA01C90101979A838983E5ECF0E0BA
:1001300089819A81892F99278083E4ECF0E0898175
:100140008083E1ECF0E088E18083E2ECF0E08EE097
:1001500080830F900F900F900F90CF91DF910895B3
:10016000DF93CF930F92CDB7DEB78983E0ECF0E059
:100170008081882F90E0807290700097B9F3E6EC50
:10018000F0E0898180830F90CF91DF910895DF9314
:10019000CF93CDB7DEB7E0ECF0E080818823DCF7C9
:1001A000E6ECF0E08081CF91DF910895DF93CF936B
:1001B000CDB7DEB7A4E2B0E0E4E2F0E080818E6289
:1001C0008C93ACE4B0E0ECE4F0E0808180658C934B
:1001D000A5E2B0E0E5E2F0E0808184608C93A5E2E6
:1001E000B0E0E5E2F0E080818D7F8C93CF91DF91EC
:1001F0000895DF93CF930F92CDB7DEB78983EEE4F6
:10020000F0E089818083EDE4F0E080818823DCF7F1
:10021000EEE4F0E080810F90CF91DF910895DF93BD
:10022000CF93CDB7DEB7A4E2B0E0E4E2F0E08081A6
:1002300081608C93CF91DF910895DF93CF93CDB7F9
:10024000DEB7AAE2B0E0EAE2F0E080818B7F8C9337
:10025000A9E6B0E0E9E6F0E0808182608C93A9E64F
:10026000B0E0E9E6F0E080818E7F8C93ADE3B0E012
:10027000EDE3F0E0808181608C93CF91DF91089570
:10028000DF93CF93CDB7DEB7A1ECB0E0E1ECF0E0C7
:10029000808180688C93CF91DF9108950F931F9395
:1002A000DF93CF93CDB7DEB7C156D0400FB6F894E9
:1002B000DEBF0FBECDBFFE01EF59FF4F8083FE01B1
:1002C000E35AFF4F80E090E0A0E2B1E480839183A5
:1002D000A283B3838E01075A1F4FFE01E35AFF4FDB
:1002E00060817181828193812BEA3AEA4AE250E48B
:1002F0000E94C416DC01CB01F80180839183A283A4
:10030000B383FE01E75AFF4F60817181828193813F
:1003100020E030E040E85FE30E94CA18882334F40C
:10032000FE01E85AFF4F81E08083E0C0FE01E75AFA
:10033000FF4F608171818281938120E030E04FE73F
:1003400053E40E946A1818160CF0C0C0FE01E35A6C
:10035000FF4F608171818281938120E030E04AE724
:1003600054E40E94BE17DC01CB01FE01EC5AFF4FA2
:1003700080839183A283B3838E01005B1F4FFE01B4
:10038000EC5AFF4F608171818281938120E030E0DF
:100390004AEF54E40E94C416DC01CB01F8018083CB
:1003A0009183A283B383FE01E05BFF4F6081718183
:1003B0008281938120E030E040E85FE30E94CA1828
:1003C000882344F4FE01E25BFF4F81E090E09183DB
:1003D000808364C0FE01E05BFF4F60817181828198
:1003E000938120E03FEF4FE757E40E946A18181608
:1003F0000CF043C0FE01EC5AFF4F60817181828195
:10040000938120E030E040E251E40E94C416DC0118
:10041000CB018E01025B1F4FBC01CD010E94EE1487
:10042000DC01CB01F801918380831FC0FE01E45BF6
:10043000FF4F88EC90E091838083FE01E45BFF4FE7
:10044000808191810197F1F7FE01E45BFF4F918379
:100450008083DE01A25BBF4FFE01E25BFF4F808124
:100460009181019711969C938E93FE01E25BFF4F61
:10047000808191810097D1F64BC08E01025B1F4FA6
:10048000FE01E05BFF4F60817181828193810E9458
:10049000EE14DC01CB01F80191838083DE01A65BC1
:1004A000BF4FFE01E25BFF4F8081918111969C93CB
:1004B0008E93FE01E65BFF4F808191810197F1F7FA
:1004C000FE01E65BFF4F9183808322C08E01085AB4
:1004D0001F4FFE01E75AFF4F608171818281938136
:1004E0000E94EE14DC01CB01F8018083DE01A75BE2
:1004F000BF4FFE01E85AFF4F80818C93FE01E75BFE
:10050000FF4F80818A95F1F7FE01E75BFF4F808303
:10051000A5E2B0E0E5E2F0E080818B7F8C93FE0104
:10052000EB5BFF4F80E090E0A0E2B1E48083918339
:10053000A283B3838E010F5B1F4FFE01EB5BFF4F66
:1005400060817181828193812BEA3AEA4AE250E428
:100550000E94C416DC01CB01F80180839183A28341
:10056000B383FE01EF5BFF4F6081718182819381D4
:1005700020E030E040E85FE30E94CA18882334F4AA
:1005800081E0FE01E05CFF4F80839DC0FE01EF5BD8
:10059000FF4F608171818281938120E030E04FE7DD
:1005A00053E40E946A1818160CF07EC0FE01EB5B43
:1005B000FF4F608171818281938120E030E04AE7C2
:1005C00054E40E94BE17DC01CB018CAF9DAFAEAFEF
:1005D000BFAF6CAD7DAD8EAD9FAD20E030E04AEF9A
:1005E00054E40E94C416DC01CB0188AF99AFAAAFD6
:1005F000BBAF68AD79AD8AAD9BAD20E030E040E89F
:100600005FE30E94CA1888232CF481E090E09FAB3E
:100610008EAB3FC068AD79AD8AAD9BAD20E03FEFBA
:100620004FE757E40E946A1818164CF56CAD7DAD83
:100630008EAD9FAD20E030E040E251E40E94C41650
:10064000DC01CB01BC01CD010E94EE14DC01CB0129
:100650009FAB8EAB0FC088EC90E09DAB8CAB8CA9B0
:100660009DA90197F1F79DAB8CAB8EA99FA901972E
:100670009FAB8EAB8EA99FA9009769F72DC068AD7F
:1006800079AD8AAD9BAD0E94EE14DC01CB019FAB2E
:100690008EAB8EA99FA99BAB8AAB8AA99BA9019718
:1006A000F1F79BAB8AAB18C0FE01EF5BFF4F608197
:1006B0007181828193810E94EE14DC01CB01FE01E5
:1006C000E05CFF4F8083FE01E05CFF4F808189ABDF
:1006D00089A98A95F1F789ABFE01EF59FF4F808117
:1006E0000E94F90080E090E0A0E2B1E48DA79EA70F
:1006F000AFA7B8AB6DA57EA58FA598A92BEA3AEA5E
:100700004AE250E40E94C416DC01CB0189A79AA7F3
:10071000ABA7BCA769A57AA58BA59CA520E030E076
:1007200040E85FE30E94CA1888231CF481E088A790
:1007300091C069A57AA58BA59CA520E030E04FE784
:1007400053E40E946A1818160CF07BC06DA57EA5B4
:100750008FA598A920E030E04AE754E40E94BE1734
:10076000DC01CB018CA39DA3AEA3BFA36CA17DA193
:100770008EA19FA120E030E04AEF54E40E94C4160D
:10078000DC01CB0188A399A3AAA3BBA368A179A18B
:100790008AA19BA120E030E040E85FE30E94CA18F4
:1007A00088232CF481E090E09F8F8E8F3FC068A15A
:1007B00079A18AA19BA120E03FEF4FE757E40E9477
:1007C0006A1818164CF56CA17DA18EA19FA120E09E
:1007D00030E040E251E40E94C416DC01CB01BC01D0
:1007E000CD010E94EE14DC01CB019F8F8E8F0FC0D4
:1007F00088EC90E09D8F8C8F8C8D9D8D0197F1F70B
:100800009D8F8C8F8E8D9F8D01979F8F8E8F8E8D5C
:100810009F8D009769F724C068A179A18AA19BA147
:100820000E94EE14DC01CB019F8F8E8F8E8D9F8DE9
:100830009B8F8A8F8A8D9B8D0197F1F79B8F8A8F73
:100840000FC069A57AA58BA59CA50E94EE14DC01BA
:10085000CB0188A788A5898F898D8A95F1F7898F23
:100860008FEF0E94F900FE01EF59FF4F808380E077
:1008700090E0A0E2B1E48D8B9E8BAF8BB88F6D8939
:100880007E898F89988D2BEA3AEA4AE250E40E94E9
:10089000C416DC01CB01898B9A8BAB8BBC8B69892D
:1008A0007A898B899C8920E030E040E85FE30E94F0
:1008B000CA1888231CF481E0888B91C069897A89E1
:1008C0008B899C8920E030E04FE753E40E946A184E
:1008D00018160CF07BC06D897E898F89988D20E079
:1008E00030E04AE754E40E94BE17DC01CB018C875C
:1008F0009D87AE87BF876C857D858E859F8520E02F
:1009000030E04AEF54E40E94C416DC01CB01888732
:100910009987AA87BB87688579858A859B8520E02A
:1009200030E040E85FE30E94CA1888232CF481E09D
:1009300090E09F838E833FC0688579858A859B85FB
:1009400020E03FEF4FE757E40E946A1818164CF575
:100950006C857D858E859F8520E030E040E251E406
:100960000E94C416DC01CB01BC01CD010E94EE1433
:10097000DC01CB019F838E830FC088EC90E09D83C8
:100980008C838C819D810197F1F79D838C838E816F
:100990009F8101979F838E838E819F81009769F746
:1009A00024C0688579858A859B850E94EE14DC01C8
:1009B000CB019F838E838E819F819B838A838A81D3
:1009C0009B810197F1F79B838A830FC069897A899C
:1009D0008B899C890E94EE14DC01CB01888B88896D
:1009E000898389818A95F1F78983A5E2B0E0E5E200
:1009F000F0E0808184608C93FE01EF59FF4F80818D
:100A0000CF59DF4F0FB6F894DEBF0FBECDBFCF91E9
:100A1000DF911F910F9108950F931F93DF93CF9351
:100A2000CDB7DEB7CF57D0400FB6F894DEBF0FBEBC
:100A3000CDBFFE01E558FF4F8083FE01E458FF4F14
:100A40006083FE01E358FF4F51834083FE01E1586C
:100A5000FF4F2083F894FE01E558FF4F80818735D2
:100A600049F4DE01A458BF4FFE01E458FF4F8081D6
:100A7000805E8C93FE01EB58FF4F80E090E0A0E297
:100A8000B1E480839183A283B3838E010F581F4FFB
:100A9000FE01EB58FF4F60817181828193812BEAC7
:100AA0003AEA4AE250E40E94C416DC01CB01F801A4
:100AB00080839183A283B383FE01EF58FF4F60814F
:100AC00071818281938120E030E040E85FE30E9401
:100AD000CA18882334F4FE01E059FF4F81E0808377
:100AE000E0C0FE01EF58FF4F6081718182819381E8
:100AF00020E030E04FE753E40E946A1818160CF02B
:100B0000C0C0FE01EB58FF4F6081718182819381EB
:100B100020E030E04AE754E40E94BE17DC01CB013C
:100B2000FE01E459FF4F80839183A283B3838E013A
:100B300008591F4FFE01E459FF4F60817181828186
:100B4000938120E030E04AEF54E40E94C416DC01B7
:100B5000CB01F80180839183A283B383FE01E8591E
:100B6000FF4F608171818281938120E030E040E815
:100B70005FE30E94CA18882344F4FE01EA59FF4F3C
:100B800081E090E09183808364C0FE01E859FF4FCB
:100B9000608171818281938120E03FEF4FE757E4CC
:100BA0000E946A1818160CF043C0FE01E459FF4F6A
:100BB000608171818281938120E030E040E251E4E4
:100BC0000E94C416DC01CB018E010A591F4FBC01E3
:100BD000CD010E94EE14DC01CB01F80191838083EA
:100BE0001FC0FE01EC59FF4F88EC90E09183808399
:100BF000FE01EC59FF4F808191810197F1F7FE01D1
:100C0000EC59FF4F91838083DE01AA59BF4FFE014B
:100C1000EA59FF4F80819181019711969C938E93A1
:100C2000FE01EA59FF4F808191810097D1F64BC0B8
:100C30008E010A591F4FFE01E859FF4F60817181F3
:100C4000828193810E94EE14DC01CB01F801918333
:100C50008083DE01AE59BF4FFE01EA59FF4F80810C
:100C6000918111969C938E93FE01EE59FF4F8081E6
:100C700091810197F1F7FE01EE59FF4F9183808337
:100C800022C08E0100591F4FFE01EF58FF4F6081B7
:100C90007181828193810E94EE14DC01CB01F80105
:100CA0008083DE01AF59BF4FFE01E059FF4F8081C5
:100CB0008C93FE01EF59FF4F80818A95F1F7FE0179
:100CC000EF59FF4F8083A5E2B0E0E5E2F0E08081DC
:100CD0008B7F8C93FE01E35AFF4F80E090E0A0E20F
:100CE000B1E480839183A283B3838E01075A1F4F9F
:100CF000FE01E35AFF4F60817181828193812BEA6B
:100D00003AEA4AE250E40E94C416DC01CB01F80141
:100D100080839183A283B383FE01E75AFF4F6081F2
:100D200071818281938120E030E040E85FE30E949E
:100D3000CA18882334F4FE01E85AFF4F81E080830B
:100D4000E0C0FE01E75AFF4F60817181828193818B
:100D500020E030E04FE753E40E946A1818160CF0C8
:100D6000C0C0FE01E35AFF4F60817181828193818F
:100D700020E030E04AE754E40E94BE17DC01CB01DA
:100D8000FE01EC5AFF4F80839183A283B3838E01CF
:100D9000005B1F4FFE01EC5AFF4F60817181828121
:100DA000938120E030E04AEF54E40E94C416DC0155
:100DB000CB01F80180839183A283B383FE01E05BC2
:100DC000FF4F608171818281938120E030E040E8B3
:100DD0005FE30E94CA18882344F4FE01E25BFF4FE0
:100DE00081E090E09183808364C0FE01E05BFF4F6F
:100DF000608171818281938120E03FEF4FE757E46A
:100E00000E946A1818160CF043C0FE01EC5AFF4FFE
:100E1000608171818281938120E030E040E251E481
:100E20000E94C416DC01CB018E01025B1F4FBC0186
:100E3000CD010E94EE14DC01CB01F8019183808387
:100E40001FC0FE01E45BFF4F88EC90E0918380833C
:100E5000FE01E45BFF4F808191810197F1F7FE0174
:100E6000E45BFF4F91838083DE01A25BBF4FFE01F5
:100E7000E25BFF4F80819181019711969C938E9345
:100E8000FE01E25BFF4F808191810097D1F64BC05C
:100E90008E01025B1F4FFE01E05BFF4F608171819D
:100EA000828193810E94EE14DC01CB01F8019183D1
:100EB0008083DE01A65BBF4FFE01E25BFF4F8081B6
:100EC000918111969C938E93FE01E65BFF4F80818A
:100ED00091810197F1F7FE01E65BFF4F91838083DB
:100EE00022C08E01085A1F4FFE01E75AFF4F608152
:100EF0007181828193810E94EE14DC01CB01F801A3
:100F00008083DE01A75BBF4FFE01E85AFF4F80815F
:100F10008C93FE01E75BFF4F80818A95F1F7FE011C
:100F2000E75BFF4F8083FE01E458FF4F80810E9402
:100F3000F900FE01EB5BFF4F80E090E0A0E2B1E43E
:100F400080839183A283B3838E010F5B1F4FFE01C9
:100F5000EB5BFF4F60817181828193812BEA3AEADA
:100F60004AE250E40E94C416DC01CB01F801808300
:100F70009183A283B383FE01EF5BFF4F6081718198
:100F80008281938120E030E040E85FE30E94CA184C
:100F9000882334F481E0FE01E05CFF4F80839DC034
:100FA000FE01EF5BFF4F608171818281938120E0C0
:100FB00030E04FE753E40E946A1818160CF07EC028
:100FC000FE01EB5BFF4F608171818281938120E0A4
:100FD00030E04AE754E40E94BE17DC01CB018CAF3D
:100FE0009DAFAEAFBFAF6CAD7DAD8EAD9FAD20E020
:100FF00030E04AEF54E40E94C416DC01CB0188AF14
:1010000099AFAAAFBBAF68AD79AD8AAD9BAD20E01B
:1010100030E040E85FE30E94CA1888232CF481E0A6
:1010200090E09FAB8EAB3FC068AD79AD8AAD9BAD14
:1010300020E03FEF4FE757E40E946A1818164CF57E
:101040006CAD7DAD8EAD9FAD20E030E040E251E46F
:101050000E94C416DC01CB01BC01CD010E94EE143C
:10106000DC01CB019FAB8EAB0FC088EC90E09DAB59
:101070008CAB8CA99DA90197F1F79DAB8CAB8EA988
:101080009FA901979FAB8EAB8EA99FA9009769F787
:101090002DC068AD79AD8AAD9BAD0E94EE14DC0128
:1010A000CB019FAB8EAB8EA99FA99BAB8AAB8AA9C4
:1010B0009BA90197F1F79BAB8AAB18C0FE01EF5BD0
:1010C000FF4F60817181828193810E94EE14DC0167
:1010D000CB01FE01E05CFF4F8083FE01E05CFF4F2F
:1010E000808189AB89A98A95F1F789ABFE01E75820
:1010F000FF4F11821082B3C1FE01E558FF4F80817E
:10110000823509F0D2C0FE01E458FF4F8081803A59
:1011100009F4CBC0FE01E758FF4F008111818FEF2A
:101120000E94F900F801E85FFE4F808380E090E0C4
:10113000A0E2B1E48DA79EA7AFA7B8AB6DA57EA531
:101140008FA598A92BEA3AEA4AE250E40E94C41615
:10115000DC01CB0189A79AA7ABA7BCA769A57AA593
:101160008BA59CA520E030E040E85FE30E94CA1810
:1011700088231CF481E088A791C069A57AA58BA576
:101180009CA520E030E04FE753E40E946A1818164F
:101190000CF07BC06DA57EA58FA598A920E030E05E
:1011A0004AE754E40E94BE17DC01CB018CA39DA347
:1011B000AEA3BFA36CA17DA18EA19FA120E030E0D2
:1011C0004AEF54E40E94C416DC01CB0188A399A322
:1011D000AAA3BBA368A179A18AA19BA120E030E0CA
:1011E00040E85FE30E94CA1888232CF481E090E075
:1011F0009F8F8E8F3FC068A179A18AA19BA120E01B
:101200003FEF4FE757E40E946A1818164CF56CA19F
:101210007DA18EA19FA120E030E040E251E40E9438
:10122000C416DC01CB01BC01CD010E94EE14DC012F
:10123000CB019F8F8E8F0FC088EC90E09D8F8C8F9D
:101240008C8D9D8D0197F1F79D8F8C8F8E8D9F8D4D
:1012500001979F8F8E8F8E8D9F8D009769F7F3C0BA
:1012600068A179A18AA19BA10E94EE14DC01CB01A7
:101270009F8F8E8F8E8D9F8D9B8F8A8F8A8D9B8D5A
:101280000197F1F79B8F8A8FDEC069A57AA58BA5A0
:101290009CA50E94EE14DC01CB0188A788A5898F4C
:1012A000898D8A95F1F7898FCEC0FE01E758FF4FEF
:1012B00020813181FE01E358FF4F80819181FC0143
:1012C000E20FF31F80810E94F90080E090E0A0E22D
:1012D000B1E48D8B9E8BAF8BB88F6D897E898F89A2
:1012E000988D2BEA3AEA4AE250E40E94C416DC01E7
:1012F000CB01898B9A8BAB8BBC8B69897A898B8963
:101300009C8920E030E040E85FE30E94CA1888230F
:101310001CF481E0888B91C069897A898B899C89CA
:1013200020E030E04FE753E40E946A1818160CF0F2
:101330007BC06D897E898F89988D20E030E04AE7F7
:1013400054E40E94BE17DC01CB018C879D87AE87D9
:10135000BF876C857D858E859F8520E030E04AEFD4
:1013600054E40E94C416DC01CB0188879987AA87C0
:10137000BB87688579858A859B8520E030E040E8D9
:101380005FE30E94CA1888232CF481E090E09F83D9
:101390008E833FC0688579858A859B8520E03FEFF5
:1013A0004FE757E40E946A1818164CF56C857D8546
:1013B0008E859F8520E030E040E251E40E94C41613
:1013C000DC01CB01BC01CD010E94EE14DC01CB019C
:1013D0009F838E830FC088EC90E09D838C838C81EB
:1013E0009D810197F1F79D838C838E819F81019769
:1013F0009F838E838E819F81009769F724C06885C3
:1014000079858A859B850E94EE14DC01CB019F8340
:101410008E838E819F819B838A838A819B810197A2
:10142000F1F79B838A830FC069897A898B899C89AC
:101430000E94EE14DC01CB01888B88898983898125
:101440008A95F1F78983DE01A758BF4FFE01E7585F
:10145000FF4F80819181019611969C938E93FE019E
:10146000E158FF4F8081282F30E0FE01E758FF4F01
:1014700080819181821793070CF43ECEA5E2B0E003
:10148000E5E2F0E0808184608C93789488E091E0DC
:10149000C158DF4F0FB6F894DEBF0FBECDBFCF915E
:1014A000DF911F910F910895DF93CF93CDB7DEB7F2
:1014B000A3970FB6F894DEBF0FBECDBF80E090E0DB
:1014C000A8ECB2E4898F9A8FAB8FBC8F698D7A8D2F
:1014D0008B8D9C8D20E030E04AEF54E40E94C416CE
:1014E000DC01CB018D8B9E8BAF8BB88F6D897E8994
:1014F0008F89988D20E030E040E85FE30E94CA18B1
:1015000088232CF481E090E09C8B8B8B3FC06D890D
:101510007E898F89988D20E03FEF4FE757E40E9446
:101520006A1818164CF5698D7A8D8B8D9C8D20E08C
:1015300030E040E251E40E94C416DC01CB01BC0162
:10154000CD010E94EE14DC01CB019C8B8B8B0FC074
:1015500088EC90E09A8B898B89899A890197F1F7B9
:101560009A8B898B8B899C8901979C8B8B8B8B8920
:101570009C89009769F714C06D897E898F89988D41
:101580000E94EE14DC01CB019C8B8B8B8B899C8998
:10159000988B8F878F8598890197F1F7988B8F8724
:1015A00081E08F8F9E01215E3F4F87E561E0A901B9
:1015B00021E00E940C058FE28F8F9E01215E3F4F3C
:1015C00087E564E0A90121E00E940C0581E08F8F8E
:1015D0009E01215E3F4F87E562E0A90121E00E9464
:1015E0000C0583E08F8F9E01215E3F4F87E563E00E
:1015F000A90121E00E940C0581E08F8F9E01215EF0
:101600003F4F87E565E0A90121E00E940C0587E0D6
:101610008F8F9E01215E3F4F87E566E0A90121E0A3
:101620000E940C051E8E1D8E0EC02D8D3E8DCE018E
:101630004F96FC01E20FF31F82E180838D8D9E8D1A
:1016400001969E8F8D8F8D8D9E8D853091056CF3CB
:101650009E01215E3F4F87E56AE0A90125E00E94D7
:101660000C051E8E1D8E0EC02D8D3E8DCE014F960B
:10167000FC01E20FF31F82E180838D8D9E8D019628
:101680009E8F8D8F8D8D9E8D853091056CF39E0183
:10169000215E3F4F87E560E1A90125E00E940C052E
:1016A00083E08F8F9E01215E3F4F87E561E1A901B5
:1016B00021E00E940C058EE18F8F9E01215E3F4F3D
:1016C00087E560E0A90121E00E940C0580E090E040
:1016D000A8ECB2E48B879C87AD87BE876B857C8541
:1016E0008D859E8520E030E04AEF54E40E94C416C8
:1016F000DC01CB018F839887A987BA876F817885B2
:1017000089859A8520E030E040E85FE30E94CA18AE
:1017100088232CF481E090E09E838D833FC06F810D
:10172000788589859A8520E03FEF4FE757E40E944E
:101730006A1818164CF56B857C858D859E8520E092
:1017400030E040E251E40E94C416DC01CB01BC0150
:10175000CD010E94EE14DC01CB019E838D830FC06E
:1017600088EC90E09C838B838B819C810197F1F7BF
:101770009C838B838D819E8101979E838D838D8138
:101780009E81009769F714C06F81788589859A8555
:101790000E94EE14DC01CB019E838D838D819E819E
:1017A0009A83898389819A810197F1F79A83898342
:1017B000A3960FB6F894DEBF0FBECDBFCF91DF91D9
:1017C0000895DF93CF93CDB7DEB7A4970FB6F89403
:1017D000DEBF0FBECDBF8CA380E090E0A8ECB2E4EA
:1017E000898F9A8FAB8FBC8F698D7A8D8B8D9C8DF5
:1017F00020E030E04AEF54E40E94C416DC01CB0143
:101800008D8B9E8BAF8BB88F6D897E898F89988DDC
:1018100020E030E040E85FE30E94CA1888232CF4FF
:1018200081E090E09C8B8B8B3FC06D897E898F8996
:10183000988D20E03FEF4FE757E40E946A18181692
:101840004CF5698D7A8D8B8D9C8D20E030E040E2E7
:1018500051E40E94C416DC01CB01BC01CD010E9401
:10186000EE14DC01CB019C8B8B8B0FC088EC90E0DD
:101870009A8B898B89899A890197F1F79A8B898B41
:101880008B899C8901979C8B8B8B8B899C8900977A
:1018900069F714C06D897E898F89988D0E94EE1436
:1018A000DC01CB019C8B8B8B8B899C89988B8F87E0
:1018B0008F8598890197F1F7988B8F871E8E1D8EE3
:1018C0000EC02D8D3E8DCE014F96FC01E20FF31F11
:1018D0008CA180838D8D9E8D01969E8F8D8F8D8D99
:1018E0009E8D853091056CF39E01215E3F4F87E50B
:1018F0006AE0A90125E00E940C051E8E1D8E0EC017
:101900002D8D3E8DCE014F96FC01E20FF31F8CA171
:1019100080838D8D9E8D01969E8F8D8F8D8D9E8D5A
:10192000853091056CF39E01215E3F4F87E560E1B4
:10193000A90125E00E940C0580E090E0A8ECB2E44B
:101940008B879C87AD87BE876B857C858D859E85C3
:1019500020E030E04AEF54E40E94C416DC01CB01E1
:101960008F839887A987BA876F81788589859A85BB
:1019700020E030E040E85FE30E94CA1888232CF49E
:1019800081E090E09E838D833FC06F81788589855B
:101990009A8520E03FEF4FE757E40E946A18181637
:1019A0004CF56B857C858D859E8520E030E040E29E
:1019B00051E40E94C416DC01CB01BC01CD010E94A0
:1019C000EE14DC01CB019E838D830FC088EC90E088
:1019D0009C838B838B819C810197F1F79C838B8304
:1019E0008D819E8101979E838D838D819E8100973D
:1019F00069F714C06F81788589859A850E94EE14F5
:101A0000DC01CB019E838D838D819E819A838983A6
:101A100089819A810197F1F79A838983A4960FB6F9
:101A2000F894DEBF0FBECDBFCF91DF9108950F9325
:101A30001F93DF93CF93CDB7DEB7C056D0400FB61C
:101A4000F894DEBF0FBECDBFFE01E35AFF4F80E02A
:101A500090E0A0E2B1E480839183A283B3838E01FE
:101A6000075A1F4FFE01E35AFF4F60817181828147
:101A700093812BEA3AEA4AE250E40E94C416DC0160
:101A8000CB01F80180839183A283B383FE01E75ADF
:101A9000FF4F608171818281938120E030E040E8D6
:101AA0005FE30E94CA18882334F4FE01E85AFF4F0E
:101AB00081E08083E0C0FE01E75AFF4F60817181C1
:101AC0008281938120E030E04FE753E40E946A185E
:101AD00018160CF0C0C0FE01E35AFF4F60817181FF
:101AE0008281938120E030E04AE754E40E94BE17EF
:101AF000DC01CB01FE01EC5AFF4F80839183A2836E
:101B0000B3838E01005B1F4FFE01EC5AFF4F6081D3
:101B100071818281938120E030E04AEF54E40E9499
:101B2000C416DC01CB01F80180839183A283B383C7
:101B3000FE01E05BFF4F608171818281938120E033
:101B400030E040E85FE30E94CA18882344F4FE01B5
:101B5000E25BFF4F81E090E09183808364C0FE01EF
:101B6000E05BFF4F608171818281938120E03FEFD4
:101B70004FE757E40E946A1818160CF043C0FE01A4
:101B8000EC5AFF4F608171818281938120E030E0C7
:101B900040E251E40E94C416DC01CB018E01025BDD
:101BA0001F4FBC01CD010E94EE14DC01CB01F801F6
:101BB000918380831FC0FE01E45BFF4F88EC90E0BF
:101BC00091838083FE01E45BFF4F808191810197C7
:101BD000F1F7FE01E45BFF4F91838083DE01A25B9E
:101BE000BF4FFE01E25BFF4F80819181019711960B
:101BF0009C938E93FE01E25BFF4F80819181009761
:101C0000D1F64BC08E01025B1F4FFE01E05BFF4F20
:101C100060817181828193810E94EE14DC01CB018D
:101C2000F80191838083DE01A65BBF4FFE01E25B7A
:101C3000FF4F8081918111969C938E93FE01E65B0C
:101C4000FF4F808191810197F1F7FE01E65BFF4F25
:101C50009183808322C08E01085A1F4FFE01E75AEC
:101C6000FF4F60817181828193810E94EE14DC01BB
:101C7000CB01F8018083DE01A75BBF4FFE01E85A6C
:101C8000FF4F80818C93FE01E75BFF4F80818A9537
:101C9000F1F7FE01E75BFF4F8083A5E2B0E0E5E2EC
:101CA000F0E080818B7F8C93FE01EB5BFF4F80E047
:101CB00090E0A0E2B1E480839183A283B3838E019C
:101CC0000F5B1F4FFE01EB5BFF4F608171818281D3
:101CD00093812BEA3AEA4AE250E40E94C416DC01FE
:101CE000CB01F80180839183A283B383FE01EF5B74
:101CF000FF4F608171818281938120E030E040E874
:101D00005FE30E94CA18882334F481E0FE01E05C9E
:101D1000FF4F80839DC0FE01EF5BFF4F60817181AB
:101D20008281938120E030E04FE753E40E946A18FB
:101D300018160CF07EC0FE01EB5BFF4F60817181D5
:101D40008281938120E030E04AE754E40E94BE178C
:101D5000DC01CB018CAF9DAFAEAFBFAF6CAD7DAD45
:101D60008EAD9FAD20E030E04AEF54E40E94C416EF
:101D7000DC01CB0188AF99AFAAAFBBAF68AD79AD3D
:101D80008AAD9BAD20E030E040E85FE30E94CA18D6
:101D900088232CF481E090E09FAB8EAB3FC068AD10
:101DA00079AD8AAD9BAD20E03FEF4FE757E40E944D
:101DB0006A1818164CF56CAD7DAD8EAD9FAD20E068
:101DC00030E040E251E40E94C416DC01CB01BC01CA
:101DD000CD010E94EE14DC01CB019FAB8EAB0FC096
:101DE00088EC90E09DAB8CAB8CA99DA90197F1F795
:101DF0009DAB8CAB8EA99FA901979FAB8EAB8EA993
:101E00009FA9009769F72DC068AD79AD8AAD9BADEC
:101E10000E94EE14DC01CB019FAB8EAB8EA99FA973
:101E20009BAB8AAB8AA99BA90197F1F79BAB8AABC5
:101E300018C0FE01EF5BFF4F608171818281938149
:101E40000E94EE14DC01CB01FE01E05CFF4F8083B9
:101E5000FE01E05CFF4F808189AB89A98A95F1F78B
:101E600089AB87E20E94F90080E090E0A0E2B1E453
:101E70008DA79EA7AFA7B8AB6DA57EA58FA598A986
:101E80002BEA3AEA4AE250E40E94C416DC01CB0194
:101E900089A79AA7ABA7BCA769A57AA58BA59CA57E
:101EA00020E030E040E85FE30E94CA1888231CF479
:101EB00081E088A791C069A57AA58BA59CA520E0A3
:101EC00030E04FE753E40E946A1818160CF07BC00C
:101ED0006DA57EA58FA598A920E030E04AE754E4DF
:101EE0000E94BE17DC01CB018CA39DA3AEA3BFA3B0
:101EF0006CA17DA18EA19FA120E030E04AEF54E4C7
:101F00000E94C416DC01CB0188A399A3AAA3BBA39A
:101F100068A179A18AA19BA120E030E040E85FE3BD
:101F20000E94CA1888232CF481E090E09F8F8E8F46
:101F30003FC068A179A18AA19BA120E03FEF4FE7B4
:101F400057E40E946A1818164CF56CA17DA18EA169
:101F50009FA120E030E040E251E40E94C416DC0181
:101F6000CB01BC01CD010E94EE14DC01CB019F8F9F
:101F70008E8F0FC088EC90E09D8F8C8F8C8D9D8D07
:101F80000197F1F79D8F8C8F8E8D9F8D01979F8F7D
:101F90008E8F8E8D9F8D009769F724C068A179A1DF
:101FA0008AA19BA10E94EE14DC01CB019F8F8E8F32
:101FB0008E8D9F8D9B8F8A8F8A8D9B8D0197F1F7D8
:101FC0009B8F8A8F0FC069A57AA58BA59CA50E94BF
:101FD000EE14DC01CB0188A788A5898F898D8A95AD
:101FE000F1F7898F80E70E94F90080E090E0A0E29D
:101FF000B1E48D8B9E8BAF8BB88F6D897E898F8975
:10200000988D2BEA3AEA4AE250E40E94C416DC01B9
:10201000CB01898B9A8BAB8BBC8B69897A898B8935
:102020009C8920E030E040E85FE30E94CA188823E2
:102030001CF481E0888B91C069897A898B899C899D
:1020400020E030E04FE753E40E946A1818160CF0C5
:102050007BC06D897E898F89988D20E030E04AE7CA
:1020600054E40E94BE17DC01CB018C879D87AE87AC
:10207000BF876C857D858E859F8520E030E04AEFA7
:1020800054E40E94C416DC01CB0188879987AA8793
:10209000BB87688579858A859B8520E030E040E8AC
:1020A0005FE30E94CA1888232CF481E090E09F83AC
:1020B0008E833FC0688579858A859B8520E03FEFC8
:1020C0004FE757E40E946A1818164CF56C857D8519
:1020D0008E859F8520E030E040E251E40E94C416E6
:1020E000DC01CB01BC01CD010E94EE14DC01CB016F
:1020F0009F838E830FC088EC90E09D838C838C81BE
:102100009D810197F1F79D838C838E819F8101973B
:102110009F838E838E819F81009769F724C0688595
:1021200079858A859B850E94EE14DC01CB019F8313
:102130008E838E819F819B838A838A819B81019775
:10214000F1F79B838A830FC069897A898B899C897F
:102150000E94EE14DC01CB01888B888989838981F8
:102160008A95F1F78983A5E2B0E0E5E2F0E08081AD
:1021700084608C93C05ADF4F0FB6F894DEBF0FBE59
:10218000CDBFCF91DF911F910F910895DF93CF9332
:10219000CDB7DEB72E970FB6F894DEBF0FBECDBF1A
:1021A0007894A5E2B0E0E5E2F0E0808182608C9373
:1021B00080E090E0AAE7B4E48B879C87AD87BE8778
:1021C0006B857C858D859E8520E030E04AEF54E468
:1021D0000E94C416DC01CB018F839887A987BA8738
:1021E0006F81788589859A8520E030E040E85FE35B
:1021F0000E94CA1888232CF481E090E09E838D838E
:102200003FC06F81788589859A8520E03FEF4FE751
:1022100057E40E946A1818164CF56B857C858D85ED
:102220009E8520E030E040E251E40E94C416DC01CB
:10223000CB01BC01CD010E94EE14DC01CB019E83D9
:102240008D830FC088EC90E09C838B838B819C8175
:102250000197F1F79C838B838D819E8101979E83EB
:102260008D838D819E81009769F714C06F81788579
:1022700089859A850E94EE14DC01CB019E838D83B3
:102280008D819E819A83898389819A810197F1F753
:102290009A838983A5E2B0E0E5E2F0E080818D7F5A
:1022A0008C93F8942E960FB6F894DEBF0FBECDBF78
:1022B000CF91DF910895DF93CF93CDB7DEB7E69747
:1022C0000FB6F894DEBF0FBECDBF9EAB8DAB2DA970
:1022D0003EA982E561EEA90120E00E940C052DA92E
:1022E0003EA982E560EAA90123E00E940C057894EA
:1022F00080E090E0A0E2B1E489AB9AABABABBCABC1
:1023000069A97AA98BA99CA920E030E04AEF54E49E
:102310000E94C416DC01CB018DA79EA7AFA7B8AB66
:102320006DA57EA58FA598A920E030E040E85FE389
:102330000E94CA1888232CF481E090E09CA78BA708
:102340003FC06DA57EA58FA598A920E03FEF4FE780
:1023500057E40E946A1818164CF569A97AA98BA946
:102360009CA920E030E040E251E40E94C416DC0168
:10237000CB01BC01CD010E94EE14DC01CB019CA776
:102380008BA70FC088EC90E09AA789A789A59AA58A
:102390000197F1F79AA789A78BA59CA501979CA700
:1023A0008BA78BA59CA5009769F714C06DA57EA58A
:1023B0008FA598A90E94EE14DC01CB019CA78BA7E6
:1023C0008BA59CA598A78FA38FA198A50197F1F73E
:1023D00098A78FA3A5E2B0E0E5E2F0E080818260FB
:1023E0008C9380E090E0A0EAB1E48BA39CA3ADA322
:1023F000BEA36BA17CA18DA19EA12BEA3AEA4AE281
:1024000050E40E94C416DC01CB018F8F98A3A9A3CE
:10241000BAA36F8D78A189A19AA120E030E040E8AD
:102420005FE30E94CA1888231CF481E08E8F91C05C
:102430006F8D78A189A19AA120E030E04FE753E4A5
:102440000E946A1818160CF07BC06BA17CA18DA1AC
:102450009EA120E030E04AE754E40E94BE17DC0170
:10246000CB018A8F9B8FAC8FBD8F6A8D7B8D8C8DBE
:102470009D8D20E030E04AEF54E40E94C416DC0158
:10248000CB018E8B9F8BA88FB98F6E897F89888DAA
:10249000998D20E030E040E85FE30E94CA1888236D
:1024A0002CF481E090E09D8B8C8B3FC06E897F89FE
:1024B000888D998D20E03FEF4FE757E40E946A181E
:1024C00018164CF56A8D7B8D8C8D9D8D20E030E04B
:1024D00040E251E40E94C416DC01CB01BC01CD01F5
:1024E0000E94EE14DC01CB019D8B8C8B0FC088EC1D
:1024F00090E09B8B8A8B8A899B890197F1F79B8B54
:102500008A8B8C899D8901979D8B8C8B8C899D8969
:10251000009769F724C06E897F89888D998D0E9404
:10252000EE14DC01CB019D8B8C8B8C899D89998B62
:10253000888B888999890197F1F7998B888B0FC0CF
:102540006F8D78A189A19AA10E94EE14DC01CB01C4
:102550008E8F8E8D8F878F858A95F1F78F87A5E275
:10256000B0E0E5E2F0E080818D7F8C9380E090E048
:10257000A0E2B1E48B879C87AD87BE876B857C85A5
:102580008D859E8520E030E04AEF54E40E94C41619
:10259000DC01CB018F839887A987BA876F81788503
:1025A00089859A8520E030E040E85FE30E94CA1800
:1025B00088232CF481E090E09E838D833FC06F815F
:1025C000788589859A8520E03FEF4FE757E40E94A0
:1025D0006A1818164CF56B857C858D859E8520E0E4
:1025E00030E040E251E40E94C416DC01CB01BC01A2
:1025F000CD010E94EE14DC01CB019E838D830FC0C0
:1026000088EC90E09C838B838B819C810197F1F710
:102610009C838B838D819E8101979E838D838D8189
:102620009E81009769F714C06F81788589859A85A6
:102630000E94EE14DC01CB019E838D838D819E81EF
:102640009A83898389819A810197F1F79A83898393
:10265000E6960FB6F894DEBF0FBECDBFCF91DF91E7
:102660000895DF93CF93CDB7DEB72E970FB6F894CA
:10267000DEBF0FBECDBF0E9453000E9461000E94CA
:10268000D6000E940F010E941D010E9440010E947D
:10269000540AA5E2B0E0E5E2F0E0808181608C932D
:1026A00080E090E0AAE7B4E48B879C87AD87BE8783
:1026B0006B857C858D859E8520E030E04AEF54E473
:1026C0000E94C416DC01CB018F839887A987BA8743
:1026D0006F81788589859A8520E030E040E85FE366
:1026E0000E94CA1888232CF481E090E09E838D8399
:1026F0003FC06F81788589859A8520E03FEF4FE75D
:1027000057E40E946A1818164CF56B857C858D85F8
:102710009E8520E030E040E251E40E94C416DC01D6
:10272000CB01BC01CD010E94EE14DC01CB019E83E4
:102730008D830FC088EC90E09C838B838B819C8180
:102740000197F1F79C838B838D819E8101979E83F6
:102750008D838D819E81009769F714C06F81788584
:1027600089859A850E94EE14DC01CB019E838D83BE
:102770008D819E819A83898389819A810197F1F75E
:102780009A838983A5E2B0E0E5E2F0E080818E7F64
:102790008C93FFCF1F920F920FB60F9211242F939D
:1027A0003F934F935F936F937F938F939F93AF93D9
:1027B000BF93EF93FF93DF93CF93CDB7DEB72E9701
:1027C000DEBFCDBFF894A5E2B0E0E5E2F0E08081A5
:1027D0008D7F8C93A5E2B0E0E5E2F0E0808181603E
:1027E0008C9380E090E0AAEFB3E48B879C87AD8761
:1027F000BE876B857C858D859E8520E030E04AEF25
:1028000054E40E94C416DC01CB018F839887A9870A
:10281000BA876F81788589859A8520E030E040E825
:102820005FE30E94CA1888232CF481E090E09E8325
:102830008D833FC06F81788589859A8520E03FEF41
:102840004FE757E40E946A1818164CF56B857C8593
:102850008D859E8520E030E040E251E40E94C41660
:10286000DC01CB01BC01CD010E94EE14DC01CB01E7
:102870009E838D830FC088EC90E09C838B838B813B
:102880009C810197F1F79C838B838D819E810197B9
:102890009E838D838D819E81009769F714C06F811F
:1028A000788589859A850E94EE14DC01CB019E8390
:1028B0008D838D819E819A83898389819A810197F5
:1028C000F1F79A838983A5E2B0E0E5E2F0E0808148
:1028D0008E7F8C9378942E96DEBFCDBFCF91DF9103
:1028E000FF91EF91BF91AF919F918F917F916F91E8
:1028F0005F914F913F912F910F900FBE0F901F90BE
:1029000018951F920F920FB60F9211240F931F93D9
:102910002F933F934F935F936F937F938F939F93E7
:10292000AF93BF93EF93FF93DF93CF9300D000D08B
:102930000F92CDB7DEB71A8219821AC009811A81A7
:102940000E94C700282FCE010396FC01E00FF11F63
:10295000208329813A81CE010396FC01E20FF31F07
:1029600080810E94B00089819A8101969A8389832F
:1029700089819A81833091050CF30E94170D8B8118
:10298000893359F483E10E94E10BCE0103960E9442
:102990005B1182E10E94E10B04C0CE0103960E940C
:1029A0005B1183E20E94B0000F900F900F900F9088
:1029B0000F90CF91DF91FF91EF91BF91AF919F91D8
:1029C0008F917F916F915F914F913F912F911F91C7
:1029D0000F910F900FBE0F901F901895EF92FF92DE
:1029E0000F931F937B018C0120E030E040E05FE417
:1029F0000E949A1888238CF0C801B70120E030E0CB
:102A000040E05FE40E9466160E94FA189B01AC0148
:102A1000205030404040504806C0C801B7010E94D5
:102A2000FA189B01AC01B901CA011F910F91FF90E7
:102A3000EF900895A0E0B0E0E0E2F5E10C94161B01
:102A4000DC012B01FA019C91923008F439C1EB01B1
:102A50008881823008F433C1943069F4843009F0FD
:102A60002FC111969C9111978981981709F428C15B
:102A7000A0E0B1E025C1843009F421C18230A9F47D
:102A8000923009F01DC19A01AD0188E0EA01099078
:102A9000AE01E90109929E018150C1F7E2018981ED
:102AA00011969C918923818308C1923009F407C152
:102AB00012962D903C901397EB018A819B8114967E
:102AC000AD90BD90CD90DC901797EC80FD800E818D
:102AD0001F819101281B390BB90137FF04C06627FC
:102AE0007727621B730B603271050CF061C0121600
:102AF00013066CF537014801062E04C0969487949E
:102B0000779467940A94D2F721E030E040E050E0F7
:102B100004C0220F331F441F551F6A95D2F721505E
:102B20003040404050402E213F2140235123211569
:102B300031054105510521F021E030E040E050E051
:102B400079018A01E628F728082919293CC0232B96
:102B5000D1F1260E371E35014601062E04C096948B
:102B60008794779467940A94D2F721E030E040E0AC
:102B700050E004C0220F331F441F551F6A95D2F73F
:102B800021503040404050402A213B214C215D21C2
:102B9000211531054105510521F021E030E040E0EB
:102BA00050E059016A01A628B728C828D9280BC0C7
:102BB000821593052CF01C01AA24BB24650103C0D7
:102BC000EE24FF24870111969C91D20111968C91DD
:102BD000981709F445C0992339F0A80197012A19DB
:102BE0003B094C095D0906C0A60195012E193F0954
:102BF000400B510B57FD08C011823382228224837F
:102C00003583468357831DC081E0818333822282CE
:102C100088279927DC01821B930BA40BB50B8483B7
:102C20009583A683B7830DC0220F331F441F551F02
:102C300024833583468357838281938101979383CD
:102C400082832481358146815781DA01C901019748
:102C5000A109B1098F5F9F4FAF4FBF4328F30BC04E
:102C6000918333822282EA0CFB1C0C1D1D1DE48221
:102C7000F5820683178383E0808324813581468132
:102C8000578157FF1AC0C901AA2797FDA095BA2FEF
:102C900081709070A070B0705695479537952795C4
:102CA000822B932BA42BB52B84839583A683B78388
:102CB00082819381019693838283DF0101C0D201D7
:102CC000CD01CDB7DEB7E2E10C94321BA0E2B0E05B
:102CD000ECE6F6E10C94221B69837A838B839C8358
:102CE0002D833E834F835887E9E0EE2EF12CEC0EC6
:102CF000FD1ECE010196B7010E94231A8E010F5EC0
:102D00001F4FCE010596B8010E94231A8A8991E0CF
:102D100089278A8BC701B801AE01475E5F4F0E94C9
:102D20001A150E944E19A096E6E00C943E1BA0E2F4
:102D3000B0E0EDE9F6E10C94221B69837A838B8382
:102D40009C832D833E834F835887F9E0EF2EF12C2F
:102D5000EC0EFD1ECE010196B7010E94231A8E01D2
:102D60000F5E1F4FCE010596B8010E94231AC701BE
:102D7000B801AE01475E5F4F0E941A150E944E19BE
:102D8000A096E6E00C943E1BA0E2B0E0EAECF6E18F
:102D90000C94161B69837A838B839C832D833E83DB
:102DA0004F835887CE010196BE01675F7F4F0E9417
:102DB000231ACE010596BE016F5E7F4F0E94231A33
:102DC0009985923088F089898230C8F0943019F45E
:102DD000823051F404C0843029F4923081F480E0D0
:102DE00091E0C6C0923049F420E09A858A89981310
:102DF00021E02A87CE010996BBC0823049F420E049
:102E00009A858A89981321E02A8BCE014196B0C019
:102E10002D843E844F8458886D887E888F88988C56
:102E2000EE24FF248701AA24BB24650140E050E082
:102E300060E070E0E0E0F0E0C10181709070892B0B
:102E4000E9F0E60CF71C081D191D9A01AB012A0DCB
:102E50003B1D4C1D5D1D80E090E0A0E0B0E0E6145D
:102E6000F7040805190520F481E090E0A0E0B0E047
:102E7000BA01A901480F591F6A1F7B1FAA0CBB1C6E
:102E8000CC1CDD1C97FE08C081E090E0A0E0B0E023
:102E9000A82AB92ACA2ADB2A3196E032F10549F07C
:102EA000660C771C881C991C569447943794279479
:102EB000C3CFFA85EA892B893C898B859C85280FAD
:102EC000391F2E5F3F4F17C0CA0181709070892B48
:102ED00061F016950795F794E79480E090E0A0E004
:102EE000B0E8E82AF92A0A2B1B2B769567955795A7
:102EF00047952F5F3F4F77FDE7CF0CC0440F551F1D
:102F0000661F771F17FD4160EE0CFF1C001F111F8D
:102F100021503040403090E0590790E0690790E43C
:102F2000790760F32B8F3C8FDB01CA018F7790709C
:102F3000A070B07080349105A105B10561F447FD22
:102F40000AC0E114F1040105110529F0405C5F4F4E
:102F50006F4F7F4F40781A8EFE1711F081E08A8FF5
:102F60004D8F5E8F6F8F78A383E0898FCE01499656
:102F70000E944E19A096E2E10C94321BA8E1B0E049
:102F8000E4ECF7E10C941E1B69837A838B839C83AA
:102F90002D833E834F835887B9E0EB2EF12CEC0E46
:102FA000FD1ECE010196B7010E94231A8E010F5E0D
:102FB0001F4FCE010596B8010E94231A29852230A1
:102FC00008F47EC03989323010F4B8017CC08A859B
:102FD0009A8989278A87243011F0223031F4231707
:102FE00009F06EC060E071E06EC0343039F41D86C7
:102FF0001E861F86188A1C861B8604C0323021F468
:1030000084E08987B7015FC02B853C858B899C89CB
:10301000281B390B3C872B87ED84FE840F8518898C
:10302000AD88BE88CF88D88CEA14FB040C051D053A
:1030300040F4EE0CFF1C001F111F215030403C8754
:103040002B8720E030E040E050E080E090E0A0E01E
:10305000B0E460E070E0EA14FB040C051D0540F0EC
:10306000282B392B4A2B5B2BEA18FB080C091D096E
:10307000B695A79597958795EE0CFF1C001F111F1D
:103080006F5F7F4F6F31710531F7DA01C9018F77BB
:103090009070A070B07080349105A105B10561F405
:1030A00027FD0AC0E114F1040105110529F0205C97
:1030B0003F4F4F4F5F4F20782D873E874F87588B6C
:1030C000BE01675F7F4FCB010E944E196896EAE010
:1030D0000C943A1BA8E1B0E0E0E7F8E10C94221B65
:1030E00069837A838B839C832D833E834F835887A8
:1030F00089E0E82EF12CEC0EFD1ECE010196B70101
:103100000E94231A8E010F5E1F4FCE010596B80153
:103110000E94231A8985823040F08989823028F004
:10312000C701B8010E949B1A01C08FEF6896E6E0C4
:103130000C943E1BA8E1B0E0E0EAF8E10C94221BFD
:1031400069837A838B839C832D833E834F83588747
:1031500089E0E82EF12CEC0EFD1ECE010196B701A0
:103160000E94231A8E010F5E1F4FCE010596B801F3
:103170000E94231A8985823040F08989823028F0A4
:10318000C701B8010E949B1A01C08FEF6896E6E064
:103190000C943E1BA8E1B0E0E0EDF8E10C94221B9A
:1031A00069837A838B839C832D833E834F835887E7
:1031B00089E0E82EF12CEC0EFD1ECE010196B70140
:1031C0000E94231A8E010F5E1F4FCE010596B80193
:1031D0000E94231A8985823040F08989823028F044
:1031E000C701B8010E949B1A01C081E06896E6E021
:1031F0000C943E1BACE0B0E0E0E0F9E10C94261B3F
:1032000069837A838B839C83CE010196BE016B5FB9
:103210007F4F0E94231A8D81823061F1823050F1FC
:10322000843021F48E81882351F12EC02F8138857E
:1032300037FD20C06E812F3131051CF06623F9F077
:1032400023C08EE190E0821B930B29853A854B8544
:103250005C8504C056954795379527958A95D2F792
:103260006623B1F050954095309521953F4F4F4FD3
:103270005F4F0EC020E030E040E050E009C02FEF8B
:103280003FEF4FEF5FE704C020E030E040E050E860
:10329000B901CA012C96E2E00C94421BDF92EF9236
:1032A000FF920F931F93FC01E480F5800681178144
:1032B000D1808081823048F480E090E0A0E1B0E0ED
:1032C000E82AF92A0A2B1B2BA5C0843009F49FC0D9
:1032D000823021F4EE24FF24870105C0E114F104BB
:1032E0000105110519F4E0E0F0E096C062817381F8
:1032F0009FEF623879070CF05BC022E83FEF261B96
:10330000370B2A3131052CF020E030E040E050E06E
:103310002AC0B801A701022E04C07695679557957B
:1033200047950A94D2F781E090E0A0E0B0E004C0B5
:10333000880F991FAA1FBB1F2A95D2F70197A109D1
:10334000B1098E219F21A023B1230097A105B105CA
:1033500021F081E090E0A0E0B0E09A01AB01282BE1
:10336000392B4A2B5B2BDA01C9018F779070A07043
:10337000B07080349105A105B10539F427FF09C06B
:10338000205C3F4F4F4F5F4F04C0215C3F4F4F4F7A
:103390005F4FE0E0F0E02030A0E03A07A0E04A070D
:1033A000A0E45A0710F0E1E0F0E079018A0127C0BB
:1033B0006038710564F5FB01E158FF4FD801C70182
:1033C0008F779070A070B07080349105A105B10521
:1033D00039F4E7FE0DC080E490E0A0E0B0E004C066
:1033E0008FE390E0A0E0B0E0E80EF91E0A1F1B1F7B
:1033F00017FF05C016950795F794E794319687E077
:1034000016950795F794E7948A95D1F705C0EE24B1
:10341000FF248701EFEFF0E06E2F67956627679531
:10342000902F9F77D794DD24D7948E2F8695492FA0
:10343000462B582F5D29B701CA011F910F91FF90AC
:10344000EF90DF900895FC01DB01408151812281E2
:10345000622F6F7770E0221F2227221F9381892F0E
:10346000880F822B282F30E0991F9927991F1196DA
:103470009C93119721153105A9F541155105610559
:10348000710511F482E037C082E89FEF13969C9398
:103490008E9312979A01AB0167E0220F331F441FEE
:1034A000551F6A95D1F783E08C930DC0220F331F0F
:1034B000441F551F12968D919C9113970197139657
:1034C0009C938E931297203080E0380780E0480765
:1034D00080E4580758F314962D933D934D935C93D5
:1034E000179708952F3F310579F44115510561056E
:1034F000710519F484E08C93089564FF03C081E0A2
:103500008C9312C01C9210C02F57304013963C93DE
:103510002E93129783E08C9387E0440F551F661F0C
:10352000771F8A95D1F7706414964D935D936D93D0
:103530007C93179708951F93DC01FB019C919230B7
:1035400008F447C08081823008F443C0943051F4BD
:1035500011961C91843099F58181682F70E0611B70
:1035600071093FC0843021F0923031F48230B9F1DA
:103570008181882389F12DC011961C911197823089
:10358000F1F081811817D9F412962D913C9113977F
:10359000828193818217930794F028173907BCF032
:1035A00014968D919D910D90BC91A02D2481358113
:1035B00046815781281739074A075B0718F41123FA
:1035C00041F00AC082179307A407B50740F41123FE
:1035D00019F061E070E005C06FEF7FEF02C060E0BE
:1035E00070E0CB011F910895A1E21A2EAA1BBB1B0C
:1035F000FD010DC0AA1FBB1FEE1FFF1FA217B307BF
:10360000E407F50720F0A21BB30BE40BF50B661FD4
:10361000771F881F991F1A9469F760957095809598
:1036200090959B01AC01BD01CF0108952F923F926F
:103630004F925F926F927F928F929F92AF92BF92C2
:10364000CF92DF92EF92FF920F931F93CF93DF936E
:10365000CDB7DEB7CA1BDB0B0FB6F894DEBF0FBECB
:10366000CDBF09942A88398848885F846E847D8418
:103670008C849B84AA84B984C884DF80EE80FD801A
:103680000C811B81AA81B981CE0FD11D0FB6F89490
:0E369000DEBF0FBECDBFED010895F894FFCF51
:08369E00000000000000000024
:00000001FF
