:100000000C9434000C947E030C9446000C9446002F
:100010000C9446000C9446000C9446000C94460048
:100020000C9446000C9446000C9446000C94460038
:100030000C9446000C9446000C9446000C94460028
:100040000C9446000C9446000C94A2030C944600B9
:100050000C9446000C9446000C9446000C94460008
:100060000C9446000C94460011241FBECFEFD8E03C
:10007000DEBFCDBF11E0A0E0B1E001C01D92AB300A
:10008000B107E1F70E9451030C943C040C9400006A
:10009000E1E6F0E080E8808310820895519A1092A2
:1000A000C50083E38093C40088E18093C1008EE0A3
:1000B0008093C2000895982F8091C00085FFFCCFE7
:1000C0009093C600089520E030E07AE06DE048ECBF
:1000D00050E0C9018F709070892B61F48091C0004D
:1000E00085FFFCCF7093C6008091C00085FFFCCFD8
:1000F0006093C6008091C00085FFFCCF822F805D99
:100100008093C600289A82EE94E0FA013197F1F7C5
:100110000197D9F7289882EE94E0FA013197F1F728
:100120000197D9F72F5F3F4F2F34310591F608958E
:1001300008958091C00087FFFCCF8091C60008958C
:1001400084B18E6284B98CB580658CBD2A9A299859
:1001500008958EBD0DB407FEFDCF8EB50895579856
:10016000209A08955298E9E6F0E0808182608083C9
:1001700080818E7F8083E89A0895E1ECF0E08081B1
:100180008068808308959AE1292F2A95F1F72A98AB
:100190009A95F1F78EBD0DB407FEFDCF8EB58AE1BD
:1001A0008A95F1F78FEF8EBD0DB407FEFDCF8EB5AA
:1001B0009AE19A95F1F72A9A08951F93782F813042
:1001C00009F4605E8AE1982F9A95F1F72A988A954A
:1001D000F1F76EBD0DB407FEFDCF8EB58AE18A95AD
:1001E000F1F7A0E0B0E030E09AE11FEF1BC0772309
:1001F00061F4603A51F01EBD0DB407FEFDCF8EB51F
:10020000FD01EE5FFE4F808309C0FA01EA0FFB1F7C
:1002100080818EBD0DB407FEFDCF8EB5892F8A95E6
:10022000F1F71196A217B30714F32A9A82E091E02E
:100230001F910895FF920F931F93DF93CF9300D0E8
:1002400000D00F92CDB7DEB7F82E88EE93E028EC01
:1002500030E0F9013197F1F70197D9F7F982FA8285
:10026000FB82FC82FD8281E06AE08E010F5F1F4FFE
:10027000A80125E00E94DD00F982FA82FB82FC825F
:10028000FD8281E060E1A80125E00E94DD0088EEAA
:1002900093E028EC30E0F9013197F1F70197D9F7B5
:1002A0000F900F900F900F900F90CF91DF911F91B3
:1002B0000F91FF9008958AE1982F9A95F1F72A9867
:1002C0008A95F1F787E28EBD0DB407FEFDCF8EB59E
:1002D0008AE18A95F1F780E78EBD0DB407FEFDCF68
:1002E0008EB58AE18A95F1F72A9A08957894299A29
:1002F00080E197E228EC30E0F9013197F1F70197BE
:10030000D9F72998F8940895289A88E893E128EC79
:1003100030E0F9013197F1F70197D9F7289888E88B
:1003200093E128EC30E0F9013197F1F70197D9F723
:100330000895282F2595259525952595205D60E123
:100340000E9423049A3014F4905D01C0995C80915E
:10035000C00085FFFCCF2093C6008091C00085FFC0
:10036000FCCF9093C6000895DF92EF92FF920F9317
:100370001F93DF93CF9300D000D000D0CDB7DEB76E
:1003800081E08A838E010E5F1F4F62E0A80121E0A9
:100390000E94DD0082E18A838B838C838D838E8330
:1003A00081E06AE0A80125E00E94DD0080E06AE0CB
:1003B000AE014F5F5F4F25E00E94DD007C0100E051
:1003C00010E080E2D82EF701E00FF11F80810E943B
:1003D00099018091C00085FFFCCFD092C6000F5FCD
:1003E0001F4F0530110579F78091C00085FFFCCFC4
:1003F0008AE08093C6008091C00085FFFCCF8DE02D
:100400008093C60026960FB6F894DEBF0FBECDBF10
:10041000CF91DF911F910F91FF90EF90DF900895A2
:100420000F931F938C0180E061EEA80120E00E94F1
:10043000DD0080E060EAA80125E00E94DD008091F7
:10044000C00085FFFCCF83E48093C60080E00E945B
:10045000C3000E94990180E29EE4FC013197F1F70C
:10046000299A20E52A95F1F729980197F1F78091CB
:10047000C00085FFFCCF83E58093C60087E00E9423
:10048000C3000E9499011F910F910895DF93CF93AC
:1004900000D000D00F92CDB7DEB7DE01119621E675
:1004A00048EC50E02C938091C00085FFFCCF209356
:1004B000C60088EE93E0FA013197F1F70197D9F77A
:1004C00011962F5F263671F7CE0101960E94100219
:1004D00088E893E128EC30E0F9013197F1F70197D2
:1004E000D9F787E00E94C30084FF06C08091C00056
:1004F00085FFFCCF80E405C08091C00085FFFCCF64
:1005000084E28093C6000F900F900F900F900F9091
:10051000CF91DF910895EF92FF920F931F93DF9396
:10052000CF9300D000D00F92CDB7DEB788EE93E026
:1005300028EC30E0F9013197F1F70197D9F711E094
:10054000198381E061E07E010894E11CF11CA701A0
:1005500021E00E94DD008FE2898381E064E0A70151
:1005600021E00E94DD00198381E062E0A70121E023
:100570000E94DD0083E0898381E063E0A70121E040
:100580000E94DD00198381E065E0A70121E00E945F
:10059000DD00198381E066E0A70121E00E94DD0013
:1005A00012E119831A831B831C831D8381E06AE097
:1005B000A70125E00E94DD0019831A831B831C8399
:1005C0001D8381E060E1A70125E00E94DD0085E058
:1005D000898381E061E1A70121E00E94DD008EE1D5
:1005E000898381E060E0A70121E00E94DD0088EEC0
:1005F00093E028EC30E0F9013197F1F70197D9F752
:100600009EE0F92EF98281E067E08E010F5F1F4FB7
:10061000A80121E00E94DD00F98281E067E0A801E5
:1006200021E00E94DD008091C00085FFFCCF83E5C2
:100630008093C60087E00E94C3000E9499010F903A
:100640000F900F900F900F90CF91DF911F910F910E
:10065000FF90EF9008958091C00085FFFCCF8AE065
:100660008093C6008091C00085FFFCCF8DE0809311
:10067000C600809101018F5F809301010E94990162
:100680008091C00085FFFCCF8EE58093C6000E945C
:1006900046028091C00085FFFCCF8EE78093C600A4
:1006A000089580E880936100109261000E944E00DE
:1006B0000E94A0005798209A0E94B2008091C10029
:1006C00080688093C1000E948B02289A80E197E2A3
:1006D00028EC30E0F9013197F1F70197D9F7289824
:1006E00080E197E228EC30E0F9013197F1F70197CA
:1006F000D9F74F99FECF0E942B03FBCF1F920F9289
:100700000FB60F9211242F933F938F939F93EF93E4
:10071000FF93F8942998289A88E893E128EC30E030
:10072000F9013197F1F70197D9F728987894FF915B
:10073000EF919F918F913F912F910F900FBE0F904E
:100740001F9018951F920F920FB60F9211240F93BE
:100750001F932F933F934F935F936F937F938F9349
:100760009F93AF93BF93EF93FF93DF93CF9300D00B
:1007700000D00F92CDB7DEB720910001FE01319677
:10078000322F7AE06DE0AE014A5F5F4F832F90E039
:100790008F709070892B61F48091C00085FFFCCF31
:1007A0007093C6008091C00085FFFCCF6093C600A7
:1007B0008091C00087FFFCCF9091C600908380910C
:1007C000C00085FFFCCF9093C6003F5F3196E417D1
:1007D000F507E1F62B5F209300010E945B01898100
:1007E0008E010F5F1F4F893351F483E10E941A017C
:1007F000C8010E94100282E10E941A0103C0C801D0
:100800000E9410028091C00085FFFCCF83E280939C
:10081000C6000F900F900F900F900F90CF91DF9127
:10082000FF91EF91BF91AF919F918F917F916F91C8
:100830005F914F913F912F911F910F910F900FBE9C
:100840000F901F90189587FB082E062687FD81952F
:1008500067FD619505D00EF4919507FC819508958B
:10086000991B79E004C0991F961708F0961B881F02
:0C0870007A95C9F780950895F894FFCFA1
:00000001FF
