:1000000012C02CC02BC02AC029C028C027C026C0BF
:1000100025C024C023C023C04CC020C01FC01EC0A8
:100020001DC01CC01BC011241FBECFE5D4E0DEBF25
:10003000CDBF11E0A0E6B0E0E6E2F2E102C005903B
:100040000D92AE3AB107D9F711E0AEEAB1E001C0C6
:100050001D92A33FB107E1F721D4E3C8D1CF1F928E
:100060000F920FB60F9211242F938F939F93EF93BC
:10007000FF939BB12CB1E091F001EF5FEF718091A4
:10008000F101E81711F482E008C0892F8871E0932C
:10009000F001F0E0E253FE4F20838093F201FF91E4
:1000A000EF919F918F912F910F900FBE0F901F9006
:1000B00018951F920F920FB60F9211248F939F9352
:1000C000EF93FF939091EE018091EF01981761F00B
:1000D000E091EF01EF5FEF71E093EF01F0E0E255A7
:1000E000FE4F80818CB901C05598FF91EF919F918F
:1000F0008F910F900FBE0F901F9018959C0110923A
:10010000EE011092EF011092F0011092F10197FFB1
:1001100003C082E08BB93F7730BD29B988E98AB93D
:1001200086E880BD08959091F0018091F1019817C3
:1001300019F420E031E012C0E091F101EF5FEF71BE
:10014000E093F101F0E0E253FE4F30812091F201A3
:10015000922F80E0AC01430F511D9A01C90108950F
:10016000282F9091EE019F5F9F718091EF0198176A
:10017000E1F3E92FF0E0E255FE4F20839093EE018A
:10018000559A0895CF93DF93EC0102C02196E8DFE2
:1001900088818823D9F7DF91CF910895CF93DF939A
:1001A000EC0101C0DDDFFE01219684918823D1F7A7
:1001B000DF91CF91089587B3837C87BB87B38C622F
:1001C00087BB81E58DB981E08EB908958FB9779BA2
:1001D000FECF8FB10895C1988FEFF8DFC19A0895CF
:1001E000CF93DF93EC01F7DF982F907486FF05C063
:1001F000209719F0869587708883892FDF91CF919A
:100200000895C19881EEE2DFC19A0895C19882EE07
:10021000DDDFC19A0895FF920F931F93CF93DF9371
:10022000162F072FF42EC1988F718062CFDF212FF8
:10023000302FC901EC0110E003C08991C7DF1F5FB7
:100240001F15D8F3C19ADF91CF911F910F91FF90A5
:1002500008951F93162FC1988F718062B7DF812F89
:10026000B5DFC19A1F9108950F931F93CF93DF932A
:100270008C01C19881E6AADFC0E0D0E08FEFA6DF55
:10028000F801EC0FFD1F80832196C031D105B1F735
:10029000C19A87E060E4DDDF9EDF85FF03C087E071
:1002A00060E2D7DFDF91CF911F910F910895FF9208
:1002B0000F931F93CF93DF93162F072FF42EC19820
:1002C0008F7184DF212F302FC901EC0110E004C0B1
:1002D0008FEF7CDF89931F5F1F15D0F3C19ADF91E9
:1002E000CF911F910F91FF900895C1988F716EDF8C
:1002F0008FEF6CDFC19A089580E0F7DF682F6C60A4
:1003000080E0A7DF089586E0F0DF682F677D86E054
:10031000A0DF089586E0E9DF682F666086E099DF58
:100320000895C09880E0E1DF682F6E7F80E091DF64
:1003300080E0DBDF682F626080E08BDF87E060E7D2
:1003400088DF5FDF82E38A95F1F70895EF92FF92ED
:100350000F931F93DF93CF93CDB7DEB7C456D04032
:100360000FB6F894DEBF0FBECDBF7C0180E690E0F3
:10037000F701099530DF00D000D000D0EDB7FEB70F
:1003800031968E010F5F1F4FADB7BEB712961C930B
:100390000E93119727E630E03383228384831582FE
:1003A00056D48DB79EB706960FB6F8949EBF0FBE73
:1003B0008DBFC801F701099580E097DF00D000D01C
:1003C00000D0EDB7FEB73196ADB7BEB712961C930D
:1003D0000E93119726E730E03383228384831582BE
:1003E00036D48DB79EB706960FB6F8949EBF0FBE53
:1003F0008DBFC801F701099585E077DF00D000D0F7
:1004000000D0EDB7FEB73196ADB7BEB712961C93CC
:100410000E93119725E830E033832283848315827D
:1004200016D48DB79EB706960FB6F8949EBF0FBE32
:100430008DBFC801F701099586E057DF00D000D0D5
:1004400000D0EDB7FEB73196ADB7BEB712961C938C
:100450000E93119723E930E033832283848315823E
:10046000F6D38DB79EB706960FB6F8949EBF0FBE13
:100470008DBFC801F701099581E037DF00D000D0BA
:1004800000D0EDB7FEB73196ADB7BEB712961C934C
:100490000E93119724EA30E03383228384831582FC
:1004A000D6D38DB79EB706960FB6F8949EBF0FBEF3
:1004B0008DBFC801F701099582E017DF00D000D099
:1004C00000D0EDB7FEB73196ADB7BEB712961C930C
:1004D0000E93119722EB30E03383228384831582BD
:1004E000B6D38DB79EB706960FB6F8949EBF0FBED3
:1004F0008DBFC801F701099588E0F7DE00D000D074
:1005000000D0EDB7FEB73196ADB7BEB712961C93CB
:100510000E93119724EC30E0338322838483158279
:1005200096D38DB79EB706960FB6F8949EBF0FBEB2
:100530008DBFC801F701099587ED90E0F701099596
:10054000CC59DF4F0FB6F894DEBF0FBECDBFCF91B1
:10055000DF911F910F91FF90EF900895DC011496A9
:1005600020E030E0FB01E20FF31F8C9180832F5FCE
:100570003F4F119725303105A9F708950F931F9329
:10058000DF93CF9300D000D00F92CDB7DEB7AC0190
:10059000A8EFB0E0FC0185E001900D928150E1F7F9
:1005A000CA018E010F5F1F4FB801D8DF8AE0B80182
:1005B00045E031DE80E1B80145E02DDE0F900F907F
:1005C0000F900F900F90CF91DF911F910F91089591
:1005D0000F931F93DF93CF9300D000D00F92CDB72E
:1005E000DEB7FB018823A1F42AED30E0AB0185E002
:1005F000DA010D90AD01D9010D929D018150C1F735
:10060000CF018E010F5F1F4FB801A8DF8AE015C030
:100610008130B9F42FED30E0AB0185E0DA010D90C7
:10062000AD01D9010D929D018150C1F7CF018E011D
:100630000F5F1F4FB80192DF8BE0B80145E0EBDDA3
:1006400040C0823071F424EE30E0AB0185E0DA0185
:100650000D90AD01D9010D929D018150C1F78CE043
:100660002EC0833071F429EE30E0AB0185E0DA0171
:100670000D90AD01D9010D929D018150C1F78DE022
:100680001EC0843071F42EEE30E0AB0185E0DA015B
:100690000D90AD01D9010D929D018150C1F78EE001
:1006A0000EC0853071F423EF30E0AB01DA010D901C
:1006B000AD01D9010D929D018150C1F78FE0648198
:1006C000C8DD0F900F900F900F900F90CF91DF919A
:1006D0001F910F91089580E06AED70E079DF80E06E
:1006E00004DE682F616080E0B4DD80E0FEDD682F0D
:1006F000626080E0AEDD87E060E7ABDD87DD81DD55
:10070000C09A82E38A95F1F708950F931F93CF93D0
:10071000DF938C0106DEC19880EA58DDC0E0D0E0AE
:10072000F801EC0FFD1F808151DD2196C031D1050C
:10073000B9F7C19AC09A85E08A95F1F7C09813E09D
:10074000812F8A95F1F747DD8073D1F344DD082FBF
:1007500085E06CE47EDD80E0C8DD682F6D7F80E0A1
:1007600078DDB9DF10E085E0169507958A95E1F709
:10077000802F8170DF91CF911F910F910895B99AC9
:10078000B89A19DDC098C19A82EE94E00197F1F70A
:10079000C1DDB9DDB1DD84E067E45BDD8CE160E003
:1007A00058DD85E06CE455DD81E160E152DD82E1F8
:1007B00060E14FDD83E160E14CDD84E160E149DD32
:1007C00085E160E146DD86E160E143DD82E060E0F5
:1007D00040DD82E08ADD682F616082E03ADD82E000
:1007E00084DD682F626082E034DD82E07EDD682F88
:1007F000646082E02EDD82E078DD682F686082E050
:1008000028DD82E072DD682F606182E022DD82E017
:100810006CDD682F606282E01CDD81E066DD682FA0
:10082000616081E016DD81E060DD682F626081E05B
:1008300010DD81E05ADD682F646081E00ADD81E02F
:1008400054DD682F686081E004DD81E04EDD682FB3
:10085000606181E0FEDC81E048DD682F606281E05C
:10086000F8DC80E06AED70E0B3DE81E06FED70E00F
:10087000AFDE82E064EE70E0ABDE83E069EE70E054
:10088000A7DE84E06EEE70E0A3DE85E063EF70E04B
:100890009FDE88EF90E072DE1EDF08952F923F9278
:1008A0004F925F926F927F928F929F92AF92BF9280
:1008B000CF92DF92EF92FF920F931F93DF93CF932C
:1008C000CDB7DEB7C554D0400FB6F894DEBF0FBE2B
:1008D000CDBFA098AD98A198AD98A59AAD9889E1A3
:1008E00090E00CDC4CDF7894989980C1AD9A28EBAD
:1008F0003BE049E150E011C0CA010197F1F72150F6
:100900003040D1F7AD9888EB9BE029E130E0F90168
:100910003197F1F70197D9F725C0CA010197F1F78F
:1009200021503040D1F7AD9888EB9BE029E130E0D1
:10093000F9013197F1F70197D9F7AD9A88EB9BE070
:1009400029E130E0F9013197F1F70197D9F7AD9836
:1009500088EB9BE029E130E0F9013197F1F701974D
:10096000D9F708C08DEF90E00DDC81E026968FAFBF
:10097000269706C081E191E005DC26961FAE2697FA
:10098000FE01B59681E681938F5F8137E1F7B5E38C
:10099000CB2ED12CCC0EDD1EF601A0E1AA2EB12C5F
:1009A000AC0CBD1C1192EA15FB05E1F7DE011296B5
:1009B000E8EAF1E085E001900D928150E1F7DE0177
:1009C0001796E3EAF1E085E001900D928150E1F79E
:1009D000DE011C96EEE9F1E085E001900D92815078
:1009E000E1F7DE015196E9E9F1E085E001900D9231
:1009F0008150E1F7DE015696E4E9F1E085E00190EF
:100A00000D928150E1F7DE015B96EFE8F1E085E0C1
:100A100001900D928150E1F782EC90E060EB70E084
:100A200095DCFF24F0E24F2E512C4C0E5D1EE5E3C9
:100A30006E2E712C6C0E7D1E79E1872E912C64EC4C
:100A4000262E69E0362E06C08F2D8F5F66E0D4D04B
:100A5000F92E26C026968FAD2697813009F06FC0FB
:100A600050E2C52ED12CCC0EDD1E46E1242E312CB9
:100A70002C0E3D1E31E1432E512C4C0E5D1E2CE000
:100A8000622E712C6C0E7D1E97E0892E912C8C0E9F
:100A90009D1E85E2A82EB12CAC0EBD1E09E110E012
:100AA00085E291E06FDB8F2D90E0B6014AE050E0E7
:100AB000AFD0C60167DB8CE391E064DBFF2019F463
:100AC000CE01029619C081E0F81611F4C40114C0D9
:100AD00082E0F81611F4C3010FC083E0F81611F498
:100AE000C2010AC084E0F81611F4C10105C085E016
:100AF000F81619F4CE014B9641DDC50106DE8130B2
:100B000019F481E491E002C086E491E03BDBAD9A08
:100B100088EB9BE0F8013197F1F70197D9F7AD9891
:100B200088EB9BE0F8013197F1F70197D9F780E165
:100B300097E2F8013197F1F70197D9F785CF19823C
:100B4000CE0101964DDB882309F44CC08FE491E07F
:100B500019DB898190E0B2014AE050E059D0C2012E
:100B600011DB86E691E00EDBC3017EDB89E691E0D6
:100B700009DBEE24E39400E010E0F301E00FF11F45
:100B80009081E5E2F0E0EC0FFD1FE00FF11F8081A6
:100B90009813EE24892FE4DA0F5F1F4F00311105FF
:100BA00061F786E691E0EEDAEE2029F082E791E047
:100BB000E9DAF60103C08FE791E0FACF1192EA1566
:100BC000FB05E1F7AD9A88EB9BE0F4013197F1F773
:100BD0000197D9F7AD9888EB9BE0F4013197F1F7D5
:100BE0000197D9F7C1010197F1F734CFAD9A28EBFE
:100BF0003BE049E150E080CE991B79E004C0991FA9
:100C0000961708F0961B881F7A95C9F78095089566
:100C1000FB019F01E8944230BCF04532ACF44A300D
:100C200029F497FB1EF4909581959F4F642F7727A9
:100C3000ADD2805D8A330CF0895D8193CB01009742
:100C4000A9F716F45DE251931082C90105C2AEE026
:100C5000B0E0ECE2F6E0BCC20D891E8986E08C8330
:100C60001A8309838FEF9FE79E838D839E01275E02
:100C70003F4FCE0101966F89788DA90109D02F8150
:100C80003885020F131FF80110822E96E4E0BCC2D3
:100C9000ABE0B0E0EDE4F6E08DC23C012B015A017F
:100CA000FC0117821682838181FD03C06FEF7FEF05
:100CB000B9C19AE0892E1E010894211C311CF30150
:100CC0002381F20123FD859123FF81912F01882348
:100CD00009F4A5C1853239F423FD859123FF819163
:100CE0002F01853221F490E0B301C6D1E8CF982FCF
:100CF000FF24EE249924FFE1FF15D0F09B3269F028
:100D00009C3228F4903259F0933291F40EC09D3207
:100D100049F0903369F441E024C052E0F52A84E0C0
:100D2000F82A28C098E0F92A25C0E0E1FE2A22C06E
:100D3000F7FC29C0892F80538A3070F4F6FE05C075
:100D4000989C902C1124980E15C0E89CE02C11243E
:100D5000E80EF0E2FF2A0EC09E3229F4F6FC5FC1D5
:100D600040E4F42A07C09C3619F450E8F52A02C082
:100D7000983649F4F20123FD959123FF91912F01BB
:100D8000992309F0B8CF892F8554833018F0805209
:100D9000833038F444E050E0A40EB51E5FE359837D
:100DA0000FC0933631F0933779F0933509F052C084
:100DB0001FC0F5018081898342E050E0A40EB51E7A
:100DC000610101E010E011C0F501C080D180F6FCA6
:100DD00003C06FEF7FEF02C0692D70E042E050E08A
:100DE000A40EB51EC6012DD18C015FE7F52213C0FC
:100DF000F501C080D180F6FC03C06FEF7FEF02C029
:100E0000692D70E042E050E0A40EB51EC6010ED17F
:100E10008C0150E8F52AF3FE06C018C080E290E08D
:100E2000B3012AD1EA948E2D90E008171907B0F388
:100E30000DC0F601F7FC8591F7FE81916F0190E0FE
:100E4000B3011AD1E110EA940150104001151105C7
:100E500081F7E2C0943611F0993661F5F7FE08C0CB
:100E6000F501208131814281538184E090E00AC004
:100E7000F501808191819C01442737FD4095542FD5
:100E800082E090E0A80EB91E9FE6F92257FF09C044
:100E900050954095309521953F4F4F4F5F4FE0E87B
:100EA000FE2ACA01B901A1012AE030E011D1D82EF1
:100EB000D2183FC0953729F41F2D1F7E2AE030E05D
:100EC0001DC01F2D197F9F3661F0903720F4983593
:100ED00009F0A5C00FC0903739F0983709F09FC0CE
:100EE00004C028E030E00AC0106114FD146020E165
:100EF00030E004C014FD166020E132E017FF08C0A6
:100F0000F501608171818281938144E050E008C0E5
:100F1000F50180819181BC0180E090E042E050E0E9
:100F2000A40EB51EA101D4D0D82ED2188FE7F82E6A
:100F3000F122F6FE0BC05EEFF522D91438F4F4FE70
:100F400007C0F2FC05C08FEEF82202C01D2D01C0C3
:100F5000192DF4FE0DC0FE01ED0DF11D80818033D1
:100F600019F499EEF92208C01F5FF2FE05C003C014
:100F70008F2D867809F01F5F0F2DF3FC13C0F0FE54
:100F80000EC01E1510F09D2C0AC09D2C9E0C911AAF
:100F90001E2D05C080E290E0B3016ED01F5F1E15CC
:100FA000C8F304C01E1510F4E11A01C0EE2404FFBA
:100FB0000EC080E390E0B3015FD002FF1BC001FDD3
:100FC00003C088E790E00EC088E590E00BC0802F5A
:100FD000867881F001FF02C08BE201C080E2F7FC5D
:100FE0008DE290E0B30148D005C080E390E0B3010A
:100FF00043D09A94D914C8F3DA94F101ED0DF11DA0
:10100000808190E0B30138D0DD20B1F705C080E2E7
:1010100090E0B30131D0EA94EE20C9F750CEF3014D
:1010200066817781CB012B96E2E1E0C0FC0105905F
:10103000615070400110D8F7809590958E0F9F1FDA
:101040000895FC016150704001900110D8F780951F
:1010500090958E0F9F1F0895DC01FC01672F719101
:101060007723E1F7329704C07C916D93708362918E
:10107000AE17BF07C8F308950F931F93CF93DF9365
:101080008C01EB018B8181FF1BC082FF0DC02E8183
:101090003F818C819D812817390764F4E881F981AB
:1010A0000193F983E88306C0E885F985802F0995C7
:1010B000892B31F48E819F8101969F838E8302C09C
:1010C0000FEF1FEFC801DF91CF911F910F9108958E
:1010D000FA01AA27283051F1203181F1E8946F9369
:1010E0006E7F6E5F7F4F8F4F9F4FAF4FB1E03ED00F
:1010F000B4E03CD0670F781F891F9A1FA11D680FAD
:10110000791F8A1F911DA11D6A0F711D811D911DDF
:10111000A11D20D009F468943F912AE0269F112454
:101120003019305D3193DEF6CF010895462F4770B8
:10113000405D4193B3E00FD0C9F7F6CF462F4F7013
:10114000405D4A3318F0495D31FD4052419302D071
:10115000A9F7EACFB4E0A695979587957795679517
:10116000BA95C9F700976105710508959B01AC0117
:101170000A2E06945795479537952795BA95C9F73E
:10118000620F731F841F951FA01D0895AA1BBB1B10
:1011900051E107C0AA1FBB1FA617B70710F0A61B77
:1011A000B70B881F991F5A95A9F780959095BC0198
:1011B000CD0108952F923F924F925F926F927F924E
:1011C0008F929F92AF92BF92CF92DF92EF92FF9257
:1011D0000F931F93CF93DF93CDB7DEB7CA1BDB0B03
:1011E0000FB6F894DEBF0FBECDBF09942A883988A8
:1011F00048885F846E847D848C849B84AA84B984AF
:10120000C884DF80EE80FD800C811B81AA81B981BA
:10121000CE0FD11D0FB6F894DEBF0FBECDBFED01CE
:061220000895F894FFCFD1
:10122600696E666F0D0A005354415455533A202592
:101236003032580D0A00434F4E4649473A20253072
:1012460032580D0A0052465F43483A20253032583C
:101256000D0A0052465F53455455503A2025303208
:10126600580D0A00454E5F41413A20253032580D4F
:101276000A00454E5F5258414444523A20253032C6
:10128600580D0A004F4253455256455F54583A206E
:10129600253032580D0A000D0A00E8E8F0F0E2C1E8
:1012A600C2C2C2C2C1C2C2C2C3C1C2C2C2C4C1C218
:1012B600C2C2C5C1C2C2C2C6E8E8F0F0E273746138
:1012C6007274696E672061732074782E2E2E0D0A53
:1012D600007374617274696E672061732072782E70
:1012E6002E2E0D0A0073656E64696E672064617444
:1012F600612C206F6E207069706520002E2E2E20C6
:10130600006F6B0D0A006661696C65640D0A006703
:10131600657474696E6720646174612C206F6E2039
:101326007069706520000D0A002020646174613ABE
:1013360020002020636865636B206F6B0D0A002018
:1013460020636865636B206661696C730D0A00C172
:10135600C2C2C2C6C1C2C2C2C5C1C2C2C2C4C1C261
:0E136600C2C2C3C1C2C2C2C2E8E8F0F0E200D7
:00000001FF
