:100000000C9434000C9451000C9451000C946B012E
:100010000C9451000C9451000C943A010C94510032
:100020000C9451000C9451000C9451000C9451000C
:100030000C9451000C9451000C9451000C945100FC
:100040000C9451000C9451000C9451000C945100EC
:100050000C9451000C9451000C9451000C945100DC
:100060000C9451000C94510011241FBECFEFD8E026
:10007000DEBFCDBF17E0A0E0B1E0ECEFFAE102C0D7
:1000800005900D92AE32B107D9F718E0AEE2B7E0B5
:1000900001C01D92A239B107E1F70E9432050C940C
:1000A0007C0D0C940000F89488E10FB6F8948093CE
:1000B0006000109260000FBEA8952DE088E190E0EE
:1000C0000FB6F894A895809360000FBE209360004F
:1000D0007894089504B603FE0AC084B7877F84BF6E
:1000E00080916000886180936000109260000895A4
:1000F000F894E8E6F0E0808181608083EBE6F0E050
:100100008081806180830E946A00E0E6F0E0808167
:100110008861808381E6808378940895E0E6F0E04A
:1001200080818861808381E680830895F89415BE7C
:10013000109269001DBA82E080936E0010926400F4
:100140007894089580913007885F809330072091DC
:100150003707285F209337078C335CF06CE30E94ED
:10016000BD0C80912F078F5F80932F079E5F909328
:1001700030072C3364F0809136078F5F8093360709
:10018000822F6CE30E94BD0C9E5F90933707909185
:100190002F079C3384F0809130078B5F809330076A
:1001A000892F6CE30E94BD0C90932F0780912E073E
:1001B0008F5F80932E07809136078C3361F4809196
:1001C00030078451809330071092360780913507AD
:1001D0008F5F8093350780912E0788319CF01092B5
:1001E0002E07809133078F5F809333078091340708
:1001F0008F5F8093340787302CF067E00E94BD0C3E
:1002000090933407209132072530A1F026303CF43A
:10021000223091F0233071F0213081F40BC02A306C
:1002200049F02B302CF4822F8750823038F402C0F2
:100230002C3021F48FE103C08CE101C08EE180936A
:100240003B079091330780913B07891734F481E095
:10025000809333072F5F20933207809132078D30D0
:1002600044F081E080933207809131078F5F809363
:10027000310708951F920F920FB60F9211242F93FA
:100280003F934F935F936F937F938F939F93AF931E
:10029000BF93EF93FF930E94A200809138076AE01A
:1002A0000E94B10C892F0E94F802809138078F5F5D
:1002B00080933807FF91EF91BF91AF919F918F91FC
:1002C0007F916F915F914F913F912F910F900FBE52
:1002D0000F901F9018951F920F920FB60F92112436
:1002E0002F933F934F935F936F937F938F939F933E
:1002F000AF93BF93EF93FF931C9B12C080916B0051
:100300008F7E80936B008CE591E06CE671E00E943B
:10031000D2020E943C0980916B00806180936B0047
:1003200080E593EC0197F1F7FF91EF91BF91AF91C9
:100330009F918F917F916F915F914F913F912F91FD
:100340000F900FBE0F901F90189583B1E0E5F3EC6E
:100350003197F1F784FD04C085B191E0892785B913
:10036000089528980895289A08955F9887FD5F9AC0
:100370005E9886FD5E9A5D9885FD5D9A5C9884FD29
:100380005C9A5B9A81E0982F9A95F1F75B988A9531
:10039000F1F708951F93182F5A985B980E94B501A2
:1003A000812F8295807F0E94B5011F9108958CE076
:1003B0000E94CA018DE08A95F1F7089588E00E94B5
:1003C000CA018DE08A95F1F708951F93182F5A9A64
:1003D0005B980E94B501812F8295807F0E94B501B4
:1003E0001F910895FF920F931F93DF93CF9300D037
:1003F000CDB7DEB78C011A8219828DE0F82E0FC0BE
:10040000E981FA81E00FF11F80810E94E501898175
:100410009A8101969A8389838F2D8A95F1F7E981D4
:10042000FA81E00FF11F8081882351F70F900F9020
:10043000CF91DF911F910F91FF9008951F9380E856
:100440000E94CA011DE0812F8A95F1F780E091E0BA
:100450000E94F20180EC0E94CA011A95F1F78FE028
:1004600091E00E94F20180E197E229E130E0F90198
:100470003197F1F70197D9F780EC0E94CA018DE01E
:100480008A95F1F78CE291E00E94F20180E197E217
:1004900029E130E0F9013197F1F70197D9F788E0C8
:1004A0000E94CA018DE08A95F1F780E197E229E187
:1004B00030E0F9013197F1F70197D9F78CE00E940C
:1004C000CA011F9108951F9388EA91E60197F1F7F9
:1004D0005A985B9880E30E94B50184EC99E00197FB
:1004E000F1F780E30E94B50112E4812F8A95F1F7BC
:1004F00080E30E94B5011A95F1F788E20E94B501E8
:100500001DE0812F8A95F1F788E20E94CA01812FB0
:100510008A95F1F788E00E94CA01812F8A95F1F748
:1005200081E00E94CA0188EE93E00197F1F786E02E
:100530000E94CA01812F8A95F1F78CE00E94CA01BE
:100540001A95F1F71F910895579A569A559A549A09
:10055000209A289A2498539A529A0E9463020895E6
:100560000F931F93CF93DF93DC010D900020E9F7E9
:100570001197A81B00E010E08A2F992787FD90951E
:10058000C0E1D0E0C81BD90B05C080E20E94E501A4
:100590000F5F1F4F0C171D07C4F3DF91CF911F9101
:1005A0000F910895DF92EF92FF920F931F938C01AA
:1005B0007B0180E80E94CA019DE0D92E8D2D8A958D
:1005C000F1F7C8010E94F201C8010E94B00280EC5C
:1005D0000E94CA01DA94F1F7C7010E94F201C70133
:1005E0000E94B0021F910F91FF90EF90DF9008954D
:1005F000282F80912F0764E00E94BD0C97FD04C056
:1006000092303CF0943084F020E030E060E070E024
:1006100015C082E2289FC00111249C01225C384F42
:10062000BC01615B784F0AC082E2289FC00111249F
:100630009C012F5C3C4FBC016E5B7C4FC9010E944A
:10064000D20208958BE391E06CE471E00E94D20243
:10065000089580E091E06FE071E00E94D20280E1B5
:1006600097E229E130E0F9013197F1F70197D9F7E5
:100670008EE191E06CE271E00E94D20280E197E2AB
:1006800029E130E0F9013197F1F70197D9F70895A1
:100690008DE791E066E871E00E94D2020895FF9232
:1006A0000F931F93DF93CF9300D000D00F92CDB75D
:1006B000DEB7CE010196BE016E5F7F4F0E94AE0C89
:1006C00080E80E94CA012DE0F22E8F2D8A95F1F765
:1006D00082E991E00E94F20189818E010D5F1F4F36
:1006E000992787FD9095B8014AE050E00E94430D9C
:1006F000C8010E94F20188E991E00E94B0028F2DAA
:100700008A95F1F780EC0E94CA018F2D8A95F1F746
:1007100080EA91E00E94F2018A81992787FD9095F5
:10072000B8014AE050E00E94430DC8010E94F20166
:100730008AEA91E00E94F201FA94F1F70F900F908B
:100740000F900F900F90CF91DF911F910F91FF901D
:100750000895AF92BF92CF92DF92EF92FF920F93E4
:100760001F93DF93CF93CDB7DEB76A970FB6F89498
:10077000DEBF0FBECDBF1A861B861C861D86FE01FE
:100780003E968DE0DF011D928A95E9F7809135074D
:1007900057E0E52EF12CEC0EFD1E992787FD909574
:1007A000B7014AE050E00E94430D8091360744E0D3
:1007B000A42EB12CAC0EBD1E992787FD9095B501D6
:1007C0004AE050E00E94430D80913707992787FD4A
:1007D00090956E010894C11CD11CB6014AE050E00E
:1007E0000E94430D8E01065F1F4FC801B7010E9492
:1007F000010D33EBE32E31E0F32EC801B7010E9467
:10080000010DC801B5010E94010DC801B7010E9488
:10081000010DC801B6010E94010D8DE791E0B801FC
:100820000E94D2026A960FB6F894DEBF0FBECDBF0B
:10083000CF91DF911F910F91FF90EF90DF90CF90BC
:10084000BF90AF900895AF92BF92CF92DF92EF9298
:10085000FF920F931F93DF93CF93CDB7DEB7EE9741
:100860000FB6F894DEBF0FBECDBF1D8E1E8E1F8E3D
:1008700018A28DE0FE01B196DF01982F1D929A9586
:10088000E9F71EA61FA618AA19AAFE01F296DF0113
:100890001D928A95E9F780912E07A7E0CA2ED12CE8
:1008A000CC0EDD1E992787FD9095B6014AE050E0F9
:1008B0000E94430D80912F07F4E0AF2EB12CAC0EB7
:1008C000BD1E992787FD9095B5014AE050E00E9432
:1008D000430D80913007992787FD90957E010894FC
:1008E000E11CF11CB7014AE050E00E94430D8E016B
:1008F000035E1F4FC801B6010E94010DC80163EBE2
:1009000071E00E94010DC801B5010E94010DC801EE
:1009100063EB71E00E94010DC801B7010E94010D57
:1009200080913107EAE0EE2EF12CEC0EFD1E9927A6
:1009300087FD9095B7014AE050E00E94430D8091F9
:1009400032077DE0C72ED12CCC0EDD1E992787FD06
:100950009095B6014AE050E00E94430D8091330724
:1009600060E1A62EB12CAC0EBD1E992787FD909597
:10097000B5014AE050E00E94430D8E01025D1F4F19
:10098000C801B7010E94010DC80165EB71E00E942A
:10099000010DC801B6010E94010DC80165EB71E0AF
:1009A0000E94010DC801B5010E94010DC80167EB4D
:1009B00071E00E94010D809134078330F9F084309A
:1009C0003CF4813089F08230A4F4882341F02BC0BC
:1009D0008530F1F08530BCF0863029F51EC0CE019F
:1009E000439669EB71E01DC0CE0143966DEB71E05B
:1009F00018C0CE01439661EC71E013C0CE0143965E
:100A000065EC71E00EC0CE01439669EC71E009C05F
:100A1000CE0143966DEC71E004C0CE01439661EDCA
:100A200071E00E94150D8E01025D1F4FC801BE01CD
:100A30006D5E7F4F0E94010DCE014D96B8010E9460
:100A4000D202EE960FB6F894DEBF0FBECDBFCF91A7
:100A5000DF911F910F91FF90EF90DF90CF90BF90AB
:100A6000AF9008950E94A4020E94BB0A0E947800E1
:100A70000E9452050E94230483B7817F846083BF54
:100A80000E949D0A83B7816083BF889583B78E7F5C
:100A900083BFF8CF8091330767E00E94BD0C90932D
:100AA00034070895EF92FF920F931F93DF93CF9334
:100AB000CDB7DEB7E4970FB6F894DEBF0FBECDBF5B
:100AC00085ED91E06EED71E00E94FC0CFC0110E000
:100AD0007E010894E11CF11C03E010C0109FC001CE
:100AE00011241F5F8E0D9F1DBF010E94150D80E018
:100AF00090E06EED71E00E94FC0CFC018081882387
:100B000069F7C7010E94DE0C80932E07CE01049680
:100B10000E94DE0C80932F07CE0107960E94DE0C08
:100B2000815F8093300780EE91E06CEE71E00E946F
:100B3000FC0CFC0110E08DE0E82EF12CEC0EFD1E0B
:100B40000AE010C0109FC00111241F5F8E0D9F1D71
:100B5000BF010E94150D80E090E06CEE71E00E94F4
:100B6000FC0CFC018081882369F7C7016EEE71E0FF
:100B70000E940C0D009711F481E062C0C70162EF82
:100B800071E00E940C0D009711F482E059C0C7017A
:100B900066EF71E00E940C0D009711F483E050C0E5
:100BA000C7016AEF71E00E940C0D009711F484E018
:100BB00047C0C7016EEF71E00E940C0D009711F461
:100BC00085E03EC0C70162E072E00E940C0D009714
:100BD00011F486E035C0C70166E072E00E940C0D9A
:100BE000009711F487E02CC0C7016AE072E00E9410
:100BF0000C0D009711F488E023C0C7016EE072E08D
:100C00000E940C0D009711F489E01AC0C70162E13F
:100C100072E00E940C0D009711F48AE011C0C70128
:100C200066E172E00E940C0D009711F48BE008C0A1
:100C3000C7016AE172E00E940C0D009719F48CE084
:100C400080933207C7010A960E94DE0C8093330717
:100C5000C70144960E94DE0C68EE73E00E94CA0C45
:100C6000809331070E944A05E4960FB6F894DEBFE0
:100C70000FBECDBFCF91DF911F910F91FF90EF90ED
:100C800008952D9A84EC99E0FC013197F1F72D98A5
:100C90000197F1F708959F92AF92BF92CF92DF92A2
:100CA000EF92FF920F931F93DF93CF9300D00F9299
:100CB000CDB7DEB710E000E02DE0922E7E01089463
:100CC000E11CF11C98EAA92E91E6B92E82E1C82E0A
:100CD0008AE7D82E80E80E94CA01892D8A95F1F70B
:100CE0008EE192E00E94F20180913007992787FD02
:100CF0009095B7014AE050E00E94430DC7010E9461
:100D0000F20184E292E00E94F20183B1F501319791
:100D1000F1F784FD0AC0809130078F5F8093300720
:100D20008C3314F010923007012F1F5FC60101971A
:100D3000F1F7812F801B893068F20F900F900F9090
:100D4000CF91DF911F910F91FF90EF90DF90CF90A7
:100D5000BF90AF909F9008959F92AF92BF92CF9215
:100D6000DF92EF92FF920F931F93DF93CF9300D008
:100D70000F92CDB7DEB710E000E05DE0952E7E016A
:100D80000894E11CF11C48EAA42E41E6B42E32E19D
:100D9000C32E3AE7D32E80E80E94CA01892D8A9596
:100DA000F1F786E292E00E94F20180912F079927E5
:100DB00087FD9095B7014AE050E00E94430DC701BE
:100DC0000E94F20184E292E00E94F20183B1F501F7
:100DD0003197F1F784FD0AC080912F078F5F8093D0
:100DE0002F078C3314F010922F07012F1F5FC601BD
:100DF0000197F1F7812F801B893068F20F900F90D7
:100E00000F90CF91DF911F910F91FF90EF90DF90A6
:100E1000CF90BF90AF909F9008959F92AF92BF9256
:100E2000CF92DF92EF92FF920F931F93DF93CF93B6
:100E300000D00F92CDB7DEB710E000E0EDE09E2EBF
:100E40007E010894E11CF11C78EAA72E71E6B72E0A
:100E500062E1C62E6AE7D62E80E80E94CA01892D7B
:100E60008A95F1F78CE292E00E94F20180912E07C0
:100E7000992787FD9095B7014AE050E00E94430D05
:100E8000C7010E94F20184E292E00E94F20183B164
:100E9000F5013197F1F784FD0AC080912E078F5F2D
:100EA00080932E07883114F010922E07012F1F5FB8
:100EB000C6010197F1F7812F801B893068F20F90EE
:100EC0000F900F90CF91DF911F910F91FF90EF90B6
:100ED000DF90CF90BF90AF909F9008953F924F9238
:100EE0005F926F927F928F929F92AF92BF92CF92BA
:100EF000DF92EF92FF920F931F93DF93CF9300D077
:100F00000F92CDB7DEB76C018B01442E522EEE242A
:100F1000FF24BDE03B2E5E010894A11CB11CA8EA91
:100F20006A2EA1E67A2EF2E18F2EFAE79F2E80E854
:100F30000E94CA01832D8A95F1F7C6010E94F20131
:100F4000F8018081992787FD9095B5014AE050E02E
:100F50000E94430DC5010E94F201C6010E94B00229
:100F600083B1F3013197F1F784FD09C0F801808165
:100F70008F5F8083481614F4F8015082EF2CF394AD
:100F8000C4010197F1F78F2D8E19893080F20F90EF
:100F90000F900F90CF91DF911F910F91FF90EF90E5
:100FA000DF90CF90BF90AF909F908F907F906F9089
:100FB0005F904F903F900895613029F58330A1F004
:100FC000843028F4813051F08230D1F40AC0853069
:100FD00089F0853060F0863099F40FC083E392E0A9
:100FE00032C08AE392E02FC088E492E02CC08AE508
:100FF00092E029C084E692E026C08FE692E023C00A
:101000008DE792E020C0623049F58330A1F0843052
:1010100028F4813051F0823009F50AC0853089F01A
:10102000853060F08630D1F413C087E892E00BC0C1
:1010300087E992E008C083EA92E005C088EA92E07E
:1010400002C08DEA92E069E372E00E94D202089544
:1010500082EB92E069E372E00E94D2020895CF929F
:10106000DF92FF920F931F93CF93DF9310E0FF2443
:1010700020E004E2C02E04EFD02EC2E1DAE7F394C0
:101080008F2D821B873010F400E007C0112311F070
:1010900001E003C010913C0702E01C9909C0C601A1
:1010A0000197F1F71F5F812F61E00E94DC072F2D70
:1010B000CE010197F1F7002311F310933C07133091
:1010C00069F1143030F4113069F0123009F089C040
:1010D00015C0153009F476C0153080F1163009F0CE
:1010E00080C07CC00E94230480E197E229E130E0C7
:1010F000F9013197F1F70197D9F775C080E593ECC5
:101100000197F1F70E944F0380E29EE429E130E06D
:10111000F9013197F1F70197D9F765C00E94B10144
:101120000E94230480E29EE429E130E0F901319736
:10113000F1F70197D9F70E94B30155C086E292E01A
:101140006FE277E04BE320E00E946E078CE292E0D2
:101150006EE277E047E120E00E946E0787EB92E0C5
:1011600060E377E04BE320E00E946E078DEB92E0B6
:1011700061E377E045E420E00E946E0784EC92E0B2
:1011800062E377E04CE021E00E946E078CEC92E095
:1011900063E377E04FE121E00E946E0783ED92E088
:1011A00064E377E046E020E00E946E070E9423049B
:1011B00080E197E229E130E0F9013197F1F70197F9
:1011C000D9F711C00E94A90380E29EE429E130E032
:1011D000F9013197F1F70197D9F705C00E9429036A
:1011E00002C00E942203DF91CF911F910F91FF90C7
:1011F000DF90CF900895BF92CF92DF92EF92FF924F
:101200000F931F93CF93DF93EC01B62E00E010E015
:1012100094E2C92E94EFD92E82E1E82E8AE7F82EC7
:101220000F5F1C9B02C0312F0AC0C6010197F1F766
:1012300088818F5F88836B2D0E94DC07302F802F81
:10124000811B873010F420E006C08881882311F4C8
:1012500022E001C021E0C7010197F1F7222311F438
:10126000132FDECFDF91CF911F910F91FF90EF9061
:10127000DF90CF90BF9008950F931F93DF93CF938C
:101280000F92CDB7DEB7198289ED92E069E372E083
:101290000E94D2028E010F5F1F4FC80161E00E94C1
:1012A000FB088981882311F091E00BC087EE92E062
:1012B00069E372E00E94D202C80162E00E94FB086A
:1012C00092E08981882329F480913C078983909159
:1012D0003D07898180933C0790933D07913009F049
:1012E0009EC0833069F1843030F4813069F08230FF
:1012F00009F092C015C0853009F456C0853080F1E0
:10130000863009F089C05CC00E94230480E197E226
:1013100029E130E0F9013197F1F70197D9F7E9C0F8
:1013200080E593EC0197F1F70E944F0380E29EE481
:1013300029E130E0F9013197F1F70197D9F7D9C0E8
:101340000E94B1010E94230480E29EE429E130E082
:10135000F9013197F1F70197D9F70E94B301C9C09C
:1013600086E292E06FE277E04BE320E00E946E07B6
:101370008CE292E06EE277E047E120E00E946E07A7
:1013800087EB92E060E377E04BE320E00E946E079A
:101390000E94230480E197E229E130E0F9013197CE
:1013A000F1F70197D9F7A5C00E94A90380E29EE456
:1013B00029E130E0F9013197F1F70197D9F799C0A8
:1013C0008DEB92E061E377E045E420E00E946E0758
:1013D00084EC92E062E377E04CE021E00E946E074B
:1013E0008CEC92E063E377E04FE121E00E946E072E
:1013F00083ED92E064E377E046E020E00E946E0730
:101400000E94230480E197E229E130E0F90131975D
:10141000F1F70197D9F76DC00E9422036AC092309C
:1014200009F067C08330B1F0843030F4813061F06E
:10143000823009F04FC00BC0853061F18530D0F0AB
:10144000863009F047C036C00E949D0A52C00E94F3
:101450007F0A4FC085EF92E069E372E00E94D202FA
:1014600080E197E229E130E0F9013197F1F7019746
:10147000D9F73FC080E093E069E372E00E94D202B6
:1014800080E197E229E130E0F9013197F1F7019726
:10149000D9F72FC08BE093E069E372E00E94D2029B
:1014A00080E197E229E130E0F9013197F1F7019706
:1014B000D9F71FC086E193E069E372E00E94D2028F
:1014C00080E197E229E130E0F9013197F1F70197E6
:1014D000D9F70FC081E293E069E372E00E94D20283
:1014E00080E197E229E130E0F9013197F1F70197C6
:1014F000D9F70F90CF91DF911F910F910895CF935E
:10150000DF93C0E0D0E0BE0167527A4FCE01825C2B
:10151000984F0E94150DBE016F5E7F4FCB01825C1C
:10152000984F67527A4F0E94150DA29681E0C435FC
:10153000D80749F7DF91CF910895CF93DF93C0E0AB
:10154000D0E0BE016B577B4FCE01825C984F0E946A
:10155000150DBE016F5E7F4FCB01825C984F6B57BC
:101560007B4F0E94150DA29681E0C435D80749F73C
:10157000DF91CF910895259A0895EF92FF920F93EE
:101580001F93DF93CF9300D000D00F92CDB7DEB77B
:10159000DC01219A299A88EB9BE00197F1F72998C1
:1015A0008EEE92E00197F1F7299A81E08A95F1F7A2
:1015B0002198199B02C08BE539C02D9A93E0892FA1
:1015C0008A95F1F72D98199902C08CE52FC02198C2
:1015D0002D9A892F8A95F1F72D98FE01319651E0C9
:1015E00081E0E82EF12C8E010A5F1F4F2DC001967D
:1015F000893C910521F48DE519C080E090E0199BAC
:10160000F6CF852F8A95F1F7199B08C0C701022EE6
:1016100002C0880F991F0A94E2F7482B80E090E0FF
:1016200007C00196893C910519F48EE58C9320C082
:101630001999F7CF215030408FEF2F3F3807E9F647
:101640004193E017F10721F040E027E030E0D5CFEB
:10165000219A299A86EA9EE00197F1F739812B8138
:101660008A81830F820F9C81890F9D81891711F0D8
:101670008FEF0CC0222321F02C93FB01308305C097
:1016800081E68C9382E6FB01808380E00F900F90CF
:101690000F900F900F90CF91DF911F910F91FF90BE
:1016A000EF900895EF92FF920F931F93DF93CF93E4
:1016B00000D000D00F92CDB7DEB7DC01219A299A75
:1016C00088EA91E60197F1F7299888E893E1019774
:1016D000F1F7299A21988DE08A95F1F7199B02C0BC
:1016E0008BE535C09AE1892F8A95F1F7199902C0E7
:1016F0008CE52DC02198892F8A95F1F7FE0131964E
:101700005AE091E0E92EF12C8E010A5F1F4F2DC0A7
:101710000196893C910521F48DE519C080E090E0A7
:10172000199BF6CF852F8A95F1F7199B08C0C70141
:10173000022E02C0880F991F0A94E2F7482B80E01E
:1017400090E007C00196893C910519F48EE58C93D1
:1017500020C01999F7CF215030408FEF2F3F380725
:10176000E9F64193E017F10721F040E027E030E08F
:10177000D5CF219A299A86EA9EE00197F1F739811F
:101780002B818A81830F820F9C81890F9D8189170C
:1017900011F08FEF0CC0222321F02C93FB0130833A
:1017A00005C081E68C9382E6FB01808380E00F9088
:1017B0000F900F900F900F90CF91DF911F910F918D
:1017C000FF90EF900895DF93CF9300D0CDB7DEB7B1
:1017D00019821A82259ACE010196BE016E5F7F4F53
:1017E0000E94520B84EE97E50197F1F70F900F904E
:1017F000CF91DF910895EF92FF920F931F93DF93A4
:10180000CF9300D000D00F92CDB7DEB7DC01219A84
:10181000299A88EB9BE00197F1F729988EEE92E0E8
:101820000197F1F7299A21982D9A81E08A95F1F78D
:101830002D98199B02C08BE537C093E0892F8A95BC
:10184000F1F7199902C08CE52FC021982D9A892FA4
:101850008A95F1F72D98FE01319651E021E0E22EB4
:10186000F12C8E010A5F1F4F2DC00196893C910516
:1018700021F48DE519C080E090E0199BF6CF852F0B
:101880008A95F1F7199B08C0C701022E02C0880F84
:10189000991F0A94E2F7482B80E090E007C0019678
:1018A000893C910519F48EE58C9320C01999F7CFE6
:1018B000215030408FEF2F3F3807E9F64193E01772
:1018C000F10721F040E027E030E0D5CF219A299AB6
:1018D00086EA9EE00197F1F739812B818A81830F97
:1018E000820F9C81890F9D81891711F08FEF0CC0A9
:1018F000222321F02C93FB01308305C081E68C93D9
:1019000082E6FB01808380E00F900F900F900F9094
:101910000F90CF91DF911F910F91FF90EF9008955D
:10192000DF93CF930F92CDB7DEB71982BE016F5F01
:101930007F4F0E94BD0A0F90CF91DF910895DF93F2
:10194000CF930F92CDB7DEB7BC011982CE010196BD
:101950000E94BD0A0F90CF91DF9108950E94520B13
:101960000895991B79E004C0991F961708F0961BFB
:10197000881F7A95C9F78095089587FB082E06265B
:1019800087FD819567FD6195ECDF0EF4919507FC6D
:1019900081950895AA1BBB1B51E107C0AA1FBB1F5D
:1019A000A617B70710F0A61BB70B881F991F5A95EB
:1019B000A9F780959095BC01CD010895FC01882779
:1019C0009927E89421912032E9F3293010F02E3044
:1019D000C8F32B3241F02D3239F4689404C00E94D0
:1019E000640D820F911D219120532A30C0F31EF403
:1019F000909581959F4F089549E357E00E941C0DF3
:101A00000895FB01DC010D900020E9F7119701908A
:101A10000D920020E1F70895FB01DC018D9101900A
:101A200080190110D9F3990B0895FB01DC01019095
:101A30000D920020E1F70895FA01A191B08100977D
:101A400019F41097E1F0CD01DC01CD010D900020DB
:101A500011F4C00113C0FB012191222319F02015BC
:101A6000D9F7F3CFFB012191201519F41E9211969D
:101A700006C02223C1F70D900020A1F7D001FA0182
:101A8000A193B0830895FB019F01E8944230C4F014
:101A90004532B4F44A3029F497FB1EF490958195B1
:101AA0009F4F642F77270E94CA0C805D8A330CF009
:101AB000895D8193CB010097A1F716F45DE2519304
:101AC0001082C9010C946C0D7AE0979F902D879F2E
:101AD000802D910D11240895DC01FC01672F719177
:101AE0007723E1F7329704C07C916D937083629104
:0C1AF000AE17BF07C8F30895F894FFCFAD
:101AFC00496E736F6F204B696D2020202020004CA5
:101B0C0043442D41546D6567613332387000696E02
:101B1C00736F6F40686F746D61696C004D617920F3
:101B2C0032332C2032303135202000313A52647956
:101B3C00206F72205072657653656C0032434B33C4
:101B4C00544834424C35414A364154005072657306
:101B5C007320627574746F6E2E2E2E002020202040
:101B6C002020202020202020202020200030383A47
:101B7C0031323A3430004A756E2020342032303104
:101B8C00350054656D703A0054656D703A20200034
:101B9C0048756D69646974793A00202020202020F2
:101BAC002020003A002F00200053756E004D6F6E00
:101BBC000054756500576564005468750046726979
:101BCC00005361740030383A31323A3431003A0003
:101BDC004A756E20203420323031350020004A61A5
:101BEC006E00466562004D617200417072004D617D
:101BFC0079004A756E004A756C0041756700536533
:101C0C0070004F6374004E6F76004465630073651B
:101C1C00633A200020004D696E3A2000486F7572BF
:101C2C003A2000436C6F636B000054656D7026485E
:101C3C00756D6964697479004261636B6C6967687E
:101C4C0074656420436C6F636B0041646A20436C61
:101C5C006F636B004C617073652054696D65005344
:101C6C00657420594D442026204461790050726FD0
:101C7C006720496E666F0062696F312D7068656E02
:101C8C006F47656E6F540062696F322D616C6C65C5
:101C9C006C6500617070330061707034006170703D
:101CAC00350061707036005365633A2000596561E8
:101CBC00723A20004D6F6E74683A2000446174656E
:101CCC003A20004461793A20006D656E754C61795B
:101CDC006572203D2031006D656E754C61796572C1
:101CEC00203D2032006170703320696D706C65008E
:101CFC006170703420696D706C6500617070352096
:101D0C00696D706C65006170703620696D706C6502
:101D1C00006170704C617965723220696D706C6510
:101D2C000043486E616D6275000000000000000009
:101D3C0000002D353534352037383736000000009B
:101D4C00000000544A656D6F3130372D3130310051
:101D5C000000000030322D3837342D353034360049
:101D6C00000000000053756E41683230332D313560
:101D7C003033000000003033322D3531382D323104
:101D8C003736000000000042474F6800000000009A
:101D9C0000000000000000003031372D3736312DA7
:101DAC003033323200000000004A756E6741680023
:101DBC00000000000000000000002D323734332DED
:101DCC0033393034000000000000006865726F6C1D
:101DDC00645F6B696D407961686F6F002E636F2E65
:101DEC006B722D333236352D3338343600444D2F4B
:101DFC0073646D31323230406E61766572002D3411
:101E0C0034393920373938330000000000000053D2
:101E1C004D6E616D62750000000000000000000056
:101E2C002D393430392031363936000000000000AD
:101E3C000052482F6B6F7265616E39313931400039
:101E4C0000006E61766572202D33303537203237C5
:101E5C003333005953000000000000000000000064
:101E6C00000000002D333538312D38303231000070
:101E7C00000000000063656C6C4368656D52656121
:101E8C0063746E00000062696F4D6F6C65496E740F
:101E9C0065726163746E006269675370616365009B
:101EAC0000000000000000006C6F775265616374E5
:101EBC006E53706565640000007768794F726761D6
:101ECC006E656C6C653F00000000312968695265D5
:101EDC006163746E537065656400007768794F7246
:101EEC0067616E656C6C653F0000000032296765A8
:101EFC006E654578704374726C00000000747273E8
:101F0C0063406E2F7472736C406374700000637462
:101F1C00726C4D76426574496E74666300000033D2
:101F2C002951433A747273632B70726F6300000013
:101F3C007468656E2C207472736C000000000000D5
:101F4C000067656E6F542D3E7068656E6F540000AF
:101F5C00000067656E654E57696E746163746E0040
:101F6C0000000066776447656E65746963730000F2
:101F7C00000000006368675068656E6F542D3E4723
:101F8C00656E6F540072657647656E657469637330
:101F9C0000000000000063686747656E6F542D3EBB
:101FAC005068656E6F54006861706C6F69642F6463
:101FBC00692D2F746574720079656173742F686D67
:101FCC0073706E732F66726700616C6C656C65283C
:101FDC004461657269707A61290077696C64207656
:101FEC00732E206D7574616E7400006D7574617460
:101FFC00696F6E286469706C642900007265636592
:10200C0073736976652F646F6D6E7400006D7574F3
:10201C006174696F6E0000000000000000007074B5
:10202C002F72617272672F64656C2F696E73006E0C
:10203C00756C6C2F6D697373656E736500000000B1
:10204C006E6F6E73656E73652F73696C656E74005D
:10205C00006D6F6E6F2F706F6C7967656E696300C2
:10206C00000070656E657472616E6365000000003F
:10207C000000007068796C6F67656E657469632029
:10208C005472000072524E414E6374645365715326
:10209C006D6C747900626374722F45756B72740089
:1020AC00000000000000617263686165610000005F
:1020BC0000000000000000346D616A42696F4D6FD2
:1020CC006C3A4E6374642C00416D6E41632F6661F3
:1020DC007441632F536772000061746F6D3A636FC4
:1020EC0076616C656E74426E64006D6F6C3A4E6F07
:1020FC006E2D636F76496E74000000696F6E6963B4
:10210C002F687964726F67656E00000076616E44AB
:0E211C006572572C687964726F70686F0000EE
:00000001FF
