:100000000C9434000C9451000C9451000C94510049
:100010000C9451000C9451000C9451000C9451001C
:100020000C9451000C9451000C9451000C9451000C
:100030000C9451000C9451000C9451000C945100FC
:100040000C9451000C9451000C9451000C945100EC
:100050000C9451000C9451000C9451000C945100DC
:100060000C9451000C94510011241FBECFEFD8E026
:10007000DEBFCDBF12E0A0E0B1E0EAECFFE302C0DA
:1000800005900D92A635B107D9F712E0A6E5B2E0CA
:1000900001C01D92AB39B107E1F70E942F0B0C9400
:1000A000E31F0C940000DF93CF9300D0CDB7DEB7F1
:1000B0008A83A5E2B0E0E5E2F0E080818D7F8C9359
:1000C0008A818F710E94BF098FEF0E94BF098983C7
:1000D000A5E2B0E0E5E2F0E0808182608C93898166
:1000E0000F900F90CF91DF9108950F931F93DF939F
:1000F000CF9300D000D00F92CDB7DEB78A837C8338
:100100006B834D831982A5E2B0E0E5E2F0E08081E7
:100110008D7F8C938A818F710E94BF09198210C0D4
:100120008981282F30E08B819C818C01020F131F65
:100130008FEF0E94BF09F801808389818F5F8983D7
:1001400099818D81981760F3A5E2B0E0E5E2F0E0D7
:10015000808182608C930F900F900F900F900F9082
:10016000CF91DF911F910F910895DF93CF9300D02E
:10017000CDB7DEB789836A83A5E2B0E0E5E2F0E0BF
:1001800080818D7F8C9389818F7180620E94BF09ED
:100190008A810E94BF09A5E2B0E0E5E2F0E080813B
:1001A00082608C930F900F90CF91DF910895DF9331
:1001B000CF9300D000D00F92CDB7DEB78A837C8377
:1001C0006B834D831982A5E2B0E0E5E2F0E0808127
:1001D0008D7F8C938A818F7180620E94BF09198202
:1001E0000EC08981282F30E08B819C81FC01E20FB9
:1001F000F31F80810E94BF0989818F5F8983998164
:100200008D81981770F3A5E2B0E0E5E2F0E080811F
:1002100082608C930F900F900F900F900F90CF9162
:10022000DF910895DF93CF9300D000D00F92CDB728
:10023000DEB79B838A837D836C83198219821DC0FC
:100240008981282F30E08C819D81AC01420F531FA2
:100250008981282F30E084E090E0821B930B9C0181
:100260008A819B81280F391FCA01B90141E050E002
:100270000E94F41C89818F5F89838981853000F316
:100280000F900F900F900F900F90CF91DF910895E6
:10029000DF93CF93CDB7DEB72D970FB6F894DEBFBF
:1002A0000FBECDBF8B877D876C878B858823D1F46C
:1002B00080E091E02C853D85B90145E050E00E9449
:1002C000F41C8C859D859E012F5F3F4FB9010E94D4
:1002D00012018AE09E012F5F3F4FB90145E00E9465
:1002E000D70074C08B858130D1F485E091E02C85F6
:1002F0003D85B90145E050E00E94F41C8C859D8548
:100300009E012A5F3F4FB9010E9412019E012A5FA0
:100310003F4F8BE0B90145E00E94D70057C08B8565
:10032000823099F48AE091E02C853D85B90145E061
:1003300050E00E94F41C8C859D85FC0134969081D0
:100340008CE0692F0E94B50041C08B85833099F401
:100350008FE091E02C853D85B90145E050E00E9499
:10036000F41C8C859D85FC01349690818DE0692F6D
:100370000E94B5002BC08B85843099F484E191E014
:100380002C853D85B90145E050E00E94F41C8C8528
:100390009D85FC01349690818EE0692F0E94B50006
:1003A00015C08B85853091F489E191E02C853D85E0
:1003B000B90145E050E00E94F41C8C859D85FC014C
:1003C000349690818FE0692F0E94B5002D960FB66C
:1003D000F894DEBF0FBECDBFCF91DF910895DF93BC
:1003E000CF93CDB7DEB727970FB6F894DEBF0FBE19
:1003F000CDBF9F838E838EE191E02E813F81B90135
:1004000045E050E00E94F41C8E819F819E012F5F89
:100410003F4FB9010E9412018AE09E012F5F3F4FBA
:10042000B90145E00E94D70080E19E012F5F3F4F58
:10043000B90145E00E94D70027960FB6F894DEBFB9
:100440000FBECDBFCF91DF910895DF93CF93CDB78E
:10045000DEB7A5E2B0E0E5E2F0E080818D7F8C932D
:1004600082EE0E94BF09A5E2B0E0E5E2F0E0808103
:1004700082608C93CF91DF910895DF93CF93CDB7B6
:10048000DEB7A5E2B0E0E5E2F0E080818D7F8C93FD
:1004900081EE0E94BF09A5E2B0E0E5E2F0E08081D4
:1004A00082608C93CF91DF910895DF93CF93CDB786
:1004B000DEB768970FB6F894DEBF0FBECDBF20E061
:1004C00031E080E0B9010E94480180E00E945300C1
:1004D000982F916080E0692F0E94B50080E00E9413
:1004E0005300982F926080E0692F0E94B50087E04A
:1004F00060E70E94B5000E9425020E943D02A5E22D
:10050000B0E0E5E2F0E0808181608C9380E090E0F3
:10051000A6E1B3E48D8B9E8BAF8BB88F6D897E89FE
:100520008F89988D2BEA3AEA4AE250E40E948118BA
:10053000DC01CB01898B9A8BAB8BBC8B69897A8967
:100540008B899C8920E030E040E85FE30E94871AB5
:1005500088231CF481E0888B91C069897A898B8912
:100560009C8920E030E04FE753E40E94271A1816D8
:100570000CF07BC06D897E898F89988D20E030E0FA
:100580004AE754E40E947B19DC01CB018C879D87EC
:10059000AE87BF876C857D858E859F8520E030E0A6
:1005A0004AEF54E40E948118DC01CB0188879987C7
:1005B000AA87BB87688579858A859B8520E030E09E
:1005C00040E85FE30E94871A88232CF481E090E0E2
:1005D0009F838E833FC0688579858A859B8520E0CF
:1005E0003FEF4FE757E40E94271A18164CF56C8529
:1005F0007D858E859F8520E030E040E251E40E94B9
:100600008118DC01CB01BC01CD010E94AB16DC01DD
:10061000CB019F838E830FC088EC90E09D838C83F9
:100620008C819D810197F1F79D838C838E819F81C1
:1006300001979F838E838E819F81009769F724C0E5
:10064000688579858A859B850E94AB16DC01CB0184
:100650009F838E838E819F819B838A838A819B81E6
:100660000197F1F79B838A830FC069897A898B8907
:100670009C890E94AB16DC01CB01888B8889898319
:1006800089818A95F1F7898368960FB6F894DEBF61
:100690000FBECDBFCF91DF910895DF93CF93CDB73C
:1006A000DEB768970FB6F894DEBF0FBECDBFA5E2E8
:1006B000B0E0E5E2F0E080818E7F8C9380E00E94E4
:1006C0005300982F9E7F80E0692F0E94B50080E044
:1006D0000E945300982F926080E0692F0E94B5001D
:1006E00087E060E70E94B5000E943D0280E090E054
:1006F000A6E1B3E48D8B9E8BAF8BB88F6D897E891D
:100700008F89988D2BEA3AEA4AE250E40E948118D8
:10071000DC01CB01898B9A8BAB8BBC8B69897A8985
:100720008B899C8920E030E040E85FE30E94871AD3
:1007300088231CF481E0888B91C069897A898B8930
:100740009C8920E030E04FE753E40E94271A1816F6
:100750000CF07BC06D897E898F89988D20E030E018
:100760004AE754E40E947B19DC01CB018C879D870A
:10077000AE87BF876C857D858E859F8520E030E0C4
:100780004AEF54E40E948118DC01CB0188879987E5
:10079000AA87BB87688579858A859B8520E030E0BC
:1007A00040E85FE30E94871A88232CF481E090E000
:1007B0009F838E833FC0688579858A859B8520E0ED
:1007C0003FEF4FE757E40E94271A18164CF56C8547
:1007D0007D858E859F8520E030E040E251E40E94D7
:1007E0008118DC01CB01BC01CD010E94AB16DC01FC
:1007F000CB019F838E830FC088EC90E09D838C8318
:100800008C819D810197F1F79D838C838E819F81DF
:1008100001979F838E838E819F81009769F724C003
:10082000688579858A859B850E94AB16DC01CB01A2
:100830009F838E838E819F819B838A838A819B8104
:100840000197F1F79B838A830FC069897A898B8925
:100850009C890E94AB16DC01CB01888B8889898337
:1008600089818A95F1F7898368960FB6F894DEBF7F
:100870000FBECDBFCF91DF910895DF93CF93CDB75A
:10088000DEB7C856D0400FB6F894DEBF0FBECDBF5E
:10089000FE01EB59FF4F91838083FE01E959FF4F21
:1008A00071836083FE01EB59FF4F83E291E0019079
:1008B000F081E02D09950E948505282F30E000D0B9
:1008C00000D000D0EDB7FEB73196CE0101969183EE
:1008D00080838AE291E093838283358324830E941C
:1008E0001E1D8DB79EB706960FB6F8949EBF0FBE1D
:1008F0008DBFFE01EB59FF4F0190F081E02DCE013D
:100900000196099580E00E945300282F30E000D026
:1009100000D000D0EDB7FEB73196CE01019691839D
:10092000808389E391E093838283358324830E94CB
:100930001E1D8DB79EB706960FB6F8949EBF0FBECC
:100940008DBFFE01EB59FF4F0190F081E02DCE01EC
:100950000196099585E00E945300282F30E000D0D1
:1009600000D000D0EDB7FEB73196CE01019691834D
:10097000808388E491E093838283358324830E947B
:100980001E1D8DB79EB706960FB6F8949EBF0FBE7C
:100990008DBFFE01EB59FF4F0190F081E02DCE019C
:1009A0000196099586E00E945300282F30E000D080
:1009B00000D000D0EDB7FEB73196CE0101969183FD
:1009C000808386E591E093838283358324830E942C
:1009D0001E1D8DB79EB706960FB6F8949EBF0FBE2C
:1009E0008DBFFE01EB59FF4F0190F081E02DCE014C
:1009F0000196099581E00E945300282F30E000D035
:100A000000D000D0EDB7FEB73196CE0101969183AC
:100A1000808387E691E093838283358324830E94D9
:100A20001E1D8DB79EB706960FB6F8949EBF0FBEDB
:100A30008DBFFE01EB59FF4F0190F081E02DCE01FB
:100A40000196099582E00E945300282F30E000D0E3
:100A500000D000D0EDB7FEB73196CE01019691835C
:100A6000808385E791E093838283358324830E948A
:100A70001E1D8DB79EB706960FB6F8949EBF0FBE8B
:100A80008DBFFE01EB59FF4F0190F081E02DCE01AB
:100A90000196099588E00E945300282F30E000D08D
:100AA00000D000D0EDB7FEB73196CE01019691830C
:100AB000808387E891E093838283358324830E9437
:100AC0001E1D8DB79EB706960FB6F8949EBF0FBE3B
:100AD0008DBFFE01EB59FF4F0190F081E02DCE015B
:100AE00001960995FE01EB59FF4F8AE991E00190CB
:100AF000F081E02D0995C859DF4F0FB6F894DEBF9D
:100B00000FBECDBFCF91DF910895DF93CF930F92AA
:100B1000CDB7DEB71982A5E2B0E0E5E2F0E0808172
:100B20008D7F8C938FEF0E94BF098983A5E2B0E08F
:100B3000E5E2F0E0808182608C9389810F90CF9113
:100B4000DF910895DF93CF9300D000D0CDB7DEB70B
:100B50009C838B830E9485058A838A818074898324
:100B60008981882351F08B819C81009731F08A81A3
:100B700086958770EB81FC81808389810F900F902F
:100B80000F900F90CF91DF9108950F931F93DF93F4
:100B9000CF9300D00F92CDB7DEB79B838A831982A3
:100BA000A5E2B0E0E5E2F0E080818D7F8C9381E604
:100BB0000E94BF09198210C08981282F30E08A81E4
:100BC0009B818C01020F131F8FEF0E94BF09F80158
:100BD000808389818F5F89838981803168F3A5E271
:100BE000B0E0E5E2F0E0808182608C9387E060E431
:100BF0000E94B5000E948505882F90E08072907059
:100C0000009721F087E060E20E94B5000F900F90FE
:100C10000F90CF91DF911F910F910895DF93CF93A4
:100C2000CDB7DEB7E4970FB6F894DEBF0FBECDBFE9
:100C30009CAB8BAB1AAA19AA0E944D03A5E2B0E0A7
:100C4000E5E2F0E080818D7F8C9380EA0E94BF090D
:100C50001AAA0EC08AA9282F30E08BA99CA9FC01F2
:100C6000E20FF31F80810E94BF098AA98F5F8AABC0
:100C70008AA9803178F3A5E2B0E0E5E2F0E0808176
:100C800082608C93A5E2B0E0E5E2F0E080818160D3
:100C90008C9380E090E0A0E7B1E48DA79EA7AFA77A
:100CA000B8AB6DA57EA58FA598A92BEA3AEA4AE2D2
:100CB00050E40E948118DC01CB0189A79AA7ABA759
:100CC000BCA769A57AA58BA59CA520E030E040E8EB
:100CD0005FE30E94871A88231CF481E088A791C0F3
:100CE00069A57AA58BA59CA520E030E04FE753E4E9
:100CF0000E94271A18160CF07BC06DA57EA58FA543
:100D000098A920E030E04AE754E40E947B19DC0116
:100D1000CB018CA39DA3AEA3BFA36CA17DA18EA18B
:100D20009FA120E030E04AEF54E40E948118DC01EA
:100D3000CB0188A399A3AAA3BBA368A179A18AA187
:100D40009BA120E030E040E85FE30E94871A8823FF
:100D50002CF481E090E09F8F8E8F3FC068A179A135
:100D60008AA19BA120E03FEF4FE757E40E94271A9A
:100D700018164CF56CA17DA18EA19FA120E030E05A
:100D800040E251E40E948118DC01CB01BC01CD019D
:100D90000E94AB16DC01CB019F8F8E8F0FC088ECB9
:100DA00090E09D8F8C8F8C8D9D8D0197F1F79D8F9D
:100DB0008C8F8E8D9F8D01979F8F8E8F8E8D9F8DA7
:100DC000009769F724C068A179A18AA19BA10E941C
:100DD000AB16DC01CB019F8F8E8F8E8D9F8D9B8FED
:100DE0008A8F8A8D9B8D0197F1F79B8F8A8F0FC019
:100DF00069A57AA58BA59CA50E94AB16DC01CB0149
:100E000088A788A5898F898D8A95F1F7898FA5E2B2
:100E1000B0E0E5E2F0E080818E7F8C9380E090E0AE
:100E2000A0E2B1E48D8B9E8BAF8BB88F6D897E89EC
:100E30008F89988D2BEA3AEA4AE250E40E948118A1
:100E4000DC01CB01898B9A8BAB8BBC8B69897A894E
:100E50008B899C8920E030E040E85FE30E94871A9C
:100E600088231CF481E0888B91C069897A898B89F9
:100E70009C8920E030E04FE753E40E94271A1816BF
:100E80000CF07BC06D897E898F89988D20E030E0E1
:100E90004AE754E40E947B19DC01CB018C879D87D3
:100EA000AE87BF876C857D858E859F8520E030E08D
:100EB0004AEF54E40E948118DC01CB0188879987AE
:100EC000AA87BB87688579858A859B8520E030E085
:100ED00040E85FE30E94871A88232CF481E090E0C9
:100EE0009F838E833FC0688579858A859B8520E0B6
:100EF0003FEF4FE757E40E94271A18164CF56C8510
:100F00007D858E859F8520E030E040E251E40E949F
:100F10008118DC01CB01BC01CD010E94AB16DC01C4
:100F2000CB019F838E830FC088EC90E09D838C83E0
:100F30008C819D810197F1F79D838C838E819F81A8
:100F400001979F838E838E819F81009769F724C0CC
:100F5000688579858A859B850E94AB16DC01CB016B
:100F60009F838E838E819F819B838A838A819B81CD
:100F70000197F1F79B838A830FC069897A898B89EE
:100F80009C890E94AB16DC01CB01888B8889898300
:100F900089818A95F1F789830E948505882F90E0E1
:100FA00080739070009709F439CF0E948505882FCF
:100FB00090E080729070009711F081E089AB85E03D
:100FC0006CE40E94B50080E00E945300982F9D7F42
:100FD00080E0692F0E94B5000E94550289A9E4961D
:100FE0000FB6F894DEBF0FBECDBFCF91DF9108954D
:100FF000DF93CF930F92CDB7DEB786E00E94530008
:1010000089838981897F898389818660898386E054
:1010100069810E94B5000F90CF91DF910895DF9311
:10102000CF930F92CDB7DEB786E00E94530089833D
:101030008981877D898386E069810E94B5000F9050
:10104000CF91DF910895DF93CF930F92CDB7DEB7A5
:1010500080E00E945300837F89838981886089832F
:1010600089818460898380E069810E94B5000F9046
:10107000CF91DF910895DF93CF93CDB7DEB72E9751
:101080000FB6F894DEBF0FBECDBFA4E2B0E0E4E23D
:10109000F0E0808182608C93A4E2B0E0E4E2F0E0D2
:1010A000808181608C930E94A209A5E2B0E0E5E214
:1010B000F0E080818E7F8C93A5E2B0E0E5E2F0E085
:1010C000808182608C9380E090E0A0EAB0E48B871E
:1010D0009C87AD87BE876B857C858D859E8520E04E
:1010E00030E04AEF54E40E948118DC01CB018F8389
:1010F0009887A987BA876F81788589859A8520E046
:1011000030E040E85FE30E94871A88232CF481E0F6
:1011100090E09E838D833FC06F81788589859A8515
:1011200020E03FEF4FE757E40E94271A18164CF5CE
:101130006B857C858D859E8520E030E040E251E422
:101140000E948118DC01CB01BC01CD010E94AB16CD
:10115000DC01CB019E838D830FC088EC90E09C83E3
:101160008B838B819C810197F1F79C838B838D818D
:101170009E8101979E838D838D819E81009769F763
:1011800014C06F81788589859A850E94AB16DC0131
:10119000CB019E838D838D819E819A8389838981F2
:1011A0009A810197F1F79A8389830E94F8070E9438
:1011B0000F080E94230884E067E40E94B5008CE1D8
:1011C00060E00E94B50085E06CE40E94B50081E11A
:1011D00060E10E94B50082E160E10E94B50083E118
:1011E00060E10E94B50084E160E10E94B50085E104
:1011F00060E10E94B50086E160E10E94B50082E0F6
:1012000060E00E94B50082E00E945300982F916038
:1012100082E0692F0E94B50082E00E945300982F5F
:10122000926082E0692F0E94B50082E00E94530024
:10123000982F946082E0692F0E94B50082E00E949E
:101240005300982F986082E0692F0E94B50082E0D9
:101250000E945300982F906182E0692F0E94B50090
:1012600082E00E945300982F906282E0692F0E94D2
:10127000B50081E00E945300982F916081E0692FB2
:101280000E94B50081E00E945300982F926081E097
:10129000692F0E94B50081E00E945300982F94604E
:1012A00081E0692F0E94B50081E00E945300982FD1
:1012B000986081E0692F0E94B50081E00E94530090
:1012C000982F906181E0692F0E94B50081E00E9413
:1012D0005300982F906281E0692F0E94B50020E0B2
:1012E00031E080E0B9010E94480125E031E081E071
:1012F000B9010E9448012AE031E082E0B9010E9470
:1013000048012FE031E083E0B9010E94480124E167
:1013100031E084E0B9010E94480129E131E085E033
:10132000B9010E9448018EE191E00E94EF010E9404
:1013300055022E960FB6F894DEBF0FBECDBFCF91EB
:10134000DF910895DF93CF93CDB7DEB7A4E2B0E08D
:10135000E4E2F0E08081837C8C93A4E2B0E0E4E2FC
:10136000F0E080818C628C93ECE4F0E081E5808396
:10137000EDE4F0E081E08083CF91DF910895DF9389
:10138000CF930F92CDB7DEB78983EEE4F0E0898189
:101390008083EDE4F0E080818823DCF7EEE4F0E088
:1013A00080810F90CF91DF9108951F920F920FB619
:1013B0000F9211248F939F93EF93FF93DF93CF931B
:1013C00000D000D0CDB7DEB7E0ECF0E080818A83BA
:1013D000E6ECF0E080818B838A818871898380913B
:1013E00098028F5F8F718C83909199028C818917FD
:1013F00019F482E089830BC08C81809398028C81E0
:10140000882F90E0FC01EA58FD4F8B818083898111
:1014100080939A020F900F900F900F90CF91DF91D1
:10142000FF91EF919F918F910F900FBE0F901F90A2
:1014300018951F920F920FB60F9211248F939F93BE
:10144000AF93BF93EF93FF93DF93CF930F92CDB7FB
:10145000DEB79091960280919702981799F080914B
:1014600097028F5F8F718983898180939702A6ECA1
:10147000B0E08981882F90E0FC01EA5AFD4F80811D
:101480008C9307C0A1ECB0E0E1ECF0E080818F7DAF
:101490008C930F90CF91DF91FF91EF91BF91AF911E
:1014A0009F918F910F900FBE0F901F901895DF9313
:1014B000CF9300D0CDB7DEB79A838983109296027E
:1014C00010929702109298021092990289819A8143
:1014D00099234CF4E0ECF0E082E0808389819A81EA
:1014E0009F779A838983E5ECF0E089819A81892F3F
:1014F00099278083E4ECF0E089818083E1ECF0E0DF
:1015000088E98083E2ECF0E086E080830F900F9022
:10151000CF91DF910895DF93CF9300D000D0CDB766
:10152000DEB79091980280919902981729F480E093
:1015300091E09C838B831DC0809199028F5F8F7196
:101540008A838A81809399028A81882F90E0FC01A6
:10155000EA58FD4F8081898380919A02882F90E01C
:10156000382F22278981882F90E0820F931F9C8338
:101570008B838B819C810F900F900F900F90CF9158
:10158000DF910895DF93CF9300D0CDB7DEB78A8384
:10159000809196028F5F8F718983909197028981E4
:1015A0008917D9F38981882F90E0FC01EA5AFD4F11
:1015B0008A818083898180939602A1ECB0E0E1EC7E
:1015C000F0E0808180628C930F900F90CF91DF913B
:1015D0000895DF93CF9300D0CDB7DEB79A83898388
:1015E0000CC0E981FA818081282F89819A81019636
:1015F0009A838983822F0E94C20AE981FA818081BD
:10160000882379F70F900F90CF91DF910895DF93A2
:10161000CF9300D000D000D0CDB7DEB79D838C83B0
:1016200003C08E810E94C20A8C819D819B838A8324
:101630008C819D8101969D838C83EA81FB818491BD
:10164000898389818E838E81882359F726960FB6E8
:10165000F894DEBF0FBECDBFCF91DF9108950F93F9
:101660001F93DF93CF93CDB7DEB7C451D1400FB6F0
:10167000F894DEBF0FBECDBFFE01E355FF4F1082D1
:10168000FE01E455FF4F1082A7E2B0E0E7E2F0E090
:1016900080818E7F8C93A8E2B0E0E8E2F0E0808168
:1016A0008F7D8C93A7E2B0E0E7E2F0E080818D7F50
:1016B0008C93A8E2B0E0E8E2F0E080818F7D8C932B
:1016C000A7E2B0E0E7E2F0E0808180628C93A8E2DC
:1016D000B0E0E8E2F0E080818F7D8C938FEC90E0C9
:1016E0000E94570A0E943B087894E6E2F0E080816D
:1016F000882F90E081709070009729F4FE01E355E7
:10170000FF4F108205C0FE01E355FF4F81E080834B
:10171000FE01E355FF4F8081813009F076C1A8E2D8
:10172000B0E0E8E2F0E0808180628C93FE01EB554E
:10173000FF4F80E090E0A6E9B3E480839183A28329
:10174000B3838E010F551F4FFE01EB55FF4F608194
:1017500071818281938120E030E04AEF54E40E945D
:101760008118DC01CB01F80180839183A283B383CC
:10177000FE01EF55FF4F608171818281938120E0EE
:1017800030E040E85FE30E94871A882344F4FE01BA
:10179000E156FF4F81E090E09183808364C0FE01B9
:1017A000EF55FF4F608171818281938120E03FEF8F
:1017B0004FE757E40E94271A18160CF043C0FE01A9
:1017C000EB55FF4F608171818281938120E030E091
:1017D00040E251E40E948118DC01CB018E010156E8
:1017E0001F4FBC01CD010E94AB16DC01CB01F801FB
:1017F000918380831FC0FE01E356FF4F88EC90E089
:1018000091838083FE01E356FF4F80819181019790
:10181000F1F7FE01E356FF4F91838083DE01A1566D
:10182000BF4FFE01E156FF4F8081918101971196D4
:101830009C938E93FE01E156FF4F8081918100972A
:10184000D1F627C08E0101561F4FFE01EF55FF4F05
:1018500060817181828193810E94AB16DC01CB0192
:10186000F80191838083DE01A556BF4FFE01E1564A
:10187000FF4F808191818D939C93FE01E556FF4F30
:10188000808191810197F1F7FE01E556FF4F918329
:101890008083A8E2B0E0E8E2F0E080818F7D8C9365
:1018A000FE01E956FF4F80E090E0A6E9B3E48083B3
:1018B0009183A283B3838E010D561F4FFE01E9561B
:1018C000FF4F608171818281938120E030E04AEF97
:1018D00054E40E948118DC01CB01F80180839183DC
:1018E000A283B383FE01ED56FF4F60817181828137
:1018F000938120E030E040E85FE30E94871A88236C
:1019000044F4FE01EF56FF4F81E090E09183808325
:1019100064C0FE01ED56FF4F608171818281938129
:1019200020E03FEF4FE757E40E94271A18160CF00B
:1019300043C0FE01E956FF4F60817181828193812E
:1019400020E030E040E251E40E948118DC01CB014C
:101950008E010F561F4FBC01CD010E94AB16DC015A
:10196000CB01F801918380831FC0FE01E157FF4F37
:1019700088EC90E091838083FE01E157FF4F8081E6
:1019800091810197F1F7FE01E157FF4F9183808329
:10199000DE01AF56BF4FFE01EF56FF4F80819181B0
:1019A000019711969C938E93FE01EF56FF4F808115
:1019B00091810097D1F619C38E010F561F4FFE017A
:1019C000ED56FF4F60817181828193810E94AB1639
:1019D000DC01CB01F80191838083DE01A357BF4F67
:1019E000FE01EF56FF4F8081918111969C938E935B
:1019F000FE01E357FF4F808191810197F1F7FE01CE
:101A0000E357FF4F91838083F0C2FE01E355FF4F00
:101A10008081882309F0E9C2A8E2B0E0E8E2F0E0C2
:101A2000808180628C93FE01E757FF4F80E090E059
:101A3000A6E9B3E480839183A283B3838E010B571D
:101A40001F4FFE01E757FF4F6081718182819381B3
:101A500020E030E04AEF54E40E948118DC01CB0121
:101A6000F80180839183A283B383FE01EB57FF4F7C
:101A7000608171818281938120E030E040E85FE302
:101A80000E94871A882344F4FE01ED57FF4F81E03E
:101A900090E09183808364C0FE01EB57FF4F60812B
:101AA00071818281938120E03FEF4FE757E40E94EC
:101AB000271A18160CF043C0FE01E757FF4F60814C
:101AC00071818281938120E030E040E251E40E9404
:101AD0008118DC01CB018E010D571F4FBC01CD01D8
:101AE0000E94AB16DC01CB01F801918380831FC0FB
:101AF000FE01EF57FF4F88EC90E091838083FE0159
:101B0000EF57FF4F808191810197F1F7FE01EF5769
:101B1000FF4F91838083DE01AD57BF4FFE01ED572C
:101B2000FF4F80819181019711969C938E93FE01C6
:101B3000ED57FF4F808191810097D1F627C08E012C
:101B40000D571F4FFE01EB57FF4F6081718182815E
:101B500093810E94AB16DC01CB01F8019183808355
:101B6000DE01A158BF4FFE01ED57FF4F80819181EB
:101B70008D939C93FE01E158FF4F808191810197E5
:101B8000F1F7FE01E158FF4F91838083A8E2B0E0B6
:101B9000E8E2F0E080818F7D8C93FE01E558FF4FF5
:101BA00080E090E0A6E9B3E480839183A283B383CD
:101BB0008E0109581F4FFE01E558FF4F608171816A
:101BC0008281938120E030E04AEF54E40E94811842
:101BD000DC01CB01F80180839183A283B383FE01F2
:101BE000E958FF4F608171818281938120E030E06C
:101BF00040E85FE30E94871A882344F4FE01EB5813
:101C0000FF4F81E090E09183808364C0FE01E9583A
:101C1000FF4F608171818281938120E03FEF4FE728
:101C200057E40E94271A18160CF043C0FE01E5582D
:101C3000FF4F608171818281938120E030E040E23A
:101C400051E40E948118DC01CB018E010B581F4F1B
:101C5000BC01CD010E94AB16DC01CB01F8019183E0
:101C600080831FC0FE01ED58FF4F88EC90E0918308
:101C70008083FE01ED58FF4F808191810197F1F73C
:101C8000FE01ED58FF4F91838083DE01AB58BF4FBB
:101C9000FE01EB58FF4F80819181019711969C9333
:101CA0008E93FE01EB58FF4F808191810097D1F612
:101CB00027C08E010B581F4FFE01E958FF4F60816E
:101CC0007181828193810E94AB16DC01CB01F80106
:101CD00091838083DE01AF58BF4FFE01EB58FF4F69
:101CE000808191818D939C93FE01EF58FF4F8081FD
:101CF00091810197F1F7FE01EF58FF4F91838083A7
:101D0000A8E2B0E0E8E2F0E0808180628C93FE011E
:101D1000E359FF4F80E090E0A6E9B3E4808391832C
:101D2000A283B3838E0107591F4FFE01E359FF4F72
:101D3000608171818281938120E030E04AEF54E438
:101D40000E948118DC01CB01F80180839183A2837A
:101D5000B383FE01E759FF4F6081718182819381D6
:101D600020E030E040E85FE30E94871A882344F4D3
:101D7000FE01E959FF4F81E090E09183808364C0C8
:101D8000FE01E759FF4F608171818281938120E0DC
:101D90003FEF4FE757E40E94271A18160CF043C094
:101DA000FE01E359FF4F608171818281938120E0C0
:101DB00030E040E251E40E948118DC01CB018E0149
:101DC00009591F4FBC01CD010E94AB16DC01CB01AC
:101DD000F801918380831FC0FE01EB59FF4F88EC0F
:101DE00090E091838083FE01EB59FF4F80819181C8
:101DF0000197F1F7FE01EB59FF4F91838083DE01DC
:101E0000A959BF4FFE01E959FF4F80819181019788
:101E100011969C938E93FE01E959FF4F8081918129
:101E20000097D1F627C08E0109591F4FFE01E759CF
:101E3000FF4F60817181828193810E94AB16DC012A
:101E4000CB01F80191838083DE01AD59BF4FFE01C4
:101E5000E959FF4F808191818D939C93FE01ED594B
:101E6000FF4F808191810197F1F7FE01ED59FF4FFE
:101E700091838083A8E2B0E0E8E2F0E080818F7D8A
:101E80008C93FE01E15AFF4F80E090E0A6E9B3E4B5
:101E900080839183A283B3838E01055A1F4FFE0175
:101EA000E15AFF4F608171818281938120E030E0AF
:101EB0004AEF54E40E948118DC01CB01F8018083D1
:101EC0009183A283B383FE01E55AFF4F6081718144
:101ED0008281938120E030E040E85FE30E94871A2E
:101EE000882344F4FE01E75AFF4F81E090E091839C
:101EF000808364C0FE01E55AFF4F60817181828159
:101F0000938120E03FEF4FE757E40E94271A18160D
:101F10000CF043C0FE01E15AFF4F60817181828164
:101F2000938120E030E040E251E40E948118DC011E
:101F3000CB018E01075A1F4FBC01CD010E94AB1689
:101F4000DC01CB01F801918380831FC0FE01E95AB7
:101F5000FF4F88EC90E091838083FE01E95AFF4FA8
:101F6000808191810197F1F7FE01E95AFF4F91833A
:101F70008083DE01A75ABF4FFE01E75AFF4F8081E1
:101F80009181019711969C938E93FE01E75AFF4F22
:101F9000808191810097D1F628C08E01075A1F4F8A
:101FA000FE01E55AFF4F60817181828193810E9419
:101FB000AB16DC01CB01F80191838083DE01AB5AC3
:101FC000BF4FFE01E75AFF4F8081918111969C938C
:101FD0008E93FE01EB5AFF4F808191810197F1F7BB
:101FE000FE01EB5AFF4F91838083FE01E355FF4FC3
:101FF0008081813029F48BEB91E00E94E90A0AC0CC
:10200000FE01E355FF4F8081882321F48FEC91E09E
:102010000E94E90AFE01E455FF4F10821CC0FE0138
:10202000E455FF4F8081282F30E0FE01E455FF4F3B
:102030008081482F4F59CE0182559F4FFC01E20FFE
:10204000F31F4083DE01A455BF4FFE01E455FF4F4F
:1020500080818F5F8C93FE01E455FF4F808180313A
:10206000F0F2FE01E455FF4F108216C0FE01E45568
:10207000FF4F8081282F30E0CE0182549F4FFC011A
:10208000E20FF31F1082DE01A455BF4FFE01E4559D
:10209000FF4F80818F5F8C93FE01E455FF4F80815D
:1020A000803120F3FE01E555FF4F1082CE018253AF
:1020B0009F4FC950DF4F99838883C75FD04086EB1D
:1020C00091E0C750DF4F99838883C95FD04095E086
:1020D000C550DF4F9883CB5FD040C750DF4FE881BA
:1020E000F981C95FD0400080C750DF4F8881998156
:1020F000C95FD0400196C750DF4F99838883C95F7D
:10210000D040C950DF4FE881F981C75FD0400082DD
:10211000C950DF4F88819981C75FD0400196C9506F
:10212000DF4F99838883C75FD040C550DF4F9881C8
:10213000CB5FD0409150C550DF4F9883CB5FD040EC
:10214000C550DF4FE881CB5FD040EE2331F6CE01A2
:102150008D529F4FC450DF4F99838883CC5FD0400E
:1021600081EB91E0C250DF4F99838883CE5FD040EE
:1021700095E0C050DF4F9883C050D140C250DF4F30
:10218000E881F981CE5FD0400080C250DF4F888166
:102190009981CE5FD0400196C250DF4F99838883EA
:1021A000CE5FD040C450DF4FE881F981CC5FD04092
:1021B0000082C450DF4F88819981CC5FD040019666
:1021C000C450DF4F99838883CC5FD040C050DF4F2D
:1021D0009881C050D1409150C050DF4F9883C0507B
:1021E000D140C050DF4FE881C050D140EE2331F6DE
:1021F000CE0188529F4FCF5FDE4F99838883C150B5
:10220000D1408CEA91E0CD5FDE4F99838883C35043
:10221000D14095E0CB5FDE4F9883C550D140CD5F74
:10222000DE4FE881F981C350D1400080CD5FDE4FA1
:1022300088819981C350D1400196CD5FDE4F99834B
:102240008883C350D140CF5FDE4FE881F981C15010
:10225000D1400082CF5FDE4F88819981C150D1404B
:102260000196CF5FDE4F99838883C150D140CB5F09
:10227000DE4F9881C550D1409150CB5FDE4F98839F
:10228000C550D140CB5FDE4FE881C550D140EE2331
:1022900031F6CE0183529F4FCA5FDE4F9983888308
:1022A000C650D14087EA91E0C85FDE4F99838883AA
:1022B000C850D14095E0C65FDE4F9883CA50D140E8
:1022C000C85FDE4FE881F981C850D1400080C85F07
:1022D000DE4F88819981C850D1400196C85FDE4F9A
:1022E00099838883C850D140CA5FDE4FE881F98165
:1022F000C650D1400082CA5FDE4F88819981C650A6
:10230000D1400196CA5FDE4F99838883C650D14081
:10231000C65FDE4F9881CA50D1409150C65FDE4FF4
:102320009883CA50D140C65FDE4FE881CA50D14081
:10233000EE2331F6CE018E519F4FC55FDE4F99835C
:102340008883CB50D14082EA91E0C35FDE4F99830E
:102350008883CD50D14095E0C15FDE4F9883CF5048
:10236000D140C35FDE4FE881F981CD50D14000807C
:10237000C35FDE4F88819981CD50D1400196C35F04
:10238000DE4F99838883CD50D140C55FDE4FE88111
:10239000F981CB50D1400082C55FDE4F88819981A1
:1023A000CB50D1400196C55FDE4F99838883CB50D7
:1023B000D140C15FDE4F9881CF50D1409150C15F75
:1023C000DE4F9883CF50D140C15FDE4FE881CF50C0
:1023D000D140EE2331F6CE0189519F4FC05FDE4FD1
:1023E00099838883C051D1408DE991E0CE5EDE4F64
:1023F00099838883C251D14095E0CC5EDE4F9883AB
:10240000C451D140CE5EDE4FE881F981C251D14046
:102410000080CE5EDE4F88819981C251D140019605
:10242000CE5EDE4F99838883C251D140C05FDE4FBC
:10243000E881F981C051D1400082C05FDE4F8881C0
:102440009981C051D1400196C05FDE4F9983888346
:10245000C051D140CC5EDE4F9881C451D1409150E3
:10246000CC5EDE4F9883C451D140CC5EDE4FE88114
:10247000C451D140EE2331F689EE9AE022EC3AE0E5
:10248000B9010E943D04FE01E355FF4F8081813078
:1024900009F049C283EE91E00E94E90AFE01E55588
:1024A000FF4F8081882F90E09E0124513F4FB9015A
:1024B0004AE050E00E94FD1CCE0184519F4F0E94D3
:1024C000E90A8AEF91E00E94E90AFE01E555FF4F13
:1024D0008081882331F4CE0182539F4F0E94EF0107
:1024E0003BC0FE01E555FF4F8081813031F4CE01C4
:1024F0008D529F4F0E94EF012FC0FE01E555FF4F07
:102500008081823031F4CE0188529F4F0E94EF01CA
:1025100023C0FE01E555FF4F8081833031F4CE01A9
:1025200083529F4F0E94EF0117C0FE01E555FF4FF8
:102530008081843031F4CE018E519F4F0E94EF0193
:102540000BC0FE01E555FF4F8081853029F4CE0197
:1025500089519F4F0E94EF01CE0182559F4F0E94EB
:102560000E06FE01E655FF4F8083FE01E655FF4F44
:102570008081813029F48FEF91E00E94E90A04C044
:1025800084E092E00E94E90ADE01A555BF4FFE01FA
:10259000E555FF4F80818F5F8C93DE01A555BF4FBE
:1025A000FE01E555FF4F808196E0692F0E94B11C26
:1025B000892F8C93A8E2B0E0E8E2F0E080818062AD
:1025C0008C93FE01EF5AFF4F80E090E0A6E9B3E460
:1025D00080839183A283B3838E01035B1F4FFE012F
:1025E000EF5AFF4F608171818281938120E030E05A
:1025F0004AEF54E40E948118DC01CB01F80180838A
:102600009183A283B383FE01E35BFF4F60817181FD
:102610008281938120E030E040E85FE30E94871AE6
:10262000882344F4FE01E55BFF4F81E090E0918355
:10263000808364C0FE01E35BFF4F60817181828112
:10264000938120E03FEF4FE757E40E94271A1816C6
:102650000CF043C0FE01EF5AFF4F6081718182810F
:10266000938120E030E040E251E40E948118DC01D7
:10267000CB018E01055B1F4FBC01CD010E94AB1643
:10268000DC01CB01F801918380831FC0FE01E75B71
:10269000FF4F88EC90E091838083FE01E75BFF4F62
:1026A000808191810197F1F7FE01E75BFF4F9183F4
:1026B0008083DE01A55BBF4FFE01E55BFF4F80819C
:1026C0009181019711969C938E93FE01E55BFF4FDC
:1026D000808191810097D1F627C08E01055B1F4F45
:1026E000FE01E35BFF4F60817181828193810E94D3
:1026F000AB16DC01CB01F80191838083DE01A95B7D
:10270000BF4FFE01E55BFF4F808191818D939C93CC
:10271000FE01E95BFF4F808191810197F1F7FE0196
:10272000E95BFF4F91838083A8E2B0E0E8E2F0E04C
:1027300080818F7D8C93FE01ED5BFF4F80E090E008
:10274000A6E9B3E480839183A283B3838E01015C05
:102750001F4FFE01ED5BFF4F60817181828193818C
:1027600020E030E04AEF54E40E948118DC01CB0104
:10277000F80180839183A283B383FE01FF96608179
:1027800071818281938120E030E040E85FE30E9424
:10279000871A88232CF481E090E09EAF8DAF46C06D
:1027A000FE01FF96608171818281938120E03FEF7D
:1027B0004FE757E40E94271A181664F5FE01ED5BF7
:1027C000FF4F608171818281938120E030E040E29F
:1027D00051E40E948118DC01CB01BC01CD010E94B3
:1027E000AB16DC01CB019EAF8DAF0FC088EC90E043
:1027F0009CAF8BAF8BAD9CAD0197F1F79CAF8BAFCE
:102800008DAD9EAD01979EAF8DAF8DAD9EAD009706
:1028100069F716C0FE01FF96608171818281938104
:102820000E94AB16DC01CB019EAF8DAF8DAD9EAD8E
:102830009AAF89AF89AD9AAD0197F1F79AAF89AF99
:1028400080E090E0AAE7B4E48DAB9EABAFABB8AF4D
:102850006DA97EA98FA998AD20E030E04AEF54E43D
:102860000E948118DC01CB0189AB9AABABABBCAB4E
:1028700069A97AA98BA99CA920E030E040E85FE330
:102880000E94871A88232CF481E090E098AB8FA7F0
:102890003FC069A97AA98BA99CA920E03FEF4FE727
:1028A00057E40E94271A18164CF56DA97EA98FA926
:1028B00098AD20E030E040E251E40E948118DC0154
:1028C000CB01BC01CD010E94AB16DC01CB0198AB62
:1028D0008FA70FC088EC90E09EA78DA78DA59EA521
:1028E0000197F1F79EA78DA78FA598A9019798AB9F
:1028F0008FA78FA598A9009769F7C5CD69A97AA96F
:102900008BA99CA90E94AB16DC01CB0198AB8FA7C9
:102910008FA598A99CA78BA78BA59CA50197F1F7DC
:102920009CA78BA7B0CDFE01E355FF4F8081882384
:1029300009F0A9CDFE01EF50FF4F1082CE018F505C
:102940009F4F0E94A205882309F492C18DE092E076
:102950000E94E90AFE01EF50FF4F8081882F90E02E
:102960009E012E503F4FB9014AE050E00E94FD1CED
:10297000CE018E509F4F0E94E90A84E292E00E94AD
:10298000E90ACE0182549F4F0E94C505FE01E7551A
:10299000FF4F81E0808387E292E00E94E90AFE0116
:1029A000E455FF4F108238C0FE01E455FF4F80818F
:1029B000282F30E0CE0182549F4FFC01E20FF31F1D
:1029C0004081FE01E455FF4F8081282F30E0CE0189
:1029D00082559F4FFC01E20FF31F8081481721F0C1
:1029E000FE01E755FF4F1082FE01E455FF4F808145
:1029F000282F30E0CE0182549F4FFC01E20FF31FDD
:102A000080810E94C20ADE01A455BF4FFE01E45539
:102A1000FF4F80818F5F8C93FE01E455FF4F8081D3
:102A2000803110F284E292E00E94E90AFE01E7554B
:102A3000FF4F8081882329F080E392E00E94E90A19
:102A400004C08DE392E00E94E90AFE01E455FF4FC5
:102A5000108216C0FE01E455FF4F8081282F30E020
:102A6000CE0182549F4FFC01E20FF31F1082DE0162
:102A7000A455BF4FFE01E455FF4F80818F5F8C93BB
:102A8000FE01E455FF4F8081803120F3A8E2B0E0E1
:102A9000E8E2F0E0808180628C9380E090E0A6E93B
:102AA000B3E48FA398A7A9A7BAA76FA178A589A512
:102AB0009AA520E030E04AEF54E40E948118DC013E
:102AC000CB018BA39CA3ADA3BEA36BA17CA18DA1C5
:102AD0009EA120E030E040E85FE30E94871A88234F
:102AE0002CF481E090E09AA389A33FC06BA17CA164
:102AF0008DA19EA120E03FEF4FE757E40E94271AE7
:102B000018164CF56FA178A589A59AA520E030E0AC
:102B100040E251E40E948118DC01CB01BC01CD01EF
:102B20000E94AB16DC01CB019AA389A30FC088ECED
:102B300090E098A38F8F8F8D98A10197F1F798A3BC
:102B40008F8F89A19AA101979AA389A389A19AA19C
:102B5000009769F714C06BA17CA18DA19EA10E9472
:102B6000AB16DC01CB019AA389A389A19AA19E8F00
:102B70008D8F8D8D9E8D0197F1F79E8F8D8FA8E2A1
:102B8000B0E0E8E2F0E080818F7D8C9380E090E01F
:102B9000A6E9B3E4898F9A8FAB8FBC8F698D7A8D4C
:102BA0008B8D9C8D20E030E04AEF54E40E94811828
:102BB000DC01CB018D8B9E8BAF8BB88F6D897E89AD
:102BC0008F89988D20E030E040E85FE30E94871A0B
:102BD00088232CF481E090E09C8B8B8B3FC06D8927
:102BE0007E898F89988D20E03FEF4FE757E40E9460
:102BF000271A18164CF5698D7A8D8B8D9C8D20E0E7
:102C000030E040E251E40E948118DC01CB01BC01BC
:102C1000CD010E94AB16DC01CB019C8B8B8B0FC0CE
:102C200088EC90E09A8B898B89899A890197F1F7D2
:102C30009A8B898B8B899C8901979C8B8B8B8B8939
:102C40009C89009769F714C06D897E898F89988D5A
:102C50000E94AB16DC01CB019C8B8B8B8B899C89F2
:102C6000988B8F878F8598890197F1F7988B8F873D
:102C700080E090E0A0E2B1E48B879C87AD87BE87BF
:102C80006B857C858D859E8520E030E04AEF54E49D
:102C90000E948118DC01CB018F839887A987BA87AE
:102CA0006F81788589859A8520E030E040E85FE390
:102CB0000E94871A88232CF481E090E09E838D8304
:102CC0003FC06F81788589859A8520E03FEF4FE787
:102CD00057E40E94271A18164CF56B857C858D8564
:102CE0009E8520E030E040E251E40E948118DC0142
:102CF000CB01BC01CD010E94AB16DC01CB019E8350
:102D00008D830FC088EC90E09C838B838B819C81AA
:102D10000197F1F79C838B838D819E8101979E8320
:102D20008D838D819E81009769F7ADCB6F8178850A
:102D300089859A850E94AB16DC01CB019E838D8329
:102D40008D819E819A83898389819A810197F1F788
:102D50009A83898398CBEF92FF920F931F937B0105
:102D60008C0120E030E040E05FE40E94571A8823A5
:102D70008CF0C801B70120E030E040E05FE40E9441
:102D800023180E94B71A9B01AC01205030404040EC
:102D9000504806C0C801B7010E94B71A9B01AC0198
:102DA000B901CA011F910F91FF90EF900895A0E023
:102DB000B0E0EDEDF6E10C94BD1CDC012B01FA0155
:102DC0009C91923008F439C1EB018881823008F47B
:102DD00033C1943069F4843009F02FC111969C916D
:102DE00011978981981709F428C1ADE4B2E025C193
:102DF000843009F421C18230A9F4923009F01DC158
:102E00009A01AD0188E0EA010990AE01E901099259
:102E10009E018150C1F7E201898111969C9189231D
:102E2000818308C1923009F407C112962D903C901D
:102E30001397EB018A819B811496AD90BD90CD9044
:102E4000DC901797EC80FD800E811F819101281B7B
:102E5000390BB90137FF04C066277727621B730B54
:102E6000603271050CF061C0121613066CF5370163
:102E70004801062E04C096948794779467940A9428
:102E8000D2F721E030E040E050E004C0220F331FD1
:102E9000441F551F6A95D2F72150304040405040A2
:102EA0002E213F2140235123211531054105510594
:102EB00021F021E030E040E050E079018A01E6288D
:102EC000F728082919293CC0232BD1F1260E371EDB
:102ED00035014601062E04C0969487947794679432
:102EE0000A94D2F721E030E040E050E004C0220F25
:102EF000331F441F551F6A95D2F721503040404080
:102F000050402A213B214C215D21211531054105ED
:102F1000510521F021E030E040E050E059016A0124
:102F2000A628B728C828D9280BC0821593052CF0ED
:102F30001C01AA24BB24650103C0EE24FF248701E1
:102F400011969C91D20111968C91981709F445C065
:102F5000992339F0A80197012A193B094C095D0909
:102F600006C0A60195012E193F09400B510B57FDD4
:102F700008C011823382228224833583468357839B
:102F80001DC081E081833382228288279927DC015A
:102F9000821B930BA40BB50B84839583A683B78305
:102FA0000DC0220F331F441F551F248335834683D2
:102FB0005783828193810197938382832481358112
:102FC00046815781DA01C9010197A109B1098F5FD3
:102FD0009F4FAF4FBF4328F30BC0918333822282B0
:102FE000EA0CFB1C0C1D1D1DE482F5820683178371
:102FF00083E08083248135814681578157FF1AC041
:10300000C901AA2797FDA095BA2F81709070A07072
:10301000B0705695479537952795822B932BA42B07
:10302000B52B84839583A683B78382819381019690
:1030300093838283DF0101C0D201CD01CDB7DEB71A
:10304000E2E10C94D91CA0E2B0E0E9E2F8E10C94D2
:10305000C91C69837A838B839C832D833E834F8332
:103060005887E9E0EE2EF12CEC0EFD1ECE01019604
:10307000B7010E94E01B8E010F5E1F4FCE01059627
:10308000B8010E94E01B8A8991E089278A8BC701D9
:10309000B801AE01475E5F4F0E94D7160E940B1B1E
:1030A000A096E6E00C94E51CA0E2B0E0EAE5F8E1C9
:1030B0000C94C91C69837A838B839C832D833E8304
:1030C0004F835887F9E0EF2EF12CEC0EFD1ECE0158
:1030D0000196B7010E94E01B8E010F5E1F4FCE01CB
:1030E0000596B8010E94E01BC701B801AE01475E1A
:1030F0005F4F0E94D7160E940B1BA096E6E00C942F
:10310000E51CA0E2B0E0E7E8F8E10C94BD1C69839F
:103110007A838B839C832D833E834F835887CE0194
:103120000196BE01675F7F4F0E94E01BCE010596AE
:10313000BE016F5E7F4F0E94E01B9985923088F040
:1031400089898230C8F0943019F4823051F404C077
:10315000843029F4923081F48DE492E0C6C092303C
:1031600049F420E09A858A89981321E02A87CE01C4
:103170000996BBC0823049F420E09A858A89981369
:1031800021E02A8BCE014196B0C02D843E844F842D
:1031900058886D887E888F88988CEE24FF2487015C
:1031A000AA24BB24650140E050E060E070E0E0E06C
:1031B000F0E0C10181709070892BE9F0E60CF71CFA
:1031C000081D191D9A01AB012A0D3B1D4C1D5D1DEB
:1031D00080E090E0A0E0B0E0E614F70408051905EF
:1031E00020F481E090E0A0E0B0E0BA01A901480F2E
:1031F000591F6A1F7B1FAA0CBB1CCC1CDD1C97FE31
:1032000008C081E090E0A0E0B0E0A82AB92ACA2A6C
:10321000DB2A3196E032F10549F0660C771C881CF8
:10322000991C5694479437942794C3CFFA85EA891A
:103230002B893C898B859C85280F391F2E5F3F4F3A
:1032400017C0CA0181709070892B61F0169507959F
:10325000F794E79480E090E0A0E0B0E8E82AF92A4B
:103260000A2B1B2B76956795579547952F5F3F4FF8
:1032700077FDE7CF0CC0440F551F661F771F17FD62
:103280004160EE0CFF1C001F111F215030404030E8
:1032900090E0590790E0690790E4790760F32B8F7D
:1032A0003C8FDB01CA018F779070A070B0708034C2
:1032B0009105A105B10561F447FD0AC0E114F104CF
:1032C0000105110529F0405C5F4F6F4F7F4F40783B
:1032D0001A8EFE1711F081E08A8F4D8F5E8F6F8FEF
:1032E00078A383E0898FCE0149960E940B1BA0969C
:1032F000E2E10C94D91CA8E1B0E0E1E8F9E10C941A
:10330000C51C69837A838B839C832D833E834F8383
:103310005887B9E0EB2EF12CEC0EFD1ECE01019684
:10332000B7010E94E01B8E010F5E1F4FCE01059674
:10333000B8010E94E01B2985223008F47EC039893B
:10334000323010F4B8017CC08A859A8989278A872F
:10335000243011F0223031F4231709F06EC06DE4EF
:1033600072E06EC0343039F41D861E861F86188ABE
:103370001C861B8604C0323021F484E08987B701A3
:103380005FC02B853C858B899C89281B390B3C872A
:103390002B87ED84FE840F851889AD88BE88CF8881
:1033A000D88CEA14FB040C051D0540F4EE0CFF1C40
:1033B000001F111F215030403C872B8720E030E058
:1033C00040E050E080E090E0A0E0B0E460E070E039
:1033D000EA14FB040C051D0540F0282B392B4A2B61
:1033E0005B2BEA18FB080C091D09B695A795979564
:1033F0008795EE0CFF1C001F111F6F5F7F4F6F3111
:10340000710531F7DA01C9018F779070A070B07043
:1034100080349105A105B10561F427FD0AC0E114CE
:10342000F1040105110529F0205C3F4F4F4F5F4F1C
:1034300020782D873E874F87588BBE01675F7F4F6F
:10344000CB010E940B1B6896EAE00C94E11CA8E1FA
:10345000B0E0EDE2FAE10C94C91C69837A838B83B6
:103460009C832D833E834F83588789E0E82EF12C7F
:10347000EC0EFD1ECE010196B7010E94E01B8E01ED
:103480000F5E1F4FCE010596B8010E94E01B898593
:10349000823040F08989823028F0C701B8010E944B
:1034A000581C01C08FEF6896E6E00C94E51CA8E17B
:1034B000B0E0EDE5FAE10C94C91C69837A838B8353
:1034C0009C832D833E834F83588789E0E82EF12C1F
:1034D000EC0EFD1ECE010196B7010E94E01B8E018D
:1034E0000F5E1F4FCE010596B8010E94E01B898533
:1034F000823040F08989823028F0C701B8010E94EB
:10350000581C01C08FEF6896E6E00C94E51CA8E11A
:10351000B0E0EDE8FAE10C94C91C69837A838B83EF
:103520009C832D833E834F83588789E0E82EF12CBE
:10353000EC0EFD1ECE010196B7010E94E01B8E012C
:103540000F5E1F4FCE010596B8010E94E01B8985D2
:10355000823040F08989823028F0C701B8010E948A
:10356000581C01C081E06896E6E00C94E51CACE0D4
:10357000B0E0EDEBFAE10C94CD1C69837A838B8388
:103580009C83CE010196BE016B5F7F4F0E94E01BC2
:103590008D81823061F1823050F1843021F48E814E
:1035A000882351F12EC02F81388537FD20C06E81D0
:1035B0002F3131051CF06623F9F023C08EE190E035
:1035C000821B930B29853A854B855C8504C05695F3
:1035D0004795379527958A95D2F76623B1F0509590
:1035E0004095309521953F4F4F4F5F4F0EC020E0E3
:1035F00030E040E050E009C02FEF3FEF4FEF5FE7D2
:1036000004C020E030E040E050E8B901CA012C9647
:10361000E2E00C94E91CDF92EF92FF920F931F936C
:10362000FC01E480F58006811781D18080818230A1
:1036300048F480E090E0A0E1B0E0E82AF92A0A2B03
:103640001B2BA5C0843009F49FC0823021F4EE24E6
:10365000FF24870105C0E114F1040105110519F4E7
:10366000E0E0F0E096C0628173819FEF62387907F5
:103670000CF05BC022E83FEF261B370B2A313105E7
:103680002CF020E030E040E050E02AC0B801A70173
:10369000022E04C076956795579547950A94D2F700
:1036A00081E090E0A0E0B0E004C0880F991FAA1F5D
:1036B000BB1F2A95D2F70197A109B1098E219F213D
:1036C000A023B1230097A105B10521F081E090E08E
:1036D000A0E0B0E09A01AB01282B392B4A2B5B2BE1
:1036E000DA01C9018F779070A070B07080349105B5
:1036F000A105B10539F427FF09C0205C3F4F4F4FAA
:103700005F4F04C0215C3F4F4F4F5F4FE0E0F0E060
:103710002030A0E03A07A0E04A07A0E45A0710F0E2
:10372000E1E0F0E079018A0127C06038710564F5B5
:10373000FB01E158FF4FD801C7018F779070A0704F
:10374000B07080349105A105B10539F4E7FE0DC0D4
:1037500080E490E0A0E0B0E004C08FE390E0A0E05F
:10376000B0E0E80EF91E0A1F1B1F17FF05C01695D3
:103770000795F794E794319687E016950795F794A7
:10378000E7948A95D1F705C0EE24FF248701EFEF77
:10379000F0E06E2F679566276795902F9F77D794F7
:1037A000DD24D7948E2F8695492F462B582F5D29DF
:1037B000B701CA011F910F91FF90EF90DF9008951C
:1037C000FC01DB01408151812281622F6F7770E023
:1037D000221F2227221F9381892F880F822B282FB7
:1037E00030E0991F9927991F11969C9311972115E5
:1037F0003105A9F5411551056105710511F482E006
:1038000037C082E89FEF13969C938E9312979A018C
:10381000AB0167E0220F331F441F551F6A95D1F794
:1038200083E08C930DC0220F331F441F551F129647
:103830008D919C911397019713969C938E93129759
:10384000203080E0380780E0480780E4580758F3CC
:1038500014962D933D934D935C93179708952F3FA6
:10386000310579F4411551056105710519F484E0BC
:103870008C93089564FF03C081E08C9312C01C9266
:1038800010C02F57304013963C932E93129783E02D
:103890008C9387E0440F551F661F771F8A95D1F7D9
:1038A000706414964D935D936D937C931797089570
:1038B0001F93DC01FB019C91923008F447C080818A
:1038C000823008F443C0943051F411961C91843036
:1038D00099F58181682F70E0611B71093FC08430C8
:1038E00021F0923031F48230B9F18181882389F15D
:1038F0002DC011961C9111978230F1F0818118171B
:10390000D9F412962D913C9113978281938182175D
:10391000930794F028173907BCF014968D919D9168
:103920000D90BC91A02D24813581468157812817A7
:1039300039074A075B0718F4112341F00AC08217C0
:103940009307A407B50740F4112319F061E070E074
:1039500005C06FEF7FEF02C060E070E0CB011F9108
:103960000895991B79E004C0991F961708F0961BDB
:10397000881F7A95C9F7809508952F923F924F92AC
:103980005F926F927F928F929F92AF92BF92CF92EF
:10399000DF92EF92FF920F931F93CF93DF93CDB7F8
:1039A000DEB7CA1BDB0B0FB6F894DEBF0FBECDBF70
:1039B00009942A88398848885F846E847D848C8441
:1039C0009B84AA84B984C884DF80EE80FD800C814A
:1039D0001B81AA81B981CE0FD11D0FB6F894DEBF2D
:1039E0000FBECDBFED010895FB01DC0102C00190C7
:1039F0000D9241505040D8F70895FB019F01E89483
:103A00004230C4F04532B4F44A3029F497FB1EF436
:103A1000909581959F4F642F77270E94CF1F805DDF
:103A20008A330CF0895D8193CB010097A1F716F4DE
:103A30005DE251931082C9010C94351FAEE0B0E0F5
:103A4000E4E2FDE10C94CB1C0D891E8986E08C8399
:103A50001A8309838FEF9FE79E838D839E01275EE4
:103A60003F4FCE0101966F89788DA9010E94421DBA
:103A70002F813885020F131FF80110822E96E4E083
:103A80000C94E71CABE0B0E0E8E4FDE10C94BD1C55
:103A90003C012B015A01FC0117821682838181FDB2
:103AA00003C06FEF7FEFC6C19AE0892E1E01089414
:103AB000211C311CF3012381F20123FD859123FF99
:103AC00081912F01882309F4B2C1853239F423FD95
:103AD000859123FF81912F01853229F490E0B30174
:103AE0000E94451FE7CF982FFF24EE249924FFE181
:103AF000FF15D0F09B3269F09C3228F4903259F0D7
:103B0000933291F40EC09D3249F0903369F441E054
:103B100024C052E0F52A84E0F82A28C098E0F92A67
:103B200025C0E0E1FE2A22C0F7FC29C0892F80537E
:103B30008A3070F4F6FE05C0989C902C1124980EE3
:103B400015C0E89CE02C1124E80EF0E2FF2A0EC01C
:103B50009E3229F4F6FC6BC140E4F42A07C09C367F
:103B600019F450E8F52A02C0983649F4F20123FD11
:103B7000959123FF91912F01992309F0B8CF892FB7
:103B80008554833018F08052833038F444E050E09C
:103B9000A40EB51E5FE359830FC0933631F09337FF
:103BA00079F0933509F056C020C0F50180818983F2
:103BB00042E050E0A40EB51E610101E010E012C029
:103BC000F501C080D180F6FC03C06FEF7FEF02C02B
:103BD000692D70E042E050E0A40EB51EC6010E94BF
:103BE0002A1F8C015FE7F52214C0F501C080D18047
:103BF000F6FC03C06FEF7FEF02C0692D70E042E07A
:103C000050E0A40EB51EC6010E941F1F8C0150E893
:103C1000F52AF3FE07C01AC080E290E0B3010E94CB
:103C2000451FEA948E2D90E008171907A8F30EC0DF
:103C3000F601F7FC8591F7FE81916F0190E0B301E9
:103C40000E94451FE110EA94015010400115110532
:103C500079F7EAC0943611F0993669F5F7FE08C095
:103C6000F501208131814281538184E090E00AC0D6
:103C7000F501808191819C01442737FD4095542FA7
:103C800082E090E0A80EB91E9FE6F92257FF09C016
:103C900050954095309521953F4F4F4F5F4FE0E84D
:103CA000FE2ACA01B901A1012AE030E00E94711F79
:103CB000D82ED21840C0953729F41F2D1F7E2AE038
:103CC00030E01DC01F2D197F9F3661F0903720F422
:103CD000983509F0ACC00FC0903739F0983709F02B
:103CE000A6C004C028E030E00AC0106114FD1460D2
:103CF00020E130E004C014FD166020E132E017FF3F
:103D000008C0F501608171818281938144E050E0B7
:103D100008C0F50180819181BC0180E090E042E023
:103D200050E0A40EB51EA1010E94711FD82ED2181A
:103D30008FE7F82EF122F6FE0BC05EEFF522D914C4
:103D400038F4F4FE07C0F2FC05C08FEEF82202C082
:103D50001D2D01C0192DF4FE0DC0FE01ED0DF11D4C
:103D60008081803319F499EEF92208C01F5FF2FEBA
:103D700005C003C08F2D867809F01F5F0F2DF3FC5F
:103D800014C0F0FE0FC01E1510F09D2C0BC09D2C12
:103D90009E0C911A1E2D06C080E290E0B3010E9495
:103DA000451F1F5F1E15C0F304C01E1510F4E11A55
:103DB00001C0EE2404FF0FC080E390E0B3010E9435
:103DC000451F02FF1DC001FD03C088E790E00EC043
:103DD00088E590E00BC0802F867891F001FF02C04B
:103DE0008BE201C080E2F7FC8DE290E0B3010E941B
:103DF000451F06C080E390E0B3010E94451F9A94DE
:103E0000D914C0F3DA94F101ED0DF11D808190E039
:103E1000B3010E94451FDD20A9F706C080E290E0B3
:103E2000B3010E94451FEA94EE20C1F743CEF3018F
:103E300066817781CB012B96E2E10C94D91CFC01C1
:103E40000590615070400110D8F7809590958E0FC5
:103E50009F1F0895FC016150704001900110D8F738
:103E6000809590958E0F9F1F0895DC01FC01672FB0
:103E700071917723E1F7329704C07C916D93708341
:103E80006291AE17BF07C8F308950F931F93CF93A6
:103E9000DF938C01EB018B8181FF1BC082FF0DC082
:103EA0002E813F818C819D812817390764F4E88138
:103EB000F9810193F983E88306C0E885F985802FAD
:103EC0000995892B31F48E819F8101969F838E8382
:103ED00002C00FEF1FEFC801DF91CF911F910F912B
:103EE0000895FA01AA27283051F1203181F1E89490
:103EF0006F936E7F6E5F7F4F8F4F9F4FAF4FB1E0DD
:103F00003ED0B4E03CD0670F781F891F9A1FA11DD7
:103F1000680F791F8A1F911DA11D6A0F711D811DD8
:103F2000911DA11D20D009F468943F912AE0269F9D
:103F300011243019305D3193DEF6CF010895462FFC
:103F40004770405D4193B3E00FD0C9F7F6CF462FDD
:103F50004F70405D4A3318F0495D31FD4052419346
:103F600002D0A9F7EACFB4E0A69597958795779503
:103F70006795BA95C9F700976105710508959B018A
:103F8000AC010A2E06945795479537952795BA9513
:103F9000C9F7620F731F841F951FA01D0895AA1BE8
:103FA000BB1B51E107C0AA1FBB1FA617B70710F024
:103FB000A61BB70B881F991F5A95A9F78095909556
:0A3FC000BC01CD010895F894FFCF75
:103FCA00E8E8F0F0E2C1C2C2C2C2C1C2C2C2C3C101
:103FDA00C2C2C2C4C1C2C2C2C5C1C2C2C2C6E8E864
:103FEA00F0F0E2696E666F0D0A005354415455535E
:103FFA003A20253032580D0A00434F4E4649473A77
:10400A0020253032580D0A0052465F43483A20258F
:10401A003032580D0A0052465F53455455503A20E3
:10402A00253032580D0A00454E5F41413A2025306D
:10403A0032580D0A00454E5F5258414444523A20C4
:10404A00253032580D0A004F4253455256455F54A7
:10405A00583A20253032580D0A000D0A00C1C2C252
:10406A00C2C6C1C2C2C2C5C1C2C2C2C4C1C2C2C220
:10407A00C3C1C2C2C2C2E8E8F0F0E27374617274EA
:10408A00696E672061732074782E2E2E0D0A0073D4
:10409A0074617274696E672061732072782E2E2E95
:1040AA000D0A0073656E64696E6720646174612C21
:1040BA00206F6E207069706520002E2E2E20006FF2
:1040CA006B0D0A006661696C65640D0A00676574A8
:1040DA0074696E6720646174612C206F6E20706948
:1040EA00706520000D0A002020646174613A200086
:1040FA002020636865636B206F6B0D0A00202063C4
:10410A006865636B206661696C730D0A00000000C4
:06411A000000000000009F
:00000001FF
